{
	"contracts/SupplyChainProveance.sol": {
		"SupplyChainProvenance": {
			"abi": [
				{
					"anonymous": false,
					"inputs": [
						{
							"indexed": true,
							"internalType": "uint256",
							"name": "productId",
							"type": "uint256"
						},
						{
							"indexed": true,
							"internalType": "address",
							"name": "previousOwner",
							"type": "address"
						},
						{
							"indexed": true,
							"internalType": "address",
							"name": "newOwner",
							"type": "address"
						}
					],
					"name": "CustodyTransferred",
					"type": "event"
				},
				{
					"anonymous": false,
					"inputs": [
						{
							"indexed": true,
							"internalType": "uint256",
							"name": "productId",
							"type": "uint256"
						},
						{
							"indexed": false,
							"internalType": "string",
							"name": "name",
							"type": "string"
						},
						{
							"indexed": false,
							"internalType": "string",
							"name": "origin",
							"type": "string"
						},
						{
							"indexed": false,
							"internalType": "string",
							"name": "batchNumber",
							"type": "string"
						},
						{
							"indexed": true,
							"internalType": "address",
							"name": "registeredBy",
							"type": "address"
						}
					],
					"name": "ProductRegistered",
					"type": "event"
				},
				{
					"anonymous": false,
					"inputs": [
						{
							"indexed": true,
							"internalType": "uint256",
							"name": "productId",
							"type": "uint256"
						},
						{
							"indexed": false,
							"internalType": "string",
							"name": "newStatus",
							"type": "string"
						},
						{
							"indexed": true,
							"internalType": "address",
							"name": "updatedBy",
							"type": "address"
						}
					],
					"name": "ProductStatusUpdated",
					"type": "event"
				},
				{
					"inputs": [
						{
							"internalType": "address",
							"name": "stakeholder",
							"type": "address"
						},
						{
							"internalType": "string",
							"name": "role",
							"type": "string"
						}
					],
					"name": "assignRole",
					"outputs": [],
					"stateMutability": "nonpayable",
					"type": "function"
				},
				{
					"inputs": [
						{
							"internalType": "uint256",
							"name": "productId",
							"type": "uint256"
						},
						{
							"internalType": "string",
							"name": "name",
							"type": "string"
						},
						{
							"internalType": "string",
							"name": "origin",
							"type": "string"
						},
						{
							"internalType": "string",
							"name": "batchNumber",
							"type": "string"
						}
					],
					"name": "registerProduct",
					"outputs": [],
					"stateMutability": "nonpayable",
					"type": "function"
				},
				{
					"inputs": [
						{
							"internalType": "address",
							"name": "",
							"type": "address"
						}
					],
					"name": "stakeholderRoles",
					"outputs": [
						{
							"internalType": "string",
							"name": "",
							"type": "string"
						}
					],
					"stateMutability": "view",
					"type": "function"
				},
				{
					"inputs": [
						{
							"internalType": "uint256",
							"name": "productId",
							"type": "uint256"
						},
						{
							"internalType": "address",
							"name": "newOwner",
							"type": "address"
						}
					],
					"name": "transferCustody",
					"outputs": [],
					"stateMutability": "nonpayable",
					"type": "function"
				},
				{
					"inputs": [
						{
							"internalType": "uint256",
							"name": "productId",
							"type": "uint256"
						},
						{
							"internalType": "string",
							"name": "newStatus",
							"type": "string"
						}
					],
					"name": "updateProductStatus",
					"outputs": [],
					"stateMutability": "nonpayable",
					"type": "function"
				},
				{
					"inputs": [
						{
							"internalType": "uint256",
							"name": "productId",
							"type": "uint256"
						}
					],
					"name": "verifyProduct",
					"outputs": [
						{
							"internalType": "string",
							"name": "name",
							"type": "string"
						},
						{
							"internalType": "string",
							"name": "origin",
							"type": "string"
						},
						{
							"internalType": "string",
							"name": "batchNumber",
							"type": "string"
						},
						{
							"internalType": "address",
							"name": "currentOwner",
							"type": "address"
						},
						{
							"internalType": "string",
							"name": "status",
							"type": "string"
						},
						{
							"internalType": "uint256",
							"name": "createdAt",
							"type": "uint256"
						}
					],
					"stateMutability": "view",
					"type": "function"
				}
			],
			"devdoc": {
				"details": "This draft focuses on structure, interfaces, and intended behavior rather than full production functionality.",
				"kind": "dev",
				"methods": {
					"assignRole(address,string)": {
						"details": "In a complete implementation, role management should use stronger access control."
					},
					"registerProduct(uint256,string,string,string)": {
						"details": "This function is intended to be called by a producer or manufacturer. It creates the initial provenance record for the product."
					},
					"transferCustody(uint256,address)": {
						"details": "In a later version, this should include stricter access checks and role validation."
					},
					"updateProductStatus(uint256,string)": {
						"details": "Example statuses: Created, Shipped, Received, Delivered."
					},
					"verifyProduct(uint256)": {
						"details": "Consumers, retailers, or regulators can use this function to inspect product information."
					}
				},
				"stateVariables": {
					"stakeholderRoles": {
						"details": "This is a draft structure and may be expanded later with more robust RBAC."
					}
				},
				"title": "SupplyChainProvenance",
				"version": 1
			},
			"evm": {
				"assembly": "    /* \"contracts/SupplyChainProveance.sol\":280:5050  contract SupplyChainProvenance is IProductTracker {... */\n  mstore(0x40, 0x80)\n  callvalue\n  dup1\n  iszero\n  tag_1\n  jumpi\n  revert(0x00, 0x00)\ntag_1:\n  pop\n  dataSize(sub_0)\n  dup1\n  dataOffset(sub_0)\n  0x00\n  codecopy\n  0x00\n  return\nstop\n\nsub_0: assembly {\n        /* \"contracts/SupplyChainProveance.sol\":280:5050  contract SupplyChainProvenance is IProductTracker {... */\n      mstore(0x40, 0x80)\n      callvalue\n      dup1\n      iszero\n      tag_1\n      jumpi\n      revert(0x00, 0x00)\n    tag_1:\n      pop\n      jumpi(tag_2, lt(calldatasize, 0x04))\n      shr(0xe0, calldataload(0x00))\n      dup1\n      0x37d306fe\n      eq\n      tag_3\n      jumpi\n      dup1\n      0x524e8462\n      eq\n      tag_4\n      jumpi\n      dup1\n      0x700bd66e\n      eq\n      tag_5\n      jumpi\n      dup1\n      0x815fc9bb\n      eq\n      tag_6\n      jumpi\n      dup1\n      0xb7dfcbee\n      eq\n      tag_7\n      jumpi\n      dup1\n      0xba429578\n      eq\n      tag_8\n      jumpi\n    tag_2:\n      revert(0x00, 0x00)\n        /* \"contracts/SupplyChainProveance.sol\":1141:1191  mapping(address => string) public stakeholderRoles */\n    tag_3:\n      tag_9\n      0x04\n      dup1\n      calldatasize\n      sub\n      dup2\n      add\n      swap1\n      tag_10\n      swap2\n      swap1\n      tag_11\n      jump\t// in\n    tag_10:\n      tag_12\n      jump\t// in\n    tag_9:\n      mload(0x40)\n      tag_13\n      swap2\n      swap1\n      tag_14\n      jump\t// in\n    tag_13:\n      mload(0x40)\n      dup1\n      swap2\n      sub\n      swap1\n      return\n        /* \"contracts/SupplyChainProveance.sol\":4404:5048  function verifyProduct(... */\n    tag_4:\n      tag_15\n      0x04\n      dup1\n      calldatasize\n      sub\n      dup2\n      add\n      swap1\n      tag_16\n      swap2\n      swap1\n      tag_17\n      jump\t// in\n    tag_16:\n      tag_18\n      jump\t// in\n    tag_15:\n      mload(0x40)\n      tag_19\n      swap7\n      swap6\n      swap5\n      swap4\n      swap3\n      swap2\n      swap1\n      tag_20\n      jump\t// in\n    tag_19:\n      mload(0x40)\n      dup1\n      swap2\n      sub\n      swap1\n      return\n        /* \"contracts/SupplyChainProveance.sol\":2328:2983  function registerProduct(... */\n    tag_5:\n      tag_21\n      0x04\n      dup1\n      calldatasize\n      sub\n      dup2\n      add\n      swap1\n      tag_22\n      swap2\n      swap1\n      tag_23\n      jump\t// in\n    tag_22:\n      tag_24\n      jump\t// in\n    tag_21:\n      stop\n        /* \"contracts/SupplyChainProveance.sol\":3170:3640  function transferCustody(... */\n    tag_6:\n      tag_25\n      0x04\n      dup1\n      calldatasize\n      sub\n      dup2\n      add\n      swap1\n      tag_26\n      swap2\n      swap1\n      tag_27\n      jump\t// in\n    tag_26:\n      tag_28\n      jump\t// in\n    tag_25:\n      stop\n        /* \"contracts/SupplyChainProveance.sol\":1993:2114  function assignRole(address stakeholder, string memory role) public {... */\n    tag_7:\n      tag_29\n      0x04\n      dup1\n      calldatasize\n      sub\n      dup2\n      add\n      swap1\n      tag_30\n      swap2\n      swap1\n      tag_31\n      jump\t// in\n    tag_30:\n      tag_32\n      jump\t// in\n    tag_29:\n      stop\n        /* \"contracts/SupplyChainProveance.sol\":3802:4226  function updateProductStatus(... */\n    tag_8:\n      tag_33\n      0x04\n      dup1\n      calldatasize\n      sub\n      dup2\n      add\n      swap1\n      tag_34\n      swap2\n      swap1\n      tag_35\n      jump\t// in\n    tag_34:\n      tag_36\n      jump\t// in\n    tag_33:\n      stop\n        /* \"contracts/SupplyChainProveance.sol\":1141:1191  mapping(address => string) public stakeholderRoles */\n    tag_12:\n      mstore(0x20, 0x01)\n      dup1\n      0x00\n      mstore\n      keccak256(0x00, 0x40)\n      0x00\n      swap2\n      pop\n      swap1\n      pop\n      dup1\n      sload\n      tag_37\n      swap1\n      tag_38\n      jump\t// in\n    tag_37:\n      dup1\n      0x1f\n      add\n      0x20\n      dup1\n      swap2\n      div\n      mul\n      0x20\n      add\n      mload(0x40)\n      swap1\n      dup2\n      add\n      0x40\n      mstore\n      dup1\n      swap3\n      swap2\n      swap1\n      dup2\n      dup2\n      mstore\n      0x20\n      add\n      dup3\n      dup1\n      sload\n      tag_39\n      swap1\n      tag_38\n      jump\t// in\n    tag_39:\n      dup1\n      iszero\n      tag_40\n      jumpi\n      dup1\n      0x1f\n      lt\n      tag_41\n      jumpi\n      0x0100\n      dup1\n      dup4\n      sload\n      div\n      mul\n      dup4\n      mstore\n      swap2\n      0x20\n      add\n      swap2\n      jump(tag_40)\n    tag_41:\n      dup3\n      add\n      swap2\n      swap1\n      0x00\n      mstore\n      keccak256(0x00, 0x20)\n      swap1\n    tag_42:\n      dup2\n      sload\n      dup2\n      mstore\n      swap1\n      0x01\n      add\n      swap1\n      0x20\n      add\n      dup1\n      dup4\n      gt\n      tag_42\n      jumpi\n      dup3\n      swap1\n      sub\n      0x1f\n      and\n      dup3\n      add\n      swap2\n    tag_40:\n      pop\n      pop\n      pop\n      pop\n      pop\n      dup2\n      jump\t// out\n        /* \"contracts/SupplyChainProveance.sol\":4404:5048  function verifyProduct(... */\n    tag_18:\n        /* \"contracts/SupplyChainProveance.sol\":4537:4555  string memory name */\n      0x60\n        /* \"contracts/SupplyChainProveance.sol\":4569:4589  string memory origin */\n      dup1\n        /* \"contracts/SupplyChainProveance.sol\":4603:4628  string memory batchNumber */\n      0x60\n        /* \"contracts/SupplyChainProveance.sol\":4642:4662  address currentOwner */\n      0x00\n        /* \"contracts/SupplyChainProveance.sol\":4676:4696  string memory status */\n      0x60\n        /* \"contracts/SupplyChainProveance.sol\":4710:4727  uint256 createdAt */\n      0x00\n        /* \"contracts/SupplyChainProveance.sol\":4760:4768  products */\n      0x00\n        /* \"contracts/SupplyChainProveance.sol\":4760:4779  products[productId] */\n      0x00\n        /* \"contracts/SupplyChainProveance.sol\":4769:4778  productId */\n      dup9\n        /* \"contracts/SupplyChainProveance.sol\":4760:4779  products[productId] */\n      dup2\n      mstore\n      0x20\n      add\n      swap1\n      dup2\n      mstore\n      0x20\n      add\n      0x00\n      keccak256\n        /* \"contracts/SupplyChainProveance.sol\":4760:4786  products[productId].exists */\n      0x07\n      add\n      0x00\n      swap1\n      sload\n      swap1\n      0x0100\n      exp\n      swap1\n      div\n      0xff\n      and\n        /* \"contracts/SupplyChainProveance.sol\":4752:4813  require(products[productId].exists, \"Product does not exist\") */\n      tag_44\n      jumpi\n      mload(0x40)\n      0x08c379a000000000000000000000000000000000000000000000000000000000\n      dup2\n      mstore\n      0x04\n      add\n      tag_45\n      swap1\n      tag_46\n      jump\t// in\n    tag_45:\n      mload(0x40)\n      dup1\n      swap2\n      sub\n      swap1\n      revert\n    tag_44:\n        /* \"contracts/SupplyChainProveance.sol\":4824:4840  Product memory p */\n      0x00\n        /* \"contracts/SupplyChainProveance.sol\":4843:4851  products */\n      0x00\n        /* \"contracts/SupplyChainProveance.sol\":4843:4862  products[productId] */\n      0x00\n        /* \"contracts/SupplyChainProveance.sol\":4852:4861  productId */\n      dup10\n        /* \"contracts/SupplyChainProveance.sol\":4843:4862  products[productId] */\n      dup2\n      mstore\n      0x20\n      add\n      swap1\n      dup2\n      mstore\n      0x20\n      add\n      0x00\n      keccak256\n        /* \"contracts/SupplyChainProveance.sol\":4824:4862  Product memory p = products[productId] */\n      mload(0x40)\n      dup1\n      0x0100\n      add\n      0x40\n      mstore\n      swap1\n      dup2\n      0x00\n      dup3\n      add\n      sload\n      dup2\n      mstore\n      0x20\n      add\n      0x01\n      dup3\n      add\n      dup1\n      sload\n      tag_47\n      swap1\n      tag_38\n      jump\t// in\n    tag_47:\n      dup1\n      0x1f\n      add\n      0x20\n      dup1\n      swap2\n      div\n      mul\n      0x20\n      add\n      mload(0x40)\n      swap1\n      dup2\n      add\n      0x40\n      mstore\n      dup1\n      swap3\n      swap2\n      swap1\n      dup2\n      dup2\n      mstore\n      0x20\n      add\n      dup3\n      dup1\n      sload\n      tag_48\n      swap1\n      tag_38\n      jump\t// in\n    tag_48:\n      dup1\n      iszero\n      tag_49\n      jumpi\n      dup1\n      0x1f\n      lt\n      tag_50\n      jumpi\n      0x0100\n      dup1\n      dup4\n      sload\n      div\n      mul\n      dup4\n      mstore\n      swap2\n      0x20\n      add\n      swap2\n      jump(tag_49)\n    tag_50:\n      dup3\n      add\n      swap2\n      swap1\n      0x00\n      mstore\n      keccak256(0x00, 0x20)\n      swap1\n    tag_51:\n      dup2\n      sload\n      dup2\n      mstore\n      swap1\n      0x01\n      add\n      swap1\n      0x20\n      add\n      dup1\n      dup4\n      gt\n      tag_51\n      jumpi\n      dup3\n      swap1\n      sub\n      0x1f\n      and\n      dup3\n      add\n      swap2\n    tag_49:\n      pop\n      pop\n      pop\n      pop\n      pop\n      dup2\n      mstore\n      0x20\n      add\n      0x02\n      dup3\n      add\n      dup1\n      sload\n      tag_52\n      swap1\n      tag_38\n      jump\t// in\n    tag_52:\n      dup1\n      0x1f\n      add\n      0x20\n      dup1\n      swap2\n      div\n      mul\n      0x20\n      add\n      mload(0x40)\n      swap1\n      dup2\n      add\n      0x40\n      mstore\n      dup1\n      swap3\n      swap2\n      swap1\n      dup2\n      dup2\n      mstore\n      0x20\n      add\n      dup3\n      dup1\n      sload\n      tag_53\n      swap1\n      tag_38\n      jump\t// in\n    tag_53:\n      dup1\n      iszero\n      tag_54\n      jumpi\n      dup1\n      0x1f\n      lt\n      tag_55\n      jumpi\n      0x0100\n      dup1\n      dup4\n      sload\n      div\n      mul\n      dup4\n      mstore\n      swap2\n      0x20\n      add\n      swap2\n      jump(tag_54)\n    tag_55:\n      dup3\n      add\n      swap2\n      swap1\n      0x00\n      mstore\n      keccak256(0x00, 0x20)\n      swap1\n    tag_56:\n      dup2\n      sload\n      dup2\n      mstore\n      swap1\n      0x01\n      add\n      swap1\n      0x20\n      add\n      dup1\n      dup4\n      gt\n      tag_56\n      jumpi\n      dup3\n      swap1\n      sub\n      0x1f\n      and\n      dup3\n      add\n      swap2\n    tag_54:\n      pop\n      pop\n      pop\n      pop\n      pop\n      dup2\n      mstore\n      0x20\n      add\n      0x03\n      dup3\n      add\n      dup1\n      sload\n      tag_57\n      swap1\n      tag_38\n      jump\t// in\n    tag_57:\n      dup1\n      0x1f\n      add\n      0x20\n      dup1\n      swap2\n      div\n      mul\n      0x20\n      add\n      mload(0x40)\n      swap1\n      dup2\n      add\n      0x40\n      mstore\n      dup1\n      swap3\n      swap2\n      swap1\n      dup2\n      dup2\n      mstore\n      0x20\n      add\n      dup3\n      dup1\n      sload\n      tag_58\n      swap1\n      tag_38\n      jump\t// in\n    tag_58:\n      dup1\n      iszero\n      tag_59\n      jumpi\n      dup1\n      0x1f\n      lt\n      tag_60\n      jumpi\n      0x0100\n      dup1\n      dup4\n      sload\n      div\n      mul\n      dup4\n      mstore\n      swap2\n      0x20\n      add\n      swap2\n      jump(tag_59)\n    tag_60:\n      dup3\n      add\n      swap2\n      swap1\n      0x00\n      mstore\n      keccak256(0x00, 0x20)\n      swap1\n    tag_61:\n      dup2\n      sload\n      dup2\n      mstore\n      swap1\n      0x01\n      add\n      swap1\n      0x20\n      add\n      dup1\n      dup4\n      gt\n      tag_61\n      jumpi\n      dup3\n      swap1\n      sub\n      0x1f\n      and\n      dup3\n      add\n      swap2\n    tag_59:\n      pop\n      pop\n      pop\n      pop\n      pop\n      dup2\n      mstore\n      0x20\n      add\n      0x04\n      dup3\n      add\n      0x00\n      swap1\n      sload\n      swap1\n      0x0100\n      exp\n      swap1\n      div\n      0xffffffffffffffffffffffffffffffffffffffff\n      and\n      0xffffffffffffffffffffffffffffffffffffffff\n      and\n      0xffffffffffffffffffffffffffffffffffffffff\n      and\n      dup2\n      mstore\n      0x20\n      add\n      0x05\n      dup3\n      add\n      dup1\n      sload\n      tag_62\n      swap1\n      tag_38\n      jump\t// in\n    tag_62:\n      dup1\n      0x1f\n      add\n      0x20\n      dup1\n      swap2\n      div\n      mul\n      0x20\n      add\n      mload(0x40)\n      swap1\n      dup2\n      add\n      0x40\n      mstore\n      dup1\n      swap3\n      swap2\n      swap1\n      dup2\n      dup2\n      mstore\n      0x20\n      add\n      dup3\n      dup1\n      sload\n      tag_63\n      swap1\n      tag_38\n      jump\t// in\n    tag_63:\n      dup1\n      iszero\n      tag_64\n      jumpi\n      dup1\n      0x1f\n      lt\n      tag_65\n      jumpi\n      0x0100\n      dup1\n      dup4\n      sload\n      div\n      mul\n      dup4\n      mstore\n      swap2\n      0x20\n      add\n      swap2\n      jump(tag_64)\n    tag_65:\n      dup3\n      add\n      swap2\n      swap1\n      0x00\n      mstore\n      keccak256(0x00, 0x20)\n      swap1\n    tag_66:\n      dup2\n      sload\n      dup2\n      mstore\n      swap1\n      0x01\n      add\n      swap1\n      0x20\n      add\n      dup1\n      dup4\n      gt\n      tag_66\n      jumpi\n      dup3\n      swap1\n      sub\n      0x1f\n      and\n      dup3\n      add\n      swap2\n    tag_64:\n      pop\n      pop\n      pop\n      pop\n      pop\n      dup2\n      mstore\n      0x20\n      add\n      0x06\n      dup3\n      add\n      sload\n      dup2\n      mstore\n      0x20\n      add\n      0x07\n      dup3\n      add\n      0x00\n      swap1\n      sload\n      swap1\n      0x0100\n      exp\n      swap1\n      div\n      0xff\n      and\n      iszero\n      iszero\n      iszero\n      iszero\n      dup2\n      mstore\n      pop\n      pop\n      swap1\n      pop\n        /* \"contracts/SupplyChainProveance.sol\":4894:4895  p */\n      dup1\n        /* \"contracts/SupplyChainProveance.sol\":4894:4900  p.name */\n      0x20\n      add\n      mload\n        /* \"contracts/SupplyChainProveance.sol\":4914:4915  p */\n      dup2\n        /* \"contracts/SupplyChainProveance.sol\":4914:4922  p.origin */\n      0x40\n      add\n      mload\n        /* \"contracts/SupplyChainProveance.sol\":4936:4937  p */\n      dup3\n        /* \"contracts/SupplyChainProveance.sol\":4936:4949  p.batchNumber */\n      0x60\n      add\n      mload\n        /* \"contracts/SupplyChainProveance.sol\":4963:4964  p */\n      dup4\n        /* \"contracts/SupplyChainProveance.sol\":4963:4977  p.currentOwner */\n      0x80\n      add\n      mload\n        /* \"contracts/SupplyChainProveance.sol\":4991:4992  p */\n      dup5\n        /* \"contracts/SupplyChainProveance.sol\":4991:5006  p.currentStatus */\n      0xa0\n      add\n      mload\n        /* \"contracts/SupplyChainProveance.sol\":5020:5021  p */\n      dup6\n        /* \"contracts/SupplyChainProveance.sol\":5020:5031  p.createdAt */\n      0xc0\n      add\n      mload\n        /* \"contracts/SupplyChainProveance.sol\":4873:5041  return (... */\n      swap7\n      pop\n      swap7\n      pop\n      swap7\n      pop\n      swap7\n      pop\n      swap7\n      pop\n      swap7\n      pop\n      pop\n        /* \"contracts/SupplyChainProveance.sol\":4404:5048  function verifyProduct(... */\n      swap2\n      swap4\n      swap6\n      pop\n      swap2\n      swap4\n      swap6\n      jump\t// out\n        /* \"contracts/SupplyChainProveance.sol\":2328:2983  function registerProduct(... */\n    tag_24:\n        /* \"contracts/SupplyChainProveance.sol\":2522:2530  products */\n      0x00\n        /* \"contracts/SupplyChainProveance.sol\":2522:2541  products[productId] */\n      0x00\n        /* \"contracts/SupplyChainProveance.sol\":2531:2540  productId */\n      dup9\n        /* \"contracts/SupplyChainProveance.sol\":2522:2541  products[productId] */\n      dup2\n      mstore\n      0x20\n      add\n      swap1\n      dup2\n      mstore\n      0x20\n      add\n      0x00\n      keccak256\n        /* \"contracts/SupplyChainProveance.sol\":2522:2548  products[productId].exists */\n      0x07\n      add\n      0x00\n      swap1\n      sload\n      swap1\n      0x0100\n      exp\n      swap1\n      div\n      0xff\n      and\n        /* \"contracts/SupplyChainProveance.sol\":2521:2548  !products[productId].exists */\n      iszero\n        /* \"contracts/SupplyChainProveance.sol\":2513:2575  require(!products[productId].exists, \"Product already exists\") */\n      tag_68\n      jumpi\n      mload(0x40)\n      0x08c379a000000000000000000000000000000000000000000000000000000000\n      dup2\n      mstore\n      0x04\n      add\n      tag_69\n      swap1\n      tag_70\n      jump\t// in\n    tag_69:\n      mload(0x40)\n      dup1\n      swap2\n      sub\n      swap1\n      revert\n    tag_68:\n        /* \"contracts/SupplyChainProveance.sol\":2608:2893  Product({... */\n      mload(0x40)\n      dup1\n      0x0100\n      add\n      0x40\n      mstore\n      dup1\n        /* \"contracts/SupplyChainProveance.sol\":2641:2650  productId */\n      dup9\n        /* \"contracts/SupplyChainProveance.sol\":2608:2893  Product({... */\n      dup2\n      mstore\n      0x20\n      add\n        /* \"contracts/SupplyChainProveance.sol\":2670:2674  name */\n      dup8\n      dup8\n        /* \"contracts/SupplyChainProveance.sol\":2608:2893  Product({... */\n      dup1\n      dup1\n      0x1f\n      add\n      0x20\n      dup1\n      swap2\n      div\n      mul\n      0x20\n      add\n      mload(0x40)\n      swap1\n      dup2\n      add\n      0x40\n      mstore\n      dup1\n      swap4\n      swap3\n      swap2\n      swap1\n      dup2\n      dup2\n      mstore\n      0x20\n      add\n      dup4\n      dup4\n      dup1\n      dup3\n      dup5\n      calldatacopy\n      0x00\n      dup2\n      dup5\n      add\n      mstore\n      not(0x1f)\n      0x1f\n      dup3\n      add\n      and\n      swap1\n      pop\n      dup1\n      dup4\n      add\n      swap3\n      pop\n      pop\n      pop\n      pop\n      pop\n      pop\n      pop\n      dup2\n      mstore\n      0x20\n      add\n        /* \"contracts/SupplyChainProveance.sol\":2696:2702  origin */\n      dup6\n      dup6\n        /* \"contracts/SupplyChainProveance.sol\":2608:2893  Product({... */\n      dup1\n      dup1\n      0x1f\n      add\n      0x20\n      dup1\n      swap2\n      div\n      mul\n      0x20\n      add\n      mload(0x40)\n      swap1\n      dup2\n      add\n      0x40\n      mstore\n      dup1\n      swap4\n      swap3\n      swap2\n      swap1\n      dup2\n      dup2\n      mstore\n      0x20\n      add\n      dup4\n      dup4\n      dup1\n      dup3\n      dup5\n      calldatacopy\n      0x00\n      dup2\n      dup5\n      add\n      mstore\n      not(0x1f)\n      0x1f\n      dup3\n      add\n      and\n      swap1\n      pop\n      dup1\n      dup4\n      add\n      swap3\n      pop\n      pop\n      pop\n      pop\n      pop\n      pop\n      pop\n      dup2\n      mstore\n      0x20\n      add\n        /* \"contracts/SupplyChainProveance.sol\":2729:2740  batchNumber */\n      dup4\n      dup4\n        /* \"contracts/SupplyChainProveance.sol\":2608:2893  Product({... */\n      dup1\n      dup1\n      0x1f\n      add\n      0x20\n      dup1\n      swap2\n      div\n      mul\n      0x20\n      add\n      mload(0x40)\n      swap1\n      dup2\n      add\n      0x40\n      mstore\n      dup1\n      swap4\n      swap3\n      swap2\n      swap1\n      dup2\n      dup2\n      mstore\n      0x20\n      add\n      dup4\n      dup4\n      dup1\n      dup3\n      dup5\n      calldatacopy\n      0x00\n      dup2\n      dup5\n      add\n      mstore\n      not(0x1f)\n      0x1f\n      dup3\n      add\n      and\n      swap1\n      pop\n      dup1\n      dup4\n      add\n      swap3\n      pop\n      pop\n      pop\n      pop\n      pop\n      pop\n      pop\n      dup2\n      mstore\n      0x20\n      add\n        /* \"contracts/SupplyChainProveance.sol\":2768:2778  msg.sender */\n      caller\n        /* \"contracts/SupplyChainProveance.sol\":2608:2893  Product({... */\n      0xffffffffffffffffffffffffffffffffffffffff\n      and\n      dup2\n      mstore\n      0x20\n      add\n      mload(0x40)\n      dup1\n      0x40\n      add\n      0x40\n      mstore\n      dup1\n      0x07\n      dup2\n      mstore\n      0x20\n      add\n      0x4372656174656400000000000000000000000000000000000000000000000000\n      dup2\n      mstore\n      pop\n      dup2\n      mstore\n      0x20\n      add\n        /* \"contracts/SupplyChainProveance.sol\":2841:2856  block.timestamp */\n      timestamp\n        /* \"contracts/SupplyChainProveance.sol\":2608:2893  Product({... */\n      dup2\n      mstore\n      0x20\n      add\n        /* \"contracts/SupplyChainProveance.sol\":2878:2882  true */\n      0x01\n        /* \"contracts/SupplyChainProveance.sol\":2608:2893  Product({... */\n      iszero\n      iszero\n      dup2\n      mstore\n      pop\n        /* \"contracts/SupplyChainProveance.sol\":2586:2594  products */\n      0x00\n        /* \"contracts/SupplyChainProveance.sol\":2586:2605  products[productId] */\n      0x00\n        /* \"contracts/SupplyChainProveance.sol\":2595:2604  productId */\n      dup10\n        /* \"contracts/SupplyChainProveance.sol\":2586:2605  products[productId] */\n      dup2\n      mstore\n      0x20\n      add\n      swap1\n      dup2\n      mstore\n      0x20\n      add\n      0x00\n      keccak256\n        /* \"contracts/SupplyChainProveance.sol\":2586:2893  products[productId] = Product({... */\n      0x00\n      dup3\n      add\n      mload\n      dup2\n      0x00\n      add\n      sstore\n      0x20\n      dup3\n      add\n      mload\n      dup2\n      0x01\n      add\n      swap1\n      dup2\n      tag_71\n      swap2\n      swap1\n      tag_72\n      jump\t// in\n    tag_71:\n      pop\n      0x40\n      dup3\n      add\n      mload\n      dup2\n      0x02\n      add\n      swap1\n      dup2\n      tag_73\n      swap2\n      swap1\n      tag_72\n      jump\t// in\n    tag_73:\n      pop\n      0x60\n      dup3\n      add\n      mload\n      dup2\n      0x03\n      add\n      swap1\n      dup2\n      tag_74\n      swap2\n      swap1\n      tag_72\n      jump\t// in\n    tag_74:\n      pop\n      0x80\n      dup3\n      add\n      mload\n      dup2\n      0x04\n      add\n      exp(0x0100, 0x00)\n      dup2\n      sload\n      dup2\n      0xffffffffffffffffffffffffffffffffffffffff\n      mul\n      not\n      and\n      swap1\n      dup4\n      0xffffffffffffffffffffffffffffffffffffffff\n      and\n      mul\n      or\n      swap1\n      sstore\n      pop\n      0xa0\n      dup3\n      add\n      mload\n      dup2\n      0x05\n      add\n      swap1\n      dup2\n      tag_75\n      swap2\n      swap1\n      tag_72\n      jump\t// in\n    tag_75:\n      pop\n      0xc0\n      dup3\n      add\n      mload\n      dup2\n      0x06\n      add\n      sstore\n      0xe0\n      dup3\n      add\n      mload\n      dup2\n      0x07\n      add\n      exp(0x0100, 0x00)\n      dup2\n      sload\n      dup2\n      0xff\n      mul\n      not\n      and\n      swap1\n      dup4\n      iszero\n      iszero\n      mul\n      or\n      swap1\n      sstore\n      pop\n      swap1\n      pop\n      pop\n        /* \"contracts/SupplyChainProveance.sol\":2965:2975  msg.sender */\n      caller\n        /* \"contracts/SupplyChainProveance.sol\":2909:2976  ProductRegistered(productId, name, origin, batchNumber, msg.sender) */\n      0xffffffffffffffffffffffffffffffffffffffff\n      and\n        /* \"contracts/SupplyChainProveance.sol\":2927:2936  productId */\n      dup8\n        /* \"contracts/SupplyChainProveance.sol\":2909:2976  ProductRegistered(productId, name, origin, batchNumber, msg.sender) */\n      0x35fd449874d67b116c494e5f11511f6d1f93a6626038d6c4c3cda956aca004f8\n        /* \"contracts/SupplyChainProveance.sol\":2938:2942  name */\n      dup9\n      dup9\n        /* \"contracts/SupplyChainProveance.sol\":2944:2950  origin */\n      dup9\n      dup9\n        /* \"contracts/SupplyChainProveance.sol\":2952:2963  batchNumber */\n      dup9\n      dup9\n        /* \"contracts/SupplyChainProveance.sol\":2909:2976  ProductRegistered(productId, name, origin, batchNumber, msg.sender) */\n      mload(0x40)\n      tag_76\n      swap7\n      swap6\n      swap5\n      swap4\n      swap3\n      swap2\n      swap1\n      tag_77\n      jump\t// in\n    tag_76:\n      mload(0x40)\n      dup1\n      swap2\n      sub\n      swap1\n      log3\n        /* \"contracts/SupplyChainProveance.sol\":2328:2983  function registerProduct(... */\n      pop\n      pop\n      pop\n      pop\n      pop\n      pop\n      pop\n      jump\t// out\n        /* \"contracts/SupplyChainProveance.sol\":3170:3640  function transferCustody(... */\n    tag_28:\n        /* \"contracts/SupplyChainProveance.sol\":3290:3298  products */\n      0x00\n        /* \"contracts/SupplyChainProveance.sol\":3290:3309  products[productId] */\n      0x00\n        /* \"contracts/SupplyChainProveance.sol\":3299:3308  productId */\n      dup4\n        /* \"contracts/SupplyChainProveance.sol\":3290:3309  products[productId] */\n      dup2\n      mstore\n      0x20\n      add\n      swap1\n      dup2\n      mstore\n      0x20\n      add\n      0x00\n      keccak256\n        /* \"contracts/SupplyChainProveance.sol\":3290:3316  products[productId].exists */\n      0x07\n      add\n      0x00\n      swap1\n      sload\n      swap1\n      0x0100\n      exp\n      swap1\n      div\n      0xff\n      and\n        /* \"contracts/SupplyChainProveance.sol\":3282:3343  require(products[productId].exists, \"Product does not exist\") */\n      tag_79\n      jumpi\n      mload(0x40)\n      0x08c379a000000000000000000000000000000000000000000000000000000000\n      dup2\n      mstore\n      0x04\n      add\n      tag_80\n      swap1\n      tag_46\n      jump\t// in\n    tag_80:\n      mload(0x40)\n      dup1\n      swap2\n      sub\n      swap1\n      revert\n    tag_79:\n        /* \"contracts/SupplyChainProveance.sol\":3397:3407  msg.sender */\n      caller\n        /* \"contracts/SupplyChainProveance.sol\":3361:3407  products[productId].currentOwner == msg.sender */\n      0xffffffffffffffffffffffffffffffffffffffff\n      and\n        /* \"contracts/SupplyChainProveance.sol\":3361:3369  products */\n      0x00\n        /* \"contracts/SupplyChainProveance.sol\":3361:3380  products[productId] */\n      0x00\n        /* \"contracts/SupplyChainProveance.sol\":3370:3379  productId */\n      dup5\n        /* \"contracts/SupplyChainProveance.sol\":3361:3380  products[productId] */\n      dup2\n      mstore\n      0x20\n      add\n      swap1\n      dup2\n      mstore\n      0x20\n      add\n      0x00\n      keccak256\n        /* \"contracts/SupplyChainProveance.sol\":3361:3393  products[productId].currentOwner */\n      0x04\n      add\n      0x00\n      swap1\n      sload\n      swap1\n      0x0100\n      exp\n      swap1\n      div\n      0xffffffffffffffffffffffffffffffffffffffff\n      and\n        /* \"contracts/SupplyChainProveance.sol\":3361:3407  products[productId].currentOwner == msg.sender */\n      0xffffffffffffffffffffffffffffffffffffffff\n      and\n      eq\n        /* \"contracts/SupplyChainProveance.sol\":3353:3443  require(products[productId].currentOwner == msg.sender, \"Only current owner can transfer\") */\n      tag_81\n      jumpi\n      mload(0x40)\n      0x08c379a000000000000000000000000000000000000000000000000000000000\n      dup2\n      mstore\n      0x04\n      add\n      tag_82\n      swap1\n      tag_83\n      jump\t// in\n    tag_82:\n      mload(0x40)\n      dup1\n      swap2\n      sub\n      swap1\n      revert\n    tag_81:\n        /* \"contracts/SupplyChainProveance.sol\":3454:3475  address previousOwner */\n      0x00\n        /* \"contracts/SupplyChainProveance.sol\":3478:3486  products */\n      0x00\n        /* \"contracts/SupplyChainProveance.sol\":3478:3497  products[productId] */\n      0x00\n        /* \"contracts/SupplyChainProveance.sol\":3487:3496  productId */\n      dup5\n        /* \"contracts/SupplyChainProveance.sol\":3478:3497  products[productId] */\n      dup2\n      mstore\n      0x20\n      add\n      swap1\n      dup2\n      mstore\n      0x20\n      add\n      0x00\n      keccak256\n        /* \"contracts/SupplyChainProveance.sol\":3478:3510  products[productId].currentOwner */\n      0x04\n      add\n      0x00\n      swap1\n      sload\n      swap1\n      0x0100\n      exp\n      swap1\n      div\n      0xffffffffffffffffffffffffffffffffffffffff\n      and\n        /* \"contracts/SupplyChainProveance.sol\":3454:3510  address previousOwner = products[productId].currentOwner */\n      swap1\n      pop\n        /* \"contracts/SupplyChainProveance.sol\":3555:3563  newOwner */\n      dup2\n        /* \"contracts/SupplyChainProveance.sol\":3520:3528  products */\n      0x00\n        /* \"contracts/SupplyChainProveance.sol\":3520:3539  products[productId] */\n      0x00\n        /* \"contracts/SupplyChainProveance.sol\":3529:3538  productId */\n      dup6\n        /* \"contracts/SupplyChainProveance.sol\":3520:3539  products[productId] */\n      dup2\n      mstore\n      0x20\n      add\n      swap1\n      dup2\n      mstore\n      0x20\n      add\n      0x00\n      keccak256\n        /* \"contracts/SupplyChainProveance.sol\":3520:3552  products[productId].currentOwner */\n      0x04\n      add\n      0x00\n        /* \"contracts/SupplyChainProveance.sol\":3520:3563  products[productId].currentOwner = newOwner */\n      0x0100\n      exp\n      dup2\n      sload\n      dup2\n      0xffffffffffffffffffffffffffffffffffffffff\n      mul\n      not\n      and\n      swap1\n      dup4\n      0xffffffffffffffffffffffffffffffffffffffff\n      and\n      mul\n      or\n      swap1\n      sstore\n      pop\n        /* \"contracts/SupplyChainProveance.sol\":3624:3632  newOwner */\n      dup2\n        /* \"contracts/SupplyChainProveance.sol\":3579:3633  CustodyTransferred(productId, previousOwner, newOwner) */\n      0xffffffffffffffffffffffffffffffffffffffff\n      and\n        /* \"contracts/SupplyChainProveance.sol\":3609:3622  previousOwner */\n      dup2\n        /* \"contracts/SupplyChainProveance.sol\":3579:3633  CustodyTransferred(productId, previousOwner, newOwner) */\n      0xffffffffffffffffffffffffffffffffffffffff\n      and\n        /* \"contracts/SupplyChainProveance.sol\":3598:3607  productId */\n      dup5\n        /* \"contracts/SupplyChainProveance.sol\":3579:3633  CustodyTransferred(productId, previousOwner, newOwner) */\n      0x24aa18fe2c4313c2ac5230b1bfc5a1d7ae3aa27a4ba8b1cd91d35fab737fdc8b\n      mload(0x40)\n      mload(0x40)\n      dup1\n      swap2\n      sub\n      swap1\n      log4\n        /* \"contracts/SupplyChainProveance.sol\":3272:3640  {... */\n      pop\n        /* \"contracts/SupplyChainProveance.sol\":3170:3640  function transferCustody(... */\n      pop\n      pop\n      jump\t// out\n        /* \"contracts/SupplyChainProveance.sol\":1993:2114  function assignRole(address stakeholder, string memory role) public {... */\n    tag_32:\n        /* \"contracts/SupplyChainProveance.sol\":2103:2107  role */\n      dup1\n        /* \"contracts/SupplyChainProveance.sol\":2071:2087  stakeholderRoles */\n      0x01\n        /* \"contracts/SupplyChainProveance.sol\":2071:2100  stakeholderRoles[stakeholder] */\n      0x00\n        /* \"contracts/SupplyChainProveance.sol\":2088:2099  stakeholder */\n      dup5\n        /* \"contracts/SupplyChainProveance.sol\":2071:2100  stakeholderRoles[stakeholder] */\n      0xffffffffffffffffffffffffffffffffffffffff\n      and\n      0xffffffffffffffffffffffffffffffffffffffff\n      and\n      dup2\n      mstore\n      0x20\n      add\n      swap1\n      dup2\n      mstore\n      0x20\n      add\n      0x00\n      keccak256\n        /* \"contracts/SupplyChainProveance.sol\":2071:2107  stakeholderRoles[stakeholder] = role */\n      swap1\n      dup2\n      tag_85\n      swap2\n      swap1\n      tag_72\n      jump\t// in\n    tag_85:\n      pop\n        /* \"contracts/SupplyChainProveance.sol\":1993:2114  function assignRole(address stakeholder, string memory role) public {... */\n      pop\n      pop\n      jump\t// out\n        /* \"contracts/SupplyChainProveance.sol\":3802:4226  function updateProductStatus(... */\n    tag_36:\n        /* \"contracts/SupplyChainProveance.sol\":3935:3943  products */\n      0x00\n        /* \"contracts/SupplyChainProveance.sol\":3935:3954  products[productId] */\n      0x00\n        /* \"contracts/SupplyChainProveance.sol\":3944:3953  productId */\n      dup5\n        /* \"contracts/SupplyChainProveance.sol\":3935:3954  products[productId] */\n      dup2\n      mstore\n      0x20\n      add\n      swap1\n      dup2\n      mstore\n      0x20\n      add\n      0x00\n      keccak256\n        /* \"contracts/SupplyChainProveance.sol\":3935:3961  products[productId].exists */\n      0x07\n      add\n      0x00\n      swap1\n      sload\n      swap1\n      0x0100\n      exp\n      swap1\n      div\n      0xff\n      and\n        /* \"contracts/SupplyChainProveance.sol\":3927:3988  require(products[productId].exists, \"Product does not exist\") */\n      tag_87\n      jumpi\n      mload(0x40)\n      0x08c379a000000000000000000000000000000000000000000000000000000000\n      dup2\n      mstore\n      0x04\n      add\n      tag_88\n      swap1\n      tag_46\n      jump\t// in\n    tag_88:\n      mload(0x40)\n      dup1\n      swap2\n      sub\n      swap1\n      revert\n    tag_87:\n        /* \"contracts/SupplyChainProveance.sol\":4042:4052  msg.sender */\n      caller\n        /* \"contracts/SupplyChainProveance.sol\":4006:4052  products[productId].currentOwner == msg.sender */\n      0xffffffffffffffffffffffffffffffffffffffff\n      and\n        /* \"contracts/SupplyChainProveance.sol\":4006:4014  products */\n      0x00\n        /* \"contracts/SupplyChainProveance.sol\":4006:4025  products[productId] */\n      0x00\n        /* \"contracts/SupplyChainProveance.sol\":4015:4024  productId */\n      dup6\n        /* \"contracts/SupplyChainProveance.sol\":4006:4025  products[productId] */\n      dup2\n      mstore\n      0x20\n      add\n      swap1\n      dup2\n      mstore\n      0x20\n      add\n      0x00\n      keccak256\n        /* \"contracts/SupplyChainProveance.sol\":4006:4038  products[productId].currentOwner */\n      0x04\n      add\n      0x00\n      swap1\n      sload\n      swap1\n      0x0100\n      exp\n      swap1\n      div\n      0xffffffffffffffffffffffffffffffffffffffff\n      and\n        /* \"contracts/SupplyChainProveance.sol\":4006:4052  products[productId].currentOwner == msg.sender */\n      0xffffffffffffffffffffffffffffffffffffffff\n      and\n      eq\n        /* \"contracts/SupplyChainProveance.sol\":3998:4093  require(products[productId].currentOwner == msg.sender, \"Only current owner can update status\") */\n      tag_89\n      jumpi\n      mload(0x40)\n      0x08c379a000000000000000000000000000000000000000000000000000000000\n      dup2\n      mstore\n      0x04\n      add\n      tag_90\n      swap1\n      tag_91\n      jump\t// in\n    tag_90:\n      mload(0x40)\n      dup1\n      swap2\n      sub\n      swap1\n      revert\n    tag_89:\n        /* \"contracts/SupplyChainProveance.sol\":4140:4149  newStatus */\n      dup2\n      dup2\n        /* \"contracts/SupplyChainProveance.sol\":4104:4112  products */\n      0x00\n        /* \"contracts/SupplyChainProveance.sol\":4104:4123  products[productId] */\n      0x00\n        /* \"contracts/SupplyChainProveance.sol\":4113:4122  productId */\n      dup7\n        /* \"contracts/SupplyChainProveance.sol\":4104:4123  products[productId] */\n      dup2\n      mstore\n      0x20\n      add\n      swap1\n      dup2\n      mstore\n      0x20\n      add\n      0x00\n      keccak256\n        /* \"contracts/SupplyChainProveance.sol\":4104:4137  products[productId].currentStatus */\n      0x05\n      add\n        /* \"contracts/SupplyChainProveance.sol\":4104:4149  products[productId].currentStatus = newStatus */\n      swap2\n      dup3\n      tag_92\n      swap3\n      swap2\n      swap1\n      tag_93\n      jump\t// in\n    tag_92:\n      pop\n        /* \"contracts/SupplyChainProveance.sol\":4208:4218  msg.sender */\n      caller\n        /* \"contracts/SupplyChainProveance.sol\":4165:4219  ProductStatusUpdated(productId, newStatus, msg.sender) */\n      0xffffffffffffffffffffffffffffffffffffffff\n      and\n        /* \"contracts/SupplyChainProveance.sol\":4186:4195  productId */\n      dup4\n        /* \"contracts/SupplyChainProveance.sol\":4165:4219  ProductStatusUpdated(productId, newStatus, msg.sender) */\n      0x9763029f6975cab71b8c850a7bdedd2ffe78765c556b357a194889e132e224ce\n        /* \"contracts/SupplyChainProveance.sol\":4197:4206  newStatus */\n      dup5\n      dup5\n        /* \"contracts/SupplyChainProveance.sol\":4165:4219  ProductStatusUpdated(productId, newStatus, msg.sender) */\n      mload(0x40)\n      tag_94\n      swap3\n      swap2\n      swap1\n      tag_95\n      jump\t// in\n    tag_94:\n      mload(0x40)\n      dup1\n      swap2\n      sub\n      swap1\n      log3\n        /* \"contracts/SupplyChainProveance.sol\":3802:4226  function updateProductStatus(... */\n      pop\n      pop\n      pop\n      jump\t// out\n        /* \"#utility.yul\":7:82   */\n    tag_96:\n        /* \"#utility.yul\":40:46   */\n      0x00\n        /* \"#utility.yul\":73:75   */\n      0x40\n        /* \"#utility.yul\":67:76   */\n      mload\n        /* \"#utility.yul\":57:76   */\n      swap1\n      pop\n        /* \"#utility.yul\":7:82   */\n      swap1\n      jump\t// out\n        /* \"#utility.yul\":88:205   */\n    tag_97:\n        /* \"#utility.yul\":197:198   */\n      0x00\n        /* \"#utility.yul\":194:195   */\n      0x00\n        /* \"#utility.yul\":187:199   */\n      revert\n        /* \"#utility.yul\":211:328   */\n    tag_98:\n        /* \"#utility.yul\":320:321   */\n      0x00\n        /* \"#utility.yul\":317:318   */\n      0x00\n        /* \"#utility.yul\":310:322   */\n      revert\n        /* \"#utility.yul\":334:460   */\n    tag_99:\n        /* \"#utility.yul\":371:378   */\n      0x00\n        /* \"#utility.yul\":411:453   */\n      0xffffffffffffffffffffffffffffffffffffffff\n        /* \"#utility.yul\":404:409   */\n      dup3\n        /* \"#utility.yul\":400:454   */\n      and\n        /* \"#utility.yul\":389:454   */\n      swap1\n      pop\n        /* \"#utility.yul\":334:460   */\n      swap2\n      swap1\n      pop\n      jump\t// out\n        /* \"#utility.yul\":466:562   */\n    tag_100:\n        /* \"#utility.yul\":503:510   */\n      0x00\n        /* \"#utility.yul\":532:556   */\n      tag_157\n        /* \"#utility.yul\":550:555   */\n      dup3\n        /* \"#utility.yul\":532:556   */\n      tag_99\n      jump\t// in\n    tag_157:\n        /* \"#utility.yul\":521:556   */\n      swap1\n      pop\n        /* \"#utility.yul\":466:562   */\n      swap2\n      swap1\n      pop\n      jump\t// out\n        /* \"#utility.yul\":568:690   */\n    tag_101:\n        /* \"#utility.yul\":641:665   */\n      tag_159\n        /* \"#utility.yul\":659:664   */\n      dup2\n        /* \"#utility.yul\":641:665   */\n      tag_100\n      jump\t// in\n    tag_159:\n        /* \"#utility.yul\":634:639   */\n      dup2\n        /* \"#utility.yul\":631:666   */\n      eq\n        /* \"#utility.yul\":621:684   */\n      tag_160\n      jumpi\n        /* \"#utility.yul\":680:681   */\n      0x00\n        /* \"#utility.yul\":677:678   */\n      0x00\n        /* \"#utility.yul\":670:682   */\n      revert\n        /* \"#utility.yul\":621:684   */\n    tag_160:\n        /* \"#utility.yul\":568:690   */\n      pop\n      jump\t// out\n        /* \"#utility.yul\":696:835   */\n    tag_102:\n        /* \"#utility.yul\":742:747   */\n      0x00\n        /* \"#utility.yul\":780:786   */\n      dup2\n        /* \"#utility.yul\":767:787   */\n      calldataload\n        /* \"#utility.yul\":758:787   */\n      swap1\n      pop\n        /* \"#utility.yul\":796:829   */\n      tag_162\n        /* \"#utility.yul\":823:828   */\n      dup2\n        /* \"#utility.yul\":796:829   */\n      tag_101\n      jump\t// in\n    tag_162:\n        /* \"#utility.yul\":696:835   */\n      swap3\n      swap2\n      pop\n      pop\n      jump\t// out\n        /* \"#utility.yul\":841:1170   */\n    tag_11:\n        /* \"#utility.yul\":900:906   */\n      0x00\n        /* \"#utility.yul\":949:951   */\n      0x20\n        /* \"#utility.yul\":937:946   */\n      dup3\n        /* \"#utility.yul\":928:935   */\n      dup5\n        /* \"#utility.yul\":924:947   */\n      sub\n        /* \"#utility.yul\":920:952   */\n      slt\n        /* \"#utility.yul\":917:1036   */\n      iszero\n      tag_164\n      jumpi\n        /* \"#utility.yul\":955:1034   */\n      tag_165\n      tag_97\n      jump\t// in\n    tag_165:\n        /* \"#utility.yul\":917:1036   */\n    tag_164:\n        /* \"#utility.yul\":1075:1076   */\n      0x00\n        /* \"#utility.yul\":1100:1153   */\n      tag_166\n        /* \"#utility.yul\":1145:1152   */\n      dup5\n        /* \"#utility.yul\":1136:1142   */\n      dup3\n        /* \"#utility.yul\":1125:1134   */\n      dup6\n        /* \"#utility.yul\":1121:1143   */\n      add\n        /* \"#utility.yul\":1100:1153   */\n      tag_102\n      jump\t// in\n    tag_166:\n        /* \"#utility.yul\":1090:1153   */\n      swap2\n      pop\n        /* \"#utility.yul\":1046:1163   */\n      pop\n        /* \"#utility.yul\":841:1170   */\n      swap3\n      swap2\n      pop\n      pop\n      jump\t// out\n        /* \"#utility.yul\":1176:1275   */\n    tag_103:\n        /* \"#utility.yul\":1228:1234   */\n      0x00\n        /* \"#utility.yul\":1262:1267   */\n      dup2\n        /* \"#utility.yul\":1256:1268   */\n      mload\n        /* \"#utility.yul\":1246:1268   */\n      swap1\n      pop\n        /* \"#utility.yul\":1176:1275   */\n      swap2\n      swap1\n      pop\n      jump\t// out\n        /* \"#utility.yul\":1281:1450   */\n    tag_104:\n        /* \"#utility.yul\":1365:1376   */\n      0x00\n        /* \"#utility.yul\":1399:1405   */\n      dup3\n        /* \"#utility.yul\":1394:1397   */\n      dup3\n        /* \"#utility.yul\":1387:1406   */\n      mstore\n        /* \"#utility.yul\":1439:1443   */\n      0x20\n        /* \"#utility.yul\":1434:1437   */\n      dup3\n        /* \"#utility.yul\":1430:1444   */\n      add\n        /* \"#utility.yul\":1415:1444   */\n      swap1\n      pop\n        /* \"#utility.yul\":1281:1450   */\n      swap3\n      swap2\n      pop\n      pop\n      jump\t// out\n        /* \"#utility.yul\":1456:1595   */\n    tag_105:\n        /* \"#utility.yul\":1545:1551   */\n      dup3\n        /* \"#utility.yul\":1540:1543   */\n      dup2\n        /* \"#utility.yul\":1535:1538   */\n      dup4\n        /* \"#utility.yul\":1529:1552   */\n      mcopy\n        /* \"#utility.yul\":1586:1587   */\n      0x00\n        /* \"#utility.yul\":1577:1583   */\n      dup4\n        /* \"#utility.yul\":1572:1575   */\n      dup4\n        /* \"#utility.yul\":1568:1584   */\n      add\n        /* \"#utility.yul\":1561:1588   */\n      mstore\n        /* \"#utility.yul\":1456:1595   */\n      pop\n      pop\n      pop\n      jump\t// out\n        /* \"#utility.yul\":1601:1703   */\n    tag_106:\n        /* \"#utility.yul\":1642:1648   */\n      0x00\n        /* \"#utility.yul\":1693:1695   */\n      0x1f\n        /* \"#utility.yul\":1689:1696   */\n      not\n        /* \"#utility.yul\":1684:1686   */\n      0x1f\n        /* \"#utility.yul\":1677:1682   */\n      dup4\n        /* \"#utility.yul\":1673:1687   */\n      add\n        /* \"#utility.yul\":1669:1697   */\n      and\n        /* \"#utility.yul\":1659:1697   */\n      swap1\n      pop\n        /* \"#utility.yul\":1601:1703   */\n      swap2\n      swap1\n      pop\n      jump\t// out\n        /* \"#utility.yul\":1709:2086   */\n    tag_107:\n        /* \"#utility.yul\":1797:1800   */\n      0x00\n        /* \"#utility.yul\":1825:1864   */\n      tag_172\n        /* \"#utility.yul\":1858:1863   */\n      dup3\n        /* \"#utility.yul\":1825:1864   */\n      tag_103\n      jump\t// in\n    tag_172:\n        /* \"#utility.yul\":1880:1951   */\n      tag_173\n        /* \"#utility.yul\":1944:1950   */\n      dup2\n        /* \"#utility.yul\":1939:1942   */\n      dup6\n        /* \"#utility.yul\":1880:1951   */\n      tag_104\n      jump\t// in\n    tag_173:\n        /* \"#utility.yul\":1873:1951   */\n      swap4\n      pop\n        /* \"#utility.yul\":1960:2025   */\n      tag_174\n        /* \"#utility.yul\":2018:2024   */\n      dup2\n        /* \"#utility.yul\":2013:2016   */\n      dup6\n        /* \"#utility.yul\":2006:2010   */\n      0x20\n        /* \"#utility.yul\":1999:2004   */\n      dup7\n        /* \"#utility.yul\":1995:2011   */\n      add\n        /* \"#utility.yul\":1960:2025   */\n      tag_105\n      jump\t// in\n    tag_174:\n        /* \"#utility.yul\":2050:2079   */\n      tag_175\n        /* \"#utility.yul\":2072:2078   */\n      dup2\n        /* \"#utility.yul\":2050:2079   */\n      tag_106\n      jump\t// in\n    tag_175:\n        /* \"#utility.yul\":2045:2048   */\n      dup5\n        /* \"#utility.yul\":2041:2080   */\n      add\n        /* \"#utility.yul\":2034:2080   */\n      swap2\n      pop\n        /* \"#utility.yul\":1801:2086   */\n      pop\n        /* \"#utility.yul\":1709:2086   */\n      swap3\n      swap2\n      pop\n      pop\n      jump\t// out\n        /* \"#utility.yul\":2092:2405   */\n    tag_14:\n        /* \"#utility.yul\":2205:2209   */\n      0x00\n        /* \"#utility.yul\":2243:2245   */\n      0x20\n        /* \"#utility.yul\":2232:2241   */\n      dup3\n        /* \"#utility.yul\":2228:2246   */\n      add\n        /* \"#utility.yul\":2220:2246   */\n      swap1\n      pop\n        /* \"#utility.yul\":2292:2301   */\n      dup2\n        /* \"#utility.yul\":2286:2290   */\n      dup2\n        /* \"#utility.yul\":2282:2302   */\n      sub\n        /* \"#utility.yul\":2278:2279   */\n      0x00\n        /* \"#utility.yul\":2267:2276   */\n      dup4\n        /* \"#utility.yul\":2263:2280   */\n      add\n        /* \"#utility.yul\":2256:2303   */\n      mstore\n        /* \"#utility.yul\":2320:2398   */\n      tag_177\n        /* \"#utility.yul\":2393:2397   */\n      dup2\n        /* \"#utility.yul\":2384:2390   */\n      dup5\n        /* \"#utility.yul\":2320:2398   */\n      tag_107\n      jump\t// in\n    tag_177:\n        /* \"#utility.yul\":2312:2398   */\n      swap1\n      pop\n        /* \"#utility.yul\":2092:2405   */\n      swap3\n      swap2\n      pop\n      pop\n      jump\t// out\n        /* \"#utility.yul\":2411:2488   */\n    tag_108:\n        /* \"#utility.yul\":2448:2455   */\n      0x00\n        /* \"#utility.yul\":2477:2482   */\n      dup2\n        /* \"#utility.yul\":2466:2482   */\n      swap1\n      pop\n        /* \"#utility.yul\":2411:2488   */\n      swap2\n      swap1\n      pop\n      jump\t// out\n        /* \"#utility.yul\":2494:2616   */\n    tag_109:\n        /* \"#utility.yul\":2567:2591   */\n      tag_180\n        /* \"#utility.yul\":2585:2590   */\n      dup2\n        /* \"#utility.yul\":2567:2591   */\n      tag_108\n      jump\t// in\n    tag_180:\n        /* \"#utility.yul\":2560:2565   */\n      dup2\n        /* \"#utility.yul\":2557:2592   */\n      eq\n        /* \"#utility.yul\":2547:2610   */\n      tag_181\n      jumpi\n        /* \"#utility.yul\":2606:2607   */\n      0x00\n        /* \"#utility.yul\":2603:2604   */\n      0x00\n        /* \"#utility.yul\":2596:2608   */\n      revert\n        /* \"#utility.yul\":2547:2610   */\n    tag_181:\n        /* \"#utility.yul\":2494:2616   */\n      pop\n      jump\t// out\n        /* \"#utility.yul\":2622:2761   */\n    tag_110:\n        /* \"#utility.yul\":2668:2673   */\n      0x00\n        /* \"#utility.yul\":2706:2712   */\n      dup2\n        /* \"#utility.yul\":2693:2713   */\n      calldataload\n        /* \"#utility.yul\":2684:2713   */\n      swap1\n      pop\n        /* \"#utility.yul\":2722:2755   */\n      tag_183\n        /* \"#utility.yul\":2749:2754   */\n      dup2\n        /* \"#utility.yul\":2722:2755   */\n      tag_109\n      jump\t// in\n    tag_183:\n        /* \"#utility.yul\":2622:2761   */\n      swap3\n      swap2\n      pop\n      pop\n      jump\t// out\n        /* \"#utility.yul\":2767:3096   */\n    tag_17:\n        /* \"#utility.yul\":2826:2832   */\n      0x00\n        /* \"#utility.yul\":2875:2877   */\n      0x20\n        /* \"#utility.yul\":2863:2872   */\n      dup3\n        /* \"#utility.yul\":2854:2861   */\n      dup5\n        /* \"#utility.yul\":2850:2873   */\n      sub\n        /* \"#utility.yul\":2846:2878   */\n      slt\n        /* \"#utility.yul\":2843:2962   */\n      iszero\n      tag_185\n      jumpi\n        /* \"#utility.yul\":2881:2960   */\n      tag_186\n      tag_97\n      jump\t// in\n    tag_186:\n        /* \"#utility.yul\":2843:2962   */\n    tag_185:\n        /* \"#utility.yul\":3001:3002   */\n      0x00\n        /* \"#utility.yul\":3026:3079   */\n      tag_187\n        /* \"#utility.yul\":3071:3078   */\n      dup5\n        /* \"#utility.yul\":3062:3068   */\n      dup3\n        /* \"#utility.yul\":3051:3060   */\n      dup6\n        /* \"#utility.yul\":3047:3069   */\n      add\n        /* \"#utility.yul\":3026:3079   */\n      tag_110\n      jump\t// in\n    tag_187:\n        /* \"#utility.yul\":3016:3079   */\n      swap2\n      pop\n        /* \"#utility.yul\":2972:3089   */\n      pop\n        /* \"#utility.yul\":2767:3096   */\n      swap3\n      swap2\n      pop\n      pop\n      jump\t// out\n        /* \"#utility.yul\":3102:3220   */\n    tag_111:\n        /* \"#utility.yul\":3189:3213   */\n      tag_189\n        /* \"#utility.yul\":3207:3212   */\n      dup2\n        /* \"#utility.yul\":3189:3213   */\n      tag_100\n      jump\t// in\n    tag_189:\n        /* \"#utility.yul\":3184:3187   */\n      dup3\n        /* \"#utility.yul\":3177:3214   */\n      mstore\n        /* \"#utility.yul\":3102:3220   */\n      pop\n      pop\n      jump\t// out\n        /* \"#utility.yul\":3226:3344   */\n    tag_112:\n        /* \"#utility.yul\":3313:3337   */\n      tag_191\n        /* \"#utility.yul\":3331:3336   */\n      dup2\n        /* \"#utility.yul\":3313:3337   */\n      tag_108\n      jump\t// in\n    tag_191:\n        /* \"#utility.yul\":3308:3311   */\n      dup3\n        /* \"#utility.yul\":3301:3338   */\n      mstore\n        /* \"#utility.yul\":3226:3344   */\n      pop\n      pop\n      jump\t// out\n        /* \"#utility.yul\":3350:4489   */\n    tag_20:\n        /* \"#utility.yul\":3663:3667   */\n      0x00\n        /* \"#utility.yul\":3701:3704   */\n      0xc0\n        /* \"#utility.yul\":3690:3699   */\n      dup3\n        /* \"#utility.yul\":3686:3705   */\n      add\n        /* \"#utility.yul\":3678:3705   */\n      swap1\n      pop\n        /* \"#utility.yul\":3751:3760   */\n      dup2\n        /* \"#utility.yul\":3745:3749   */\n      dup2\n        /* \"#utility.yul\":3741:3761   */\n      sub\n        /* \"#utility.yul\":3737:3738   */\n      0x00\n        /* \"#utility.yul\":3726:3735   */\n      dup4\n        /* \"#utility.yul\":3722:3739   */\n      add\n        /* \"#utility.yul\":3715:3762   */\n      mstore\n        /* \"#utility.yul\":3779:3857   */\n      tag_193\n        /* \"#utility.yul\":3852:3856   */\n      dup2\n        /* \"#utility.yul\":3843:3849   */\n      dup10\n        /* \"#utility.yul\":3779:3857   */\n      tag_107\n      jump\t// in\n    tag_193:\n        /* \"#utility.yul\":3771:3857   */\n      swap1\n      pop\n        /* \"#utility.yul\":3904:3913   */\n      dup2\n        /* \"#utility.yul\":3898:3902   */\n      dup2\n        /* \"#utility.yul\":3894:3914   */\n      sub\n        /* \"#utility.yul\":3889:3891   */\n      0x20\n        /* \"#utility.yul\":3878:3887   */\n      dup4\n        /* \"#utility.yul\":3874:3892   */\n      add\n        /* \"#utility.yul\":3867:3915   */\n      mstore\n        /* \"#utility.yul\":3932:4010   */\n      tag_194\n        /* \"#utility.yul\":4005:4009   */\n      dup2\n        /* \"#utility.yul\":3996:4002   */\n      dup9\n        /* \"#utility.yul\":3932:4010   */\n      tag_107\n      jump\t// in\n    tag_194:\n        /* \"#utility.yul\":3924:4010   */\n      swap1\n      pop\n        /* \"#utility.yul\":4057:4066   */\n      dup2\n        /* \"#utility.yul\":4051:4055   */\n      dup2\n        /* \"#utility.yul\":4047:4067   */\n      sub\n        /* \"#utility.yul\":4042:4044   */\n      0x40\n        /* \"#utility.yul\":4031:4040   */\n      dup4\n        /* \"#utility.yul\":4027:4045   */\n      add\n        /* \"#utility.yul\":4020:4068   */\n      mstore\n        /* \"#utility.yul\":4085:4163   */\n      tag_195\n        /* \"#utility.yul\":4158:4162   */\n      dup2\n        /* \"#utility.yul\":4149:4155   */\n      dup8\n        /* \"#utility.yul\":4085:4163   */\n      tag_107\n      jump\t// in\n    tag_195:\n        /* \"#utility.yul\":4077:4163   */\n      swap1\n      pop\n        /* \"#utility.yul\":4173:4245   */\n      tag_196\n        /* \"#utility.yul\":4241:4243   */\n      0x60\n        /* \"#utility.yul\":4230:4239   */\n      dup4\n        /* \"#utility.yul\":4226:4244   */\n      add\n        /* \"#utility.yul\":4217:4223   */\n      dup7\n        /* \"#utility.yul\":4173:4245   */\n      tag_111\n      jump\t// in\n    tag_196:\n        /* \"#utility.yul\":4293:4302   */\n      dup2\n        /* \"#utility.yul\":4287:4291   */\n      dup2\n        /* \"#utility.yul\":4283:4303   */\n      sub\n        /* \"#utility.yul\":4277:4280   */\n      0x80\n        /* \"#utility.yul\":4266:4275   */\n      dup4\n        /* \"#utility.yul\":4262:4281   */\n      add\n        /* \"#utility.yul\":4255:4304   */\n      mstore\n        /* \"#utility.yul\":4321:4399   */\n      tag_197\n        /* \"#utility.yul\":4394:4398   */\n      dup2\n        /* \"#utility.yul\":4385:4391   */\n      dup6\n        /* \"#utility.yul\":4321:4399   */\n      tag_107\n      jump\t// in\n    tag_197:\n        /* \"#utility.yul\":4313:4399   */\n      swap1\n      pop\n        /* \"#utility.yul\":4409:4482   */\n      tag_198\n        /* \"#utility.yul\":4477:4480   */\n      0xa0\n        /* \"#utility.yul\":4466:4475   */\n      dup4\n        /* \"#utility.yul\":4462:4481   */\n      add\n        /* \"#utility.yul\":4453:4459   */\n      dup5\n        /* \"#utility.yul\":4409:4482   */\n      tag_112\n      jump\t// in\n    tag_198:\n        /* \"#utility.yul\":3350:4489   */\n      swap8\n      swap7\n      pop\n      pop\n      pop\n      pop\n      pop\n      pop\n      pop\n      jump\t// out\n        /* \"#utility.yul\":4495:4612   */\n    tag_113:\n        /* \"#utility.yul\":4604:4605   */\n      0x00\n        /* \"#utility.yul\":4601:4602   */\n      0x00\n        /* \"#utility.yul\":4594:4606   */\n      revert\n        /* \"#utility.yul\":4618:4735   */\n    tag_114:\n        /* \"#utility.yul\":4727:4728   */\n      0x00\n        /* \"#utility.yul\":4724:4725   */\n      0x00\n        /* \"#utility.yul\":4717:4729   */\n      revert\n        /* \"#utility.yul\":4741:4858   */\n    tag_115:\n        /* \"#utility.yul\":4850:4851   */\n      0x00\n        /* \"#utility.yul\":4847:4848   */\n      0x00\n        /* \"#utility.yul\":4840:4852   */\n      revert\n        /* \"#utility.yul\":4878:5431   */\n    tag_116:\n        /* \"#utility.yul\":4936:4944   */\n      0x00\n        /* \"#utility.yul\":4946:4952   */\n      0x00\n        /* \"#utility.yul\":4996:4999   */\n      dup4\n        /* \"#utility.yul\":4989:4993   */\n      0x1f\n        /* \"#utility.yul\":4981:4987   */\n      dup5\n        /* \"#utility.yul\":4977:4994   */\n      add\n        /* \"#utility.yul\":4973:5000   */\n      slt\n        /* \"#utility.yul\":4963:5085   */\n      tag_203\n      jumpi\n        /* \"#utility.yul\":5004:5083   */\n      tag_204\n      tag_113\n      jump\t// in\n    tag_204:\n        /* \"#utility.yul\":4963:5085   */\n    tag_203:\n        /* \"#utility.yul\":5117:5123   */\n      dup3\n        /* \"#utility.yul\":5104:5124   */\n      calldataload\n        /* \"#utility.yul\":5094:5124   */\n      swap1\n      pop\n        /* \"#utility.yul\":5147:5165   */\n      0xffffffffffffffff\n        /* \"#utility.yul\":5139:5145   */\n      dup2\n        /* \"#utility.yul\":5136:5166   */\n      gt\n        /* \"#utility.yul\":5133:5250   */\n      iszero\n      tag_205\n      jumpi\n        /* \"#utility.yul\":5169:5248   */\n      tag_206\n      tag_114\n      jump\t// in\n    tag_206:\n        /* \"#utility.yul\":5133:5250   */\n    tag_205:\n        /* \"#utility.yul\":5283:5287   */\n      0x20\n        /* \"#utility.yul\":5275:5281   */\n      dup4\n        /* \"#utility.yul\":5271:5288   */\n      add\n        /* \"#utility.yul\":5259:5288   */\n      swap2\n      pop\n        /* \"#utility.yul\":5337:5340   */\n      dup4\n        /* \"#utility.yul\":5329:5333   */\n      0x01\n        /* \"#utility.yul\":5321:5327   */\n      dup3\n        /* \"#utility.yul\":5317:5334   */\n      mul\n        /* \"#utility.yul\":5307:5315   */\n      dup4\n        /* \"#utility.yul\":5303:5335   */\n      add\n        /* \"#utility.yul\":5300:5341   */\n      gt\n        /* \"#utility.yul\":5297:5425   */\n      iszero\n      tag_207\n      jumpi\n        /* \"#utility.yul\":5344:5423   */\n      tag_208\n      tag_115\n      jump\t// in\n    tag_208:\n        /* \"#utility.yul\":5297:5425   */\n    tag_207:\n        /* \"#utility.yul\":4878:5431   */\n      swap3\n      pop\n      swap3\n      swap1\n      pop\n      jump\t// out\n        /* \"#utility.yul\":5437:6802   */\n    tag_23:\n        /* \"#utility.yul\":5559:5565   */\n      0x00\n        /* \"#utility.yul\":5567:5573   */\n      0x00\n        /* \"#utility.yul\":5575:5581   */\n      0x00\n        /* \"#utility.yul\":5583:5589   */\n      0x00\n        /* \"#utility.yul\":5591:5597   */\n      0x00\n        /* \"#utility.yul\":5599:5605   */\n      0x00\n        /* \"#utility.yul\":5607:5613   */\n      0x00\n        /* \"#utility.yul\":5656:5659   */\n      0x80\n        /* \"#utility.yul\":5644:5653   */\n      dup9\n        /* \"#utility.yul\":5635:5642   */\n      dup11\n        /* \"#utility.yul\":5631:5654   */\n      sub\n        /* \"#utility.yul\":5627:5660   */\n      slt\n        /* \"#utility.yul\":5624:5744   */\n      iszero\n      tag_210\n      jumpi\n        /* \"#utility.yul\":5663:5742   */\n      tag_211\n      tag_97\n      jump\t// in\n    tag_211:\n        /* \"#utility.yul\":5624:5744   */\n    tag_210:\n        /* \"#utility.yul\":5783:5784   */\n      0x00\n        /* \"#utility.yul\":5808:5861   */\n      tag_212\n        /* \"#utility.yul\":5853:5860   */\n      dup11\n        /* \"#utility.yul\":5844:5850   */\n      dup3\n        /* \"#utility.yul\":5833:5842   */\n      dup12\n        /* \"#utility.yul\":5829:5851   */\n      add\n        /* \"#utility.yul\":5808:5861   */\n      tag_110\n      jump\t// in\n    tag_212:\n        /* \"#utility.yul\":5798:5861   */\n      swap8\n      pop\n        /* \"#utility.yul\":5754:5871   */\n      pop\n        /* \"#utility.yul\":5938:5940   */\n      0x20\n        /* \"#utility.yul\":5927:5936   */\n      dup9\n        /* \"#utility.yul\":5923:5941   */\n      add\n        /* \"#utility.yul\":5910:5942   */\n      calldataload\n        /* \"#utility.yul\":5969:5987   */\n      0xffffffffffffffff\n        /* \"#utility.yul\":5961:5967   */\n      dup2\n        /* \"#utility.yul\":5958:5988   */\n      gt\n        /* \"#utility.yul\":5955:6072   */\n      iszero\n      tag_213\n      jumpi\n        /* \"#utility.yul\":5991:6070   */\n      tag_214\n      tag_98\n      jump\t// in\n    tag_214:\n        /* \"#utility.yul\":5955:6072   */\n    tag_213:\n        /* \"#utility.yul\":6104:6169   */\n      tag_215\n        /* \"#utility.yul\":6161:6168   */\n      dup11\n        /* \"#utility.yul\":6152:6158   */\n      dup3\n        /* \"#utility.yul\":6141:6150   */\n      dup12\n        /* \"#utility.yul\":6137:6159   */\n      add\n        /* \"#utility.yul\":6104:6169   */\n      tag_116\n      jump\t// in\n    tag_215:\n        /* \"#utility.yul\":6086:6169   */\n      swap7\n      pop\n      swap7\n      pop\n        /* \"#utility.yul\":5881:6179   */\n      pop\n        /* \"#utility.yul\":6246:6248   */\n      0x40\n        /* \"#utility.yul\":6235:6244   */\n      dup9\n        /* \"#utility.yul\":6231:6249   */\n      add\n        /* \"#utility.yul\":6218:6250   */\n      calldataload\n        /* \"#utility.yul\":6277:6295   */\n      0xffffffffffffffff\n        /* \"#utility.yul\":6269:6275   */\n      dup2\n        /* \"#utility.yul\":6266:6296   */\n      gt\n        /* \"#utility.yul\":6263:6380   */\n      iszero\n      tag_216\n      jumpi\n        /* \"#utility.yul\":6299:6378   */\n      tag_217\n      tag_98\n      jump\t// in\n    tag_217:\n        /* \"#utility.yul\":6263:6380   */\n    tag_216:\n        /* \"#utility.yul\":6412:6477   */\n      tag_218\n        /* \"#utility.yul\":6469:6476   */\n      dup11\n        /* \"#utility.yul\":6460:6466   */\n      dup3\n        /* \"#utility.yul\":6449:6458   */\n      dup12\n        /* \"#utility.yul\":6445:6467   */\n      add\n        /* \"#utility.yul\":6412:6477   */\n      tag_116\n      jump\t// in\n    tag_218:\n        /* \"#utility.yul\":6394:6477   */\n      swap5\n      pop\n      swap5\n      pop\n        /* \"#utility.yul\":6189:6487   */\n      pop\n        /* \"#utility.yul\":6554:6556   */\n      0x60\n        /* \"#utility.yul\":6543:6552   */\n      dup9\n        /* \"#utility.yul\":6539:6557   */\n      add\n        /* \"#utility.yul\":6526:6558   */\n      calldataload\n        /* \"#utility.yul\":6585:6603   */\n      0xffffffffffffffff\n        /* \"#utility.yul\":6577:6583   */\n      dup2\n        /* \"#utility.yul\":6574:6604   */\n      gt\n        /* \"#utility.yul\":6571:6688   */\n      iszero\n      tag_219\n      jumpi\n        /* \"#utility.yul\":6607:6686   */\n      tag_220\n      tag_98\n      jump\t// in\n    tag_220:\n        /* \"#utility.yul\":6571:6688   */\n    tag_219:\n        /* \"#utility.yul\":6720:6785   */\n      tag_221\n        /* \"#utility.yul\":6777:6784   */\n      dup11\n        /* \"#utility.yul\":6768:6774   */\n      dup3\n        /* \"#utility.yul\":6757:6766   */\n      dup12\n        /* \"#utility.yul\":6753:6775   */\n      add\n        /* \"#utility.yul\":6720:6785   */\n      tag_116\n      jump\t// in\n    tag_221:\n        /* \"#utility.yul\":6702:6785   */\n      swap3\n      pop\n      swap3\n      pop\n        /* \"#utility.yul\":6497:6795   */\n      pop\n        /* \"#utility.yul\":5437:6802   */\n      swap3\n      swap6\n      swap9\n      swap2\n      swap5\n      swap8\n      pop\n      swap3\n      swap6\n      pop\n      jump\t// out\n        /* \"#utility.yul\":6808:7282   */\n    tag_27:\n        /* \"#utility.yul\":6876:6882   */\n      0x00\n        /* \"#utility.yul\":6884:6890   */\n      0x00\n        /* \"#utility.yul\":6933:6935   */\n      0x40\n        /* \"#utility.yul\":6921:6930   */\n      dup4\n        /* \"#utility.yul\":6912:6919   */\n      dup6\n        /* \"#utility.yul\":6908:6931   */\n      sub\n        /* \"#utility.yul\":6904:6936   */\n      slt\n        /* \"#utility.yul\":6901:7020   */\n      iszero\n      tag_223\n      jumpi\n        /* \"#utility.yul\":6939:7018   */\n      tag_224\n      tag_97\n      jump\t// in\n    tag_224:\n        /* \"#utility.yul\":6901:7020   */\n    tag_223:\n        /* \"#utility.yul\":7059:7060   */\n      0x00\n        /* \"#utility.yul\":7084:7137   */\n      tag_225\n        /* \"#utility.yul\":7129:7136   */\n      dup6\n        /* \"#utility.yul\":7120:7126   */\n      dup3\n        /* \"#utility.yul\":7109:7118   */\n      dup7\n        /* \"#utility.yul\":7105:7127   */\n      add\n        /* \"#utility.yul\":7084:7137   */\n      tag_110\n      jump\t// in\n    tag_225:\n        /* \"#utility.yul\":7074:7137   */\n      swap3\n      pop\n        /* \"#utility.yul\":7030:7147   */\n      pop\n        /* \"#utility.yul\":7186:7188   */\n      0x20\n        /* \"#utility.yul\":7212:7265   */\n      tag_226\n        /* \"#utility.yul\":7257:7264   */\n      dup6\n        /* \"#utility.yul\":7248:7254   */\n      dup3\n        /* \"#utility.yul\":7237:7246   */\n      dup7\n        /* \"#utility.yul\":7233:7255   */\n      add\n        /* \"#utility.yul\":7212:7265   */\n      tag_102\n      jump\t// in\n    tag_226:\n        /* \"#utility.yul\":7202:7265   */\n      swap2\n      pop\n        /* \"#utility.yul\":7157:7275   */\n      pop\n        /* \"#utility.yul\":6808:7282   */\n      swap3\n      pop\n      swap3\n      swap1\n      pop\n      jump\t// out\n        /* \"#utility.yul\":7288:7405   */\n    tag_117:\n        /* \"#utility.yul\":7397:7398   */\n      0x00\n        /* \"#utility.yul\":7394:7395   */\n      0x00\n        /* \"#utility.yul\":7387:7399   */\n      revert\n        /* \"#utility.yul\":7411:7591   */\n    tag_118:\n        /* \"#utility.yul\":7459:7536   */\n      0x4e487b7100000000000000000000000000000000000000000000000000000000\n        /* \"#utility.yul\":7456:7457   */\n      0x00\n        /* \"#utility.yul\":7449:7537   */\n      mstore\n        /* \"#utility.yul\":7556:7560   */\n      0x41\n        /* \"#utility.yul\":7553:7554   */\n      0x04\n        /* \"#utility.yul\":7546:7561   */\n      mstore\n        /* \"#utility.yul\":7580:7584   */\n      0x24\n        /* \"#utility.yul\":7577:7578   */\n      0x00\n        /* \"#utility.yul\":7570:7585   */\n      revert\n        /* \"#utility.yul\":7597:7878   */\n    tag_119:\n        /* \"#utility.yul\":7680:7707   */\n      tag_230\n        /* \"#utility.yul\":7702:7706   */\n      dup3\n        /* \"#utility.yul\":7680:7707   */\n      tag_106\n      jump\t// in\n    tag_230:\n        /* \"#utility.yul\":7672:7678   */\n      dup2\n        /* \"#utility.yul\":7668:7708   */\n      add\n        /* \"#utility.yul\":7810:7816   */\n      dup2\n        /* \"#utility.yul\":7798:7808   */\n      dup2\n        /* \"#utility.yul\":7795:7817   */\n      lt\n        /* \"#utility.yul\":7774:7792   */\n      0xffffffffffffffff\n        /* \"#utility.yul\":7762:7772   */\n      dup3\n        /* \"#utility.yul\":7759:7793   */\n      gt\n        /* \"#utility.yul\":7756:7818   */\n      or\n        /* \"#utility.yul\":7753:7841   */\n      iszero\n      tag_231\n      jumpi\n        /* \"#utility.yul\":7821:7839   */\n      tag_232\n      tag_118\n      jump\t// in\n    tag_232:\n        /* \"#utility.yul\":7753:7841   */\n    tag_231:\n        /* \"#utility.yul\":7861:7871   */\n      dup1\n        /* \"#utility.yul\":7857:7859   */\n      0x40\n        /* \"#utility.yul\":7850:7872   */\n      mstore\n        /* \"#utility.yul\":7640:7878   */\n      pop\n        /* \"#utility.yul\":7597:7878   */\n      pop\n      pop\n      jump\t// out\n        /* \"#utility.yul\":7884:8013   */\n    tag_120:\n        /* \"#utility.yul\":7918:7924   */\n      0x00\n        /* \"#utility.yul\":7945:7965   */\n      tag_234\n      tag_96\n      jump\t// in\n    tag_234:\n        /* \"#utility.yul\":7935:7965   */\n      swap1\n      pop\n        /* \"#utility.yul\":7974:8007   */\n      tag_235\n        /* \"#utility.yul\":8002:8006   */\n      dup3\n        /* \"#utility.yul\":7994:8000   */\n      dup3\n        /* \"#utility.yul\":7974:8007   */\n      tag_119\n      jump\t// in\n    tag_235:\n        /* \"#utility.yul\":7884:8013   */\n      swap2\n      swap1\n      pop\n      jump\t// out\n        /* \"#utility.yul\":8019:8327   */\n    tag_121:\n        /* \"#utility.yul\":8081:8085   */\n      0x00\n        /* \"#utility.yul\":8171:8189   */\n      0xffffffffffffffff\n        /* \"#utility.yul\":8163:8169   */\n      dup3\n        /* \"#utility.yul\":8160:8190   */\n      gt\n        /* \"#utility.yul\":8157:8213   */\n      iszero\n      tag_237\n      jumpi\n        /* \"#utility.yul\":8193:8211   */\n      tag_238\n      tag_118\n      jump\t// in\n    tag_238:\n        /* \"#utility.yul\":8157:8213   */\n    tag_237:\n        /* \"#utility.yul\":8231:8260   */\n      tag_239\n        /* \"#utility.yul\":8253:8259   */\n      dup3\n        /* \"#utility.yul\":8231:8260   */\n      tag_106\n      jump\t// in\n    tag_239:\n        /* \"#utility.yul\":8223:8260   */\n      swap1\n      pop\n        /* \"#utility.yul\":8315:8319   */\n      0x20\n        /* \"#utility.yul\":8309:8313   */\n      dup2\n        /* \"#utility.yul\":8305:8320   */\n      add\n        /* \"#utility.yul\":8297:8320   */\n      swap1\n      pop\n        /* \"#utility.yul\":8019:8327   */\n      swap2\n      swap1\n      pop\n      jump\t// out\n        /* \"#utility.yul\":8333:8481   */\n    tag_122:\n        /* \"#utility.yul\":8431:8437   */\n      dup3\n        /* \"#utility.yul\":8426:8429   */\n      dup2\n        /* \"#utility.yul\":8421:8424   */\n      dup4\n        /* \"#utility.yul\":8408:8438   */\n      calldatacopy\n        /* \"#utility.yul\":8472:8473   */\n      0x00\n        /* \"#utility.yul\":8463:8469   */\n      dup4\n        /* \"#utility.yul\":8458:8461   */\n      dup4\n        /* \"#utility.yul\":8454:8470   */\n      add\n        /* \"#utility.yul\":8447:8474   */\n      mstore\n        /* \"#utility.yul\":8333:8481   */\n      pop\n      pop\n      pop\n      jump\t// out\n        /* \"#utility.yul\":8487:8912   */\n    tag_123:\n        /* \"#utility.yul\":8565:8570   */\n      0x00\n        /* \"#utility.yul\":8590:8656   */\n      tag_242\n        /* \"#utility.yul\":8606:8655   */\n      tag_243\n        /* \"#utility.yul\":8648:8654   */\n      dup5\n        /* \"#utility.yul\":8606:8655   */\n      tag_121\n      jump\t// in\n    tag_243:\n        /* \"#utility.yul\":8590:8656   */\n      tag_120\n      jump\t// in\n    tag_242:\n        /* \"#utility.yul\":8581:8656   */\n      swap1\n      pop\n        /* \"#utility.yul\":8679:8685   */\n      dup3\n        /* \"#utility.yul\":8672:8677   */\n      dup2\n        /* \"#utility.yul\":8665:8686   */\n      mstore\n        /* \"#utility.yul\":8717:8721   */\n      0x20\n        /* \"#utility.yul\":8710:8715   */\n      dup2\n        /* \"#utility.yul\":8706:8722   */\n      add\n        /* \"#utility.yul\":8755:8758   */\n      dup5\n        /* \"#utility.yul\":8746:8752   */\n      dup5\n        /* \"#utility.yul\":8741:8744   */\n      dup5\n        /* \"#utility.yul\":8737:8753   */\n      add\n        /* \"#utility.yul\":8734:8759   */\n      gt\n        /* \"#utility.yul\":8731:8843   */\n      iszero\n      tag_244\n      jumpi\n        /* \"#utility.yul\":8762:8841   */\n      tag_245\n      tag_117\n      jump\t// in\n    tag_245:\n        /* \"#utility.yul\":8731:8843   */\n    tag_244:\n        /* \"#utility.yul\":8852:8906   */\n      tag_246\n        /* \"#utility.yul\":8899:8905   */\n      dup5\n        /* \"#utility.yul\":8894:8897   */\n      dup3\n        /* \"#utility.yul\":8889:8892   */\n      dup6\n        /* \"#utility.yul\":8852:8906   */\n      tag_122\n      jump\t// in\n    tag_246:\n        /* \"#utility.yul\":8571:8912   */\n      pop\n        /* \"#utility.yul\":8487:8912   */\n      swap4\n      swap3\n      pop\n      pop\n      pop\n      jump\t// out\n        /* \"#utility.yul\":8932:9272   */\n    tag_124:\n        /* \"#utility.yul\":8988:8993   */\n      0x00\n        /* \"#utility.yul\":9037:9040   */\n      dup3\n        /* \"#utility.yul\":9030:9034   */\n      0x1f\n        /* \"#utility.yul\":9022:9028   */\n      dup4\n        /* \"#utility.yul\":9018:9035   */\n      add\n        /* \"#utility.yul\":9014:9041   */\n      slt\n        /* \"#utility.yul\":9004:9126   */\n      tag_248\n      jumpi\n        /* \"#utility.yul\":9045:9124   */\n      tag_249\n      tag_113\n      jump\t// in\n    tag_249:\n        /* \"#utility.yul\":9004:9126   */\n    tag_248:\n        /* \"#utility.yul\":9162:9168   */\n      dup2\n        /* \"#utility.yul\":9149:9169   */\n      calldataload\n        /* \"#utility.yul\":9187:9266   */\n      tag_250\n        /* \"#utility.yul\":9262:9265   */\n      dup5\n        /* \"#utility.yul\":9254:9260   */\n      dup3\n        /* \"#utility.yul\":9247:9251   */\n      0x20\n        /* \"#utility.yul\":9239:9245   */\n      dup7\n        /* \"#utility.yul\":9235:9252   */\n      add\n        /* \"#utility.yul\":9187:9266   */\n      tag_123\n      jump\t// in\n    tag_250:\n        /* \"#utility.yul\":9178:9266   */\n      swap2\n      pop\n        /* \"#utility.yul\":8994:9272   */\n      pop\n        /* \"#utility.yul\":8932:9272   */\n      swap3\n      swap2\n      pop\n      pop\n      jump\t// out\n        /* \"#utility.yul\":9278:9932   */\n    tag_31:\n        /* \"#utility.yul\":9356:9362   */\n      0x00\n        /* \"#utility.yul\":9364:9370   */\n      0x00\n        /* \"#utility.yul\":9413:9415   */\n      0x40\n        /* \"#utility.yul\":9401:9410   */\n      dup4\n        /* \"#utility.yul\":9392:9399   */\n      dup6\n        /* \"#utility.yul\":9388:9411   */\n      sub\n        /* \"#utility.yul\":9384:9416   */\n      slt\n        /* \"#utility.yul\":9381:9500   */\n      iszero\n      tag_252\n      jumpi\n        /* \"#utility.yul\":9419:9498   */\n      tag_253\n      tag_97\n      jump\t// in\n    tag_253:\n        /* \"#utility.yul\":9381:9500   */\n    tag_252:\n        /* \"#utility.yul\":9539:9540   */\n      0x00\n        /* \"#utility.yul\":9564:9617   */\n      tag_254\n        /* \"#utility.yul\":9609:9616   */\n      dup6\n        /* \"#utility.yul\":9600:9606   */\n      dup3\n        /* \"#utility.yul\":9589:9598   */\n      dup7\n        /* \"#utility.yul\":9585:9607   */\n      add\n        /* \"#utility.yul\":9564:9617   */\n      tag_102\n      jump\t// in\n    tag_254:\n        /* \"#utility.yul\":9554:9617   */\n      swap3\n      pop\n        /* \"#utility.yul\":9510:9627   */\n      pop\n        /* \"#utility.yul\":9694:9696   */\n      0x20\n        /* \"#utility.yul\":9683:9692   */\n      dup4\n        /* \"#utility.yul\":9679:9697   */\n      add\n        /* \"#utility.yul\":9666:9698   */\n      calldataload\n        /* \"#utility.yul\":9725:9743   */\n      0xffffffffffffffff\n        /* \"#utility.yul\":9717:9723   */\n      dup2\n        /* \"#utility.yul\":9714:9744   */\n      gt\n        /* \"#utility.yul\":9711:9828   */\n      iszero\n      tag_255\n      jumpi\n        /* \"#utility.yul\":9747:9826   */\n      tag_256\n      tag_98\n      jump\t// in\n    tag_256:\n        /* \"#utility.yul\":9711:9828   */\n    tag_255:\n        /* \"#utility.yul\":9852:9915   */\n      tag_257\n        /* \"#utility.yul\":9907:9914   */\n      dup6\n        /* \"#utility.yul\":9898:9904   */\n      dup3\n        /* \"#utility.yul\":9887:9896   */\n      dup7\n        /* \"#utility.yul\":9883:9905   */\n      add\n        /* \"#utility.yul\":9852:9915   */\n      tag_124\n      jump\t// in\n    tag_257:\n        /* \"#utility.yul\":9842:9915   */\n      swap2\n      pop\n        /* \"#utility.yul\":9637:9925   */\n      pop\n        /* \"#utility.yul\":9278:9932   */\n      swap3\n      pop\n      swap3\n      swap1\n      pop\n      jump\t// out\n        /* \"#utility.yul\":9938:10612   */\n    tag_35:\n        /* \"#utility.yul\":10018:10024   */\n      0x00\n        /* \"#utility.yul\":10026:10032   */\n      0x00\n        /* \"#utility.yul\":10034:10040   */\n      0x00\n        /* \"#utility.yul\":10083:10085   */\n      0x40\n        /* \"#utility.yul\":10071:10080   */\n      dup5\n        /* \"#utility.yul\":10062:10069   */\n      dup7\n        /* \"#utility.yul\":10058:10081   */\n      sub\n        /* \"#utility.yul\":10054:10086   */\n      slt\n        /* \"#utility.yul\":10051:10170   */\n      iszero\n      tag_259\n      jumpi\n        /* \"#utility.yul\":10089:10168   */\n      tag_260\n      tag_97\n      jump\t// in\n    tag_260:\n        /* \"#utility.yul\":10051:10170   */\n    tag_259:\n        /* \"#utility.yul\":10209:10210   */\n      0x00\n        /* \"#utility.yul\":10234:10287   */\n      tag_261\n        /* \"#utility.yul\":10279:10286   */\n      dup7\n        /* \"#utility.yul\":10270:10276   */\n      dup3\n        /* \"#utility.yul\":10259:10268   */\n      dup8\n        /* \"#utility.yul\":10255:10277   */\n      add\n        /* \"#utility.yul\":10234:10287   */\n      tag_110\n      jump\t// in\n    tag_261:\n        /* \"#utility.yul\":10224:10287   */\n      swap4\n      pop\n        /* \"#utility.yul\":10180:10297   */\n      pop\n        /* \"#utility.yul\":10364:10366   */\n      0x20\n        /* \"#utility.yul\":10353:10362   */\n      dup5\n        /* \"#utility.yul\":10349:10367   */\n      add\n        /* \"#utility.yul\":10336:10368   */\n      calldataload\n        /* \"#utility.yul\":10395:10413   */\n      0xffffffffffffffff\n        /* \"#utility.yul\":10387:10393   */\n      dup2\n        /* \"#utility.yul\":10384:10414   */\n      gt\n        /* \"#utility.yul\":10381:10498   */\n      iszero\n      tag_262\n      jumpi\n        /* \"#utility.yul\":10417:10496   */\n      tag_263\n      tag_98\n      jump\t// in\n    tag_263:\n        /* \"#utility.yul\":10381:10498   */\n    tag_262:\n        /* \"#utility.yul\":10530:10595   */\n      tag_264\n        /* \"#utility.yul\":10587:10594   */\n      dup7\n        /* \"#utility.yul\":10578:10584   */\n      dup3\n        /* \"#utility.yul\":10567:10576   */\n      dup8\n        /* \"#utility.yul\":10563:10585   */\n      add\n        /* \"#utility.yul\":10530:10595   */\n      tag_116\n      jump\t// in\n    tag_264:\n        /* \"#utility.yul\":10512:10595   */\n      swap3\n      pop\n      swap3\n      pop\n        /* \"#utility.yul\":10307:10605   */\n      pop\n        /* \"#utility.yul\":9938:10612   */\n      swap3\n      pop\n      swap3\n      pop\n      swap3\n      jump\t// out\n        /* \"#utility.yul\":10618:10798   */\n    tag_125:\n        /* \"#utility.yul\":10666:10743   */\n      0x4e487b7100000000000000000000000000000000000000000000000000000000\n        /* \"#utility.yul\":10663:10664   */\n      0x00\n        /* \"#utility.yul\":10656:10744   */\n      mstore\n        /* \"#utility.yul\":10763:10767   */\n      0x22\n        /* \"#utility.yul\":10760:10761   */\n      0x04\n        /* \"#utility.yul\":10753:10768   */\n      mstore\n        /* \"#utility.yul\":10787:10791   */\n      0x24\n        /* \"#utility.yul\":10784:10785   */\n      0x00\n        /* \"#utility.yul\":10777:10792   */\n      revert\n        /* \"#utility.yul\":10804:11124   */\n    tag_38:\n        /* \"#utility.yul\":10848:10854   */\n      0x00\n        /* \"#utility.yul\":10885:10886   */\n      0x02\n        /* \"#utility.yul\":10879:10883   */\n      dup3\n        /* \"#utility.yul\":10875:10887   */\n      div\n        /* \"#utility.yul\":10865:10887   */\n      swap1\n      pop\n        /* \"#utility.yul\":10932:10933   */\n      0x01\n        /* \"#utility.yul\":10926:10930   */\n      dup3\n        /* \"#utility.yul\":10922:10934   */\n      and\n        /* \"#utility.yul\":10953:10971   */\n      dup1\n        /* \"#utility.yul\":10943:11024   */\n      tag_267\n      jumpi\n        /* \"#utility.yul\":11009:11013   */\n      0x7f\n        /* \"#utility.yul\":11001:11007   */\n      dup3\n        /* \"#utility.yul\":10997:11014   */\n      and\n        /* \"#utility.yul\":10987:11014   */\n      swap2\n      pop\n        /* \"#utility.yul\":10943:11024   */\n    tag_267:\n        /* \"#utility.yul\":11071:11073   */\n      0x20\n        /* \"#utility.yul\":11063:11069   */\n      dup3\n        /* \"#utility.yul\":11060:11074   */\n      lt\n        /* \"#utility.yul\":11040:11058   */\n      dup2\n        /* \"#utility.yul\":11037:11075   */\n      sub\n        /* \"#utility.yul\":11034:11118   */\n      tag_268\n      jumpi\n        /* \"#utility.yul\":11090:11108   */\n      tag_269\n      tag_125\n      jump\t// in\n    tag_269:\n        /* \"#utility.yul\":11034:11118   */\n    tag_268:\n        /* \"#utility.yul\":10855:11124   */\n      pop\n        /* \"#utility.yul\":10804:11124   */\n      swap2\n      swap1\n      pop\n      jump\t// out\n        /* \"#utility.yul\":11130:11302   */\n    tag_126:\n        /* \"#utility.yul\":11270:11294   */\n      0x50726f6475637420646f6573206e6f7420657869737400000000000000000000\n        /* \"#utility.yul\":11266:11267   */\n      0x00\n        /* \"#utility.yul\":11258:11264   */\n      dup3\n        /* \"#utility.yul\":11254:11268   */\n      add\n        /* \"#utility.yul\":11247:11295   */\n      mstore\n        /* \"#utility.yul\":11130:11302   */\n      pop\n      jump\t// out\n        /* \"#utility.yul\":11308:11674   */\n    tag_127:\n        /* \"#utility.yul\":11450:11453   */\n      0x00\n        /* \"#utility.yul\":11471:11538   */\n      tag_272\n        /* \"#utility.yul\":11535:11537   */\n      0x16\n        /* \"#utility.yul\":11530:11533   */\n      dup4\n        /* \"#utility.yul\":11471:11538   */\n      tag_104\n      jump\t// in\n    tag_272:\n        /* \"#utility.yul\":11464:11538   */\n      swap2\n      pop\n        /* \"#utility.yul\":11547:11640   */\n      tag_273\n        /* \"#utility.yul\":11636:11639   */\n      dup3\n        /* \"#utility.yul\":11547:11640   */\n      tag_126\n      jump\t// in\n    tag_273:\n        /* \"#utility.yul\":11665:11667   */\n      0x20\n        /* \"#utility.yul\":11660:11663   */\n      dup3\n        /* \"#utility.yul\":11656:11668   */\n      add\n        /* \"#utility.yul\":11649:11668   */\n      swap1\n      pop\n        /* \"#utility.yul\":11308:11674   */\n      swap2\n      swap1\n      pop\n      jump\t// out\n        /* \"#utility.yul\":11680:12099   */\n    tag_46:\n        /* \"#utility.yul\":11846:11850   */\n      0x00\n        /* \"#utility.yul\":11884:11886   */\n      0x20\n        /* \"#utility.yul\":11873:11882   */\n      dup3\n        /* \"#utility.yul\":11869:11887   */\n      add\n        /* \"#utility.yul\":11861:11887   */\n      swap1\n      pop\n        /* \"#utility.yul\":11933:11942   */\n      dup2\n        /* \"#utility.yul\":11927:11931   */\n      dup2\n        /* \"#utility.yul\":11923:11943   */\n      sub\n        /* \"#utility.yul\":11919:11920   */\n      0x00\n        /* \"#utility.yul\":11908:11917   */\n      dup4\n        /* \"#utility.yul\":11904:11921   */\n      add\n        /* \"#utility.yul\":11897:11944   */\n      mstore\n        /* \"#utility.yul\":11961:12092   */\n      tag_275\n        /* \"#utility.yul\":12087:12091   */\n      dup2\n        /* \"#utility.yul\":11961:12092   */\n      tag_127\n      jump\t// in\n    tag_275:\n        /* \"#utility.yul\":11953:12092   */\n      swap1\n      pop\n        /* \"#utility.yul\":11680:12099   */\n      swap2\n      swap1\n      pop\n      jump\t// out\n        /* \"#utility.yul\":12105:12277   */\n    tag_128:\n        /* \"#utility.yul\":12245:12269   */\n      0x50726f6475637420616c72656164792065786973747300000000000000000000\n        /* \"#utility.yul\":12241:12242   */\n      0x00\n        /* \"#utility.yul\":12233:12239   */\n      dup3\n        /* \"#utility.yul\":12229:12243   */\n      add\n        /* \"#utility.yul\":12222:12270   */\n      mstore\n        /* \"#utility.yul\":12105:12277   */\n      pop\n      jump\t// out\n        /* \"#utility.yul\":12283:12649   */\n    tag_129:\n        /* \"#utility.yul\":12425:12428   */\n      0x00\n        /* \"#utility.yul\":12446:12513   */\n      tag_278\n        /* \"#utility.yul\":12510:12512   */\n      0x16\n        /* \"#utility.yul\":12505:12508   */\n      dup4\n        /* \"#utility.yul\":12446:12513   */\n      tag_104\n      jump\t// in\n    tag_278:\n        /* \"#utility.yul\":12439:12513   */\n      swap2\n      pop\n        /* \"#utility.yul\":12522:12615   */\n      tag_279\n        /* \"#utility.yul\":12611:12614   */\n      dup3\n        /* \"#utility.yul\":12522:12615   */\n      tag_128\n      jump\t// in\n    tag_279:\n        /* \"#utility.yul\":12640:12642   */\n      0x20\n        /* \"#utility.yul\":12635:12638   */\n      dup3\n        /* \"#utility.yul\":12631:12643   */\n      add\n        /* \"#utility.yul\":12624:12643   */\n      swap1\n      pop\n        /* \"#utility.yul\":12283:12649   */\n      swap2\n      swap1\n      pop\n      jump\t// out\n        /* \"#utility.yul\":12655:13074   */\n    tag_70:\n        /* \"#utility.yul\":12821:12825   */\n      0x00\n        /* \"#utility.yul\":12859:12861   */\n      0x20\n        /* \"#utility.yul\":12848:12857   */\n      dup3\n        /* \"#utility.yul\":12844:12862   */\n      add\n        /* \"#utility.yul\":12836:12862   */\n      swap1\n      pop\n        /* \"#utility.yul\":12908:12917   */\n      dup2\n        /* \"#utility.yul\":12902:12906   */\n      dup2\n        /* \"#utility.yul\":12898:12918   */\n      sub\n        /* \"#utility.yul\":12894:12895   */\n      0x00\n        /* \"#utility.yul\":12883:12892   */\n      dup4\n        /* \"#utility.yul\":12879:12896   */\n      add\n        /* \"#utility.yul\":12872:12919   */\n      mstore\n        /* \"#utility.yul\":12936:13067   */\n      tag_281\n        /* \"#utility.yul\":13062:13066   */\n      dup2\n        /* \"#utility.yul\":12936:13067   */\n      tag_129\n      jump\t// in\n    tag_281:\n        /* \"#utility.yul\":12928:13067   */\n      swap1\n      pop\n        /* \"#utility.yul\":12655:13074   */\n      swap2\n      swap1\n      pop\n      jump\t// out\n        /* \"#utility.yul\":13080:13221   */\n    tag_130:\n        /* \"#utility.yul\":13129:13133   */\n      0x00\n        /* \"#utility.yul\":13152:13155   */\n      dup2\n        /* \"#utility.yul\":13144:13155   */\n      swap1\n      pop\n        /* \"#utility.yul\":13175:13178   */\n      dup2\n        /* \"#utility.yul\":13172:13173   */\n      0x00\n        /* \"#utility.yul\":13165:13179   */\n      mstore\n        /* \"#utility.yul\":13209:13213   */\n      0x20\n        /* \"#utility.yul\":13206:13207   */\n      0x00\n        /* \"#utility.yul\":13196:13214   */\n      keccak256\n        /* \"#utility.yul\":13188:13214   */\n      swap1\n      pop\n        /* \"#utility.yul\":13080:13221   */\n      swap2\n      swap1\n      pop\n      jump\t// out\n        /* \"#utility.yul\":13227:13320   */\n    tag_131:\n        /* \"#utility.yul\":13264:13270   */\n      0x00\n        /* \"#utility.yul\":13311:13313   */\n      0x20\n        /* \"#utility.yul\":13306:13308   */\n      0x1f\n        /* \"#utility.yul\":13299:13304   */\n      dup4\n        /* \"#utility.yul\":13295:13309   */\n      add\n        /* \"#utility.yul\":13291:13314   */\n      div\n        /* \"#utility.yul\":13281:13314   */\n      swap1\n      pop\n        /* \"#utility.yul\":13227:13320   */\n      swap2\n      swap1\n      pop\n      jump\t// out\n        /* \"#utility.yul\":13326:13433   */\n    tag_132:\n        /* \"#utility.yul\":13370:13378   */\n      0x00\n        /* \"#utility.yul\":13420:13425   */\n      dup3\n        /* \"#utility.yul\":13414:13418   */\n      dup3\n        /* \"#utility.yul\":13410:13426   */\n      shl\n        /* \"#utility.yul\":13389:13426   */\n      swap1\n      pop\n        /* \"#utility.yul\":13326:13433   */\n      swap3\n      swap2\n      pop\n      pop\n      jump\t// out\n        /* \"#utility.yul\":13439:13832   */\n    tag_133:\n        /* \"#utility.yul\":13508:13514   */\n      0x00\n        /* \"#utility.yul\":13558:13559   */\n      0x08\n        /* \"#utility.yul\":13546:13556   */\n      dup4\n        /* \"#utility.yul\":13542:13560   */\n      mul\n        /* \"#utility.yul\":13581:13678   */\n      tag_286\n        /* \"#utility.yul\":13611:13677   */\n      0xffffffffffffffffffffffffffffffffffffffffffffffffffffffffffffffff\n        /* \"#utility.yul\":13600:13609   */\n      dup3\n        /* \"#utility.yul\":13581:13678   */\n      tag_132\n      jump\t// in\n    tag_286:\n        /* \"#utility.yul\":13699:13738   */\n      tag_287\n        /* \"#utility.yul\":13729:13737   */\n      dup7\n        /* \"#utility.yul\":13718:13727   */\n      dup4\n        /* \"#utility.yul\":13699:13738   */\n      tag_132\n      jump\t// in\n    tag_287:\n        /* \"#utility.yul\":13687:13738   */\n      swap6\n      pop\n        /* \"#utility.yul\":13771:13775   */\n      dup1\n        /* \"#utility.yul\":13767:13776   */\n      not\n        /* \"#utility.yul\":13760:13765   */\n      dup5\n        /* \"#utility.yul\":13756:13777   */\n      and\n        /* \"#utility.yul\":13747:13777   */\n      swap4\n      pop\n        /* \"#utility.yul\":13820:13824   */\n      dup1\n        /* \"#utility.yul\":13810:13818   */\n      dup7\n        /* \"#utility.yul\":13806:13825   */\n      and\n        /* \"#utility.yul\":13799:13804   */\n      dup5\n        /* \"#utility.yul\":13796:13826   */\n      or\n        /* \"#utility.yul\":13786:13826   */\n      swap3\n      pop\n        /* \"#utility.yul\":13515:13832   */\n      pop\n      pop\n        /* \"#utility.yul\":13439:13832   */\n      swap4\n      swap3\n      pop\n      pop\n      pop\n      jump\t// out\n        /* \"#utility.yul\":13838:13898   */\n    tag_134:\n        /* \"#utility.yul\":13866:13869   */\n      0x00\n        /* \"#utility.yul\":13887:13892   */\n      dup2\n        /* \"#utility.yul\":13880:13892   */\n      swap1\n      pop\n        /* \"#utility.yul\":13838:13898   */\n      swap2\n      swap1\n      pop\n      jump\t// out\n        /* \"#utility.yul\":13904:14046   */\n    tag_135:\n        /* \"#utility.yul\":13954:13963   */\n      0x00\n        /* \"#utility.yul\":13987:14040   */\n      tag_290\n        /* \"#utility.yul\":14005:14039   */\n      tag_291\n        /* \"#utility.yul\":14014:14038   */\n      tag_292\n        /* \"#utility.yul\":14032:14037   */\n      dup5\n        /* \"#utility.yul\":14014:14038   */\n      tag_108\n      jump\t// in\n    tag_292:\n        /* \"#utility.yul\":14005:14039   */\n      tag_134\n      jump\t// in\n    tag_291:\n        /* \"#utility.yul\":13987:14040   */\n      tag_108\n      jump\t// in\n    tag_290:\n        /* \"#utility.yul\":13974:14040   */\n      swap1\n      pop\n        /* \"#utility.yul\":13904:14046   */\n      swap2\n      swap1\n      pop\n      jump\t// out\n        /* \"#utility.yul\":14052:14127   */\n    tag_136:\n        /* \"#utility.yul\":14095:14098   */\n      0x00\n        /* \"#utility.yul\":14116:14121   */\n      dup2\n        /* \"#utility.yul\":14109:14121   */\n      swap1\n      pop\n        /* \"#utility.yul\":14052:14127   */\n      swap2\n      swap1\n      pop\n      jump\t// out\n        /* \"#utility.yul\":14133:14402   */\n    tag_137:\n        /* \"#utility.yul\":14243:14282   */\n      tag_295\n        /* \"#utility.yul\":14274:14281   */\n      dup4\n        /* \"#utility.yul\":14243:14282   */\n      tag_135\n      jump\t// in\n    tag_295:\n        /* \"#utility.yul\":14304:14395   */\n      tag_296\n        /* \"#utility.yul\":14353:14394   */\n      tag_297\n        /* \"#utility.yul\":14377:14393   */\n      dup3\n        /* \"#utility.yul\":14353:14394   */\n      tag_136\n      jump\t// in\n    tag_297:\n        /* \"#utility.yul\":14345:14351   */\n      dup5\n        /* \"#utility.yul\":14338:14342   */\n      dup5\n        /* \"#utility.yul\":14332:14343   */\n      sload\n        /* \"#utility.yul\":14304:14395   */\n      tag_133\n      jump\t// in\n    tag_296:\n        /* \"#utility.yul\":14298:14302   */\n      dup3\n        /* \"#utility.yul\":14291:14396   */\n      sstore\n        /* \"#utility.yul\":14209:14402   */\n      pop\n        /* \"#utility.yul\":14133:14402   */\n      pop\n      pop\n      pop\n      jump\t// out\n        /* \"#utility.yul\":14408:14481   */\n    tag_138:\n        /* \"#utility.yul\":14453:14456   */\n      0x00\n        /* \"#utility.yul\":14474:14475   */\n      0x00\n        /* \"#utility.yul\":14467:14475   */\n      swap1\n      pop\n        /* \"#utility.yul\":14408:14481   */\n      swap1\n      jump\t// out\n        /* \"#utility.yul\":14487:14676   */\n    tag_139:\n        /* \"#utility.yul\":14564:14596   */\n      tag_300\n      tag_138\n      jump\t// in\n    tag_300:\n        /* \"#utility.yul\":14605:14670   */\n      tag_301\n        /* \"#utility.yul\":14663:14669   */\n      dup2\n        /* \"#utility.yul\":14655:14661   */\n      dup5\n        /* \"#utility.yul\":14649:14653   */\n      dup5\n        /* \"#utility.yul\":14605:14670   */\n      tag_137\n      jump\t// in\n    tag_301:\n        /* \"#utility.yul\":14540:14676   */\n      pop\n        /* \"#utility.yul\":14487:14676   */\n      pop\n      pop\n      jump\t// out\n        /* \"#utility.yul\":14682:14868   */\n    tag_140:\n        /* \"#utility.yul\":14742:14862   */\n    tag_303:\n        /* \"#utility.yul\":14759:14762   */\n      dup2\n        /* \"#utility.yul\":14752:14757   */\n      dup2\n        /* \"#utility.yul\":14749:14763   */\n      lt\n        /* \"#utility.yul\":14742:14862   */\n      iszero\n      tag_305\n      jumpi\n        /* \"#utility.yul\":14813:14852   */\n      tag_306\n        /* \"#utility.yul\":14850:14851   */\n      0x00\n        /* \"#utility.yul\":14843:14848   */\n      dup3\n        /* \"#utility.yul\":14813:14852   */\n      tag_139\n      jump\t// in\n    tag_306:\n        /* \"#utility.yul\":14786:14787   */\n      0x01\n        /* \"#utility.yul\":14779:14784   */\n      dup2\n        /* \"#utility.yul\":14775:14788   */\n      add\n        /* \"#utility.yul\":14766:14788   */\n      swap1\n      pop\n        /* \"#utility.yul\":14742:14862   */\n      jump(tag_303)\n    tag_305:\n        /* \"#utility.yul\":14682:14868   */\n      pop\n      pop\n      jump\t// out\n        /* \"#utility.yul\":14874:15417   */\n    tag_141:\n        /* \"#utility.yul\":14975:14977   */\n      0x1f\n        /* \"#utility.yul\":14970:14973   */\n      dup3\n        /* \"#utility.yul\":14967:14978   */\n      gt\n        /* \"#utility.yul\":14964:15410   */\n      iszero\n      tag_308\n      jumpi\n        /* \"#utility.yul\":15009:15047   */\n      tag_309\n        /* \"#utility.yul\":15041:15046   */\n      dup2\n        /* \"#utility.yul\":15009:15047   */\n      tag_130\n      jump\t// in\n    tag_309:\n        /* \"#utility.yul\":15093:15122   */\n      tag_310\n        /* \"#utility.yul\":15111:15121   */\n      dup5\n        /* \"#utility.yul\":15093:15122   */\n      tag_131\n      jump\t// in\n    tag_310:\n        /* \"#utility.yul\":15083:15091   */\n      dup2\n        /* \"#utility.yul\":15079:15123   */\n      add\n        /* \"#utility.yul\":15276:15278   */\n      0x20\n        /* \"#utility.yul\":15264:15274   */\n      dup6\n        /* \"#utility.yul\":15261:15279   */\n      lt\n        /* \"#utility.yul\":15258:15307   */\n      iszero\n      tag_311\n      jumpi\n        /* \"#utility.yul\":15297:15305   */\n      dup2\n        /* \"#utility.yul\":15282:15305   */\n      swap1\n      pop\n        /* \"#utility.yul\":15258:15307   */\n    tag_311:\n        /* \"#utility.yul\":15320:15400   */\n      tag_312\n        /* \"#utility.yul\":15376:15398   */\n      tag_313\n        /* \"#utility.yul\":15394:15397   */\n      dup6\n        /* \"#utility.yul\":15376:15398   */\n      tag_131\n      jump\t// in\n    tag_313:\n        /* \"#utility.yul\":15366:15374   */\n      dup4\n        /* \"#utility.yul\":15362:15399   */\n      add\n        /* \"#utility.yul\":15349:15360   */\n      dup3\n        /* \"#utility.yul\":15320:15400   */\n      tag_140\n      jump\t// in\n    tag_312:\n        /* \"#utility.yul\":14979:15410   */\n      pop\n      pop\n        /* \"#utility.yul\":14964:15410   */\n    tag_308:\n        /* \"#utility.yul\":14874:15417   */\n      pop\n      pop\n      pop\n      jump\t// out\n        /* \"#utility.yul\":15423:15540   */\n    tag_142:\n        /* \"#utility.yul\":15477:15485   */\n      0x00\n        /* \"#utility.yul\":15527:15532   */\n      dup3\n        /* \"#utility.yul\":15521:15525   */\n      dup3\n        /* \"#utility.yul\":15517:15533   */\n      shr\n        /* \"#utility.yul\":15496:15533   */\n      swap1\n      pop\n        /* \"#utility.yul\":15423:15540   */\n      swap3\n      swap2\n      pop\n      pop\n      jump\t// out\n        /* \"#utility.yul\":15546:15715   */\n    tag_143:\n        /* \"#utility.yul\":15590:15596   */\n      0x00\n        /* \"#utility.yul\":15623:15674   */\n      tag_316\n        /* \"#utility.yul\":15671:15672   */\n      0x00\n        /* \"#utility.yul\":15667:15673   */\n      not\n        /* \"#utility.yul\":15659:15664   */\n      dup5\n        /* \"#utility.yul\":15656:15657   */\n      0x08\n        /* \"#utility.yul\":15652:15665   */\n      mul\n        /* \"#utility.yul\":15623:15674   */\n      tag_142\n      jump\t// in\n    tag_316:\n        /* \"#utility.yul\":15619:15675   */\n      not\n        /* \"#utility.yul\":15704:15708   */\n      dup1\n        /* \"#utility.yul\":15698:15702   */\n      dup4\n        /* \"#utility.yul\":15694:15709   */\n      and\n        /* \"#utility.yul\":15684:15709   */\n      swap2\n      pop\n        /* \"#utility.yul\":15597:15715   */\n      pop\n        /* \"#utility.yul\":15546:15715   */\n      swap3\n      swap2\n      pop\n      pop\n      jump\t// out\n        /* \"#utility.yul\":15720:16015   */\n    tag_144:\n        /* \"#utility.yul\":15796:15800   */\n      0x00\n        /* \"#utility.yul\":15942:15971   */\n      tag_318\n        /* \"#utility.yul\":15967:15970   */\n      dup4\n        /* \"#utility.yul\":15961:15965   */\n      dup4\n        /* \"#utility.yul\":15942:15971   */\n      tag_143\n      jump\t// in\n    tag_318:\n        /* \"#utility.yul\":15934:15971   */\n      swap2\n      pop\n        /* \"#utility.yul\":16004:16007   */\n      dup3\n        /* \"#utility.yul\":16001:16002   */\n      0x02\n        /* \"#utility.yul\":15997:16008   */\n      mul\n        /* \"#utility.yul\":15991:15995   */\n      dup3\n        /* \"#utility.yul\":15988:16009   */\n      or\n        /* \"#utility.yul\":15980:16009   */\n      swap1\n      pop\n        /* \"#utility.yul\":15720:16015   */\n      swap3\n      swap2\n      pop\n      pop\n      jump\t// out\n        /* \"#utility.yul\":16020:17415   */\n    tag_72:\n        /* \"#utility.yul\":16137:16174   */\n      tag_320\n        /* \"#utility.yul\":16170:16173   */\n      dup3\n        /* \"#utility.yul\":16137:16174   */\n      tag_103\n      jump\t// in\n    tag_320:\n        /* \"#utility.yul\":16239:16257   */\n      0xffffffffffffffff\n        /* \"#utility.yul\":16231:16237   */\n      dup2\n        /* \"#utility.yul\":16228:16258   */\n      gt\n        /* \"#utility.yul\":16225:16281   */\n      iszero\n      tag_321\n      jumpi\n        /* \"#utility.yul\":16261:16279   */\n      tag_322\n      tag_118\n      jump\t// in\n    tag_322:\n        /* \"#utility.yul\":16225:16281   */\n    tag_321:\n        /* \"#utility.yul\":16305:16343   */\n      tag_323\n        /* \"#utility.yul\":16337:16341   */\n      dup3\n        /* \"#utility.yul\":16331:16342   */\n      sload\n        /* \"#utility.yul\":16305:16343   */\n      tag_38\n      jump\t// in\n    tag_323:\n        /* \"#utility.yul\":16390:16457   */\n      tag_324\n        /* \"#utility.yul\":16450:16456   */\n      dup3\n        /* \"#utility.yul\":16442:16448   */\n      dup3\n        /* \"#utility.yul\":16436:16440   */\n      dup6\n        /* \"#utility.yul\":16390:16457   */\n      tag_141\n      jump\t// in\n    tag_324:\n        /* \"#utility.yul\":16484:16485   */\n      0x00\n        /* \"#utility.yul\":16508:16512   */\n      0x20\n        /* \"#utility.yul\":16495:16512   */\n      swap1\n      pop\n        /* \"#utility.yul\":16540:16542   */\n      0x1f\n        /* \"#utility.yul\":16532:16538   */\n      dup4\n        /* \"#utility.yul\":16529:16543   */\n      gt\n        /* \"#utility.yul\":16557:16558   */\n      0x01\n        /* \"#utility.yul\":16552:17170   */\n      dup2\n      eq\n      tag_326\n      jumpi\n        /* \"#utility.yul\":17214:17215   */\n      0x00\n        /* \"#utility.yul\":17231:17237   */\n      dup5\n        /* \"#utility.yul\":17228:17305   */\n      iszero\n      tag_327\n      jumpi\n        /* \"#utility.yul\":17280:17289   */\n      dup3\n        /* \"#utility.yul\":17275:17278   */\n      dup8\n        /* \"#utility.yul\":17271:17290   */\n      add\n        /* \"#utility.yul\":17265:17291   */\n      mload\n        /* \"#utility.yul\":17256:17291   */\n      swap1\n      pop\n        /* \"#utility.yul\":17228:17305   */\n    tag_327:\n        /* \"#utility.yul\":17331:17398   */\n      tag_328\n        /* \"#utility.yul\":17391:17397   */\n      dup6\n        /* \"#utility.yul\":17384:17389   */\n      dup3\n        /* \"#utility.yul\":17331:17398   */\n      tag_144\n      jump\t// in\n    tag_328:\n        /* \"#utility.yul\":17325:17329   */\n      dup7\n        /* \"#utility.yul\":17318:17399   */\n      sstore\n        /* \"#utility.yul\":17187:17409   */\n      pop\n        /* \"#utility.yul\":16522:17409   */\n      jump(tag_325)\n        /* \"#utility.yul\":16552:17170   */\n    tag_326:\n        /* \"#utility.yul\":16604:16608   */\n      0x1f\n        /* \"#utility.yul\":16600:16609   */\n      not\n        /* \"#utility.yul\":16592:16598   */\n      dup5\n        /* \"#utility.yul\":16588:16610   */\n      and\n        /* \"#utility.yul\":16638:16675   */\n      tag_329\n        /* \"#utility.yul\":16670:16674   */\n      dup7\n        /* \"#utility.yul\":16638:16675   */\n      tag_130\n      jump\t// in\n    tag_329:\n        /* \"#utility.yul\":16697:16698   */\n      0x00\n        /* \"#utility.yul\":16711:16919   */\n    tag_330:\n        /* \"#utility.yul\":16725:16732   */\n      dup3\n        /* \"#utility.yul\":16722:16723   */\n      dup2\n        /* \"#utility.yul\":16719:16733   */\n      lt\n        /* \"#utility.yul\":16711:16919   */\n      iszero\n      tag_332\n      jumpi\n        /* \"#utility.yul\":16804:16813   */\n      dup5\n        /* \"#utility.yul\":16799:16802   */\n      dup10\n        /* \"#utility.yul\":16795:16814   */\n      add\n        /* \"#utility.yul\":16789:16815   */\n      mload\n        /* \"#utility.yul\":16781:16787   */\n      dup3\n        /* \"#utility.yul\":16774:16816   */\n      sstore\n        /* \"#utility.yul\":16855:16856   */\n      0x01\n        /* \"#utility.yul\":16847:16853   */\n      dup3\n        /* \"#utility.yul\":16843:16857   */\n      add\n        /* \"#utility.yul\":16833:16857   */\n      swap2\n      pop\n        /* \"#utility.yul\":16902:16904   */\n      0x20\n        /* \"#utility.yul\":16891:16900   */\n      dup6\n        /* \"#utility.yul\":16887:16905   */\n      add\n        /* \"#utility.yul\":16874:16905   */\n      swap5\n      pop\n        /* \"#utility.yul\":16748:16752   */\n      0x20\n        /* \"#utility.yul\":16745:16746   */\n      dup2\n        /* \"#utility.yul\":16741:16753   */\n      add\n        /* \"#utility.yul\":16736:16753   */\n      swap1\n      pop\n        /* \"#utility.yul\":16711:16919   */\n      jump(tag_330)\n    tag_332:\n        /* \"#utility.yul\":16947:16953   */\n      dup7\n        /* \"#utility.yul\":16938:16945   */\n      dup4\n        /* \"#utility.yul\":16935:16954   */\n      lt\n        /* \"#utility.yul\":16932:17111   */\n      iszero\n      tag_333\n      jumpi\n        /* \"#utility.yul\":17005:17014   */\n      dup5\n        /* \"#utility.yul\":17000:17003   */\n      dup10\n        /* \"#utility.yul\":16996:17015   */\n      add\n        /* \"#utility.yul\":16990:17016   */\n      mload\n        /* \"#utility.yul\":17048:17096   */\n      tag_334\n        /* \"#utility.yul\":17090:17094   */\n      0x1f\n        /* \"#utility.yul\":17082:17088   */\n      dup10\n        /* \"#utility.yul\":17078:17095   */\n      and\n        /* \"#utility.yul\":17067:17076   */\n      dup3\n        /* \"#utility.yul\":17048:17096   */\n      tag_143\n      jump\t// in\n    tag_334:\n        /* \"#utility.yul\":17040:17046   */\n      dup4\n        /* \"#utility.yul\":17033:17097   */\n      sstore\n        /* \"#utility.yul\":16955:17111   */\n      pop\n        /* \"#utility.yul\":16932:17111   */\n    tag_333:\n        /* \"#utility.yul\":17157:17158   */\n      0x01\n        /* \"#utility.yul\":17153:17154   */\n      0x02\n        /* \"#utility.yul\":17145:17151   */\n      dup9\n        /* \"#utility.yul\":17141:17155   */\n      mul\n        /* \"#utility.yul\":17137:17159   */\n      add\n        /* \"#utility.yul\":17131:17135   */\n      dup9\n        /* \"#utility.yul\":17124:17160   */\n      sstore\n        /* \"#utility.yul\":16559:17170   */\n      pop\n      pop\n      pop\n        /* \"#utility.yul\":16522:17409   */\n    tag_325:\n      pop\n        /* \"#utility.yul\":16112:17415   */\n      pop\n      pop\n      pop\n        /* \"#utility.yul\":16020:17415   */\n      pop\n      pop\n      jump\t// out\n        /* \"#utility.yul\":17445:17762   */\n    tag_145:\n        /* \"#utility.yul\":17543:17546   */\n      0x00\n        /* \"#utility.yul\":17564:17635   */\n      tag_336\n        /* \"#utility.yul\":17628:17634   */\n      dup4\n        /* \"#utility.yul\":17623:17626   */\n      dup6\n        /* \"#utility.yul\":17564:17635   */\n      tag_104\n      jump\t// in\n    tag_336:\n        /* \"#utility.yul\":17557:17635   */\n      swap4\n      pop\n        /* \"#utility.yul\":17645:17701   */\n      tag_337\n        /* \"#utility.yul\":17694:17700   */\n      dup4\n        /* \"#utility.yul\":17689:17692   */\n      dup6\n        /* \"#utility.yul\":17682:17687   */\n      dup5\n        /* \"#utility.yul\":17645:17701   */\n      tag_122\n      jump\t// in\n    tag_337:\n        /* \"#utility.yul\":17726:17755   */\n      tag_338\n        /* \"#utility.yul\":17748:17754   */\n      dup4\n        /* \"#utility.yul\":17726:17755   */\n      tag_106\n      jump\t// in\n    tag_338:\n        /* \"#utility.yul\":17721:17724   */\n      dup5\n        /* \"#utility.yul\":17717:17756   */\n      add\n        /* \"#utility.yul\":17710:17756   */\n      swap1\n      pop\n        /* \"#utility.yul\":17445:17762   */\n      swap4\n      swap3\n      pop\n      pop\n      pop\n      jump\t// out\n        /* \"#utility.yul\":17768:18543   */\n    tag_77:\n        /* \"#utility.yul\":18007:18011   */\n      0x00\n        /* \"#utility.yul\":18045:18047   */\n      0x60\n        /* \"#utility.yul\":18034:18043   */\n      dup3\n        /* \"#utility.yul\":18030:18048   */\n      add\n        /* \"#utility.yul\":18022:18048   */\n      swap1\n      pop\n        /* \"#utility.yul\":18094:18103   */\n      dup2\n        /* \"#utility.yul\":18088:18092   */\n      dup2\n        /* \"#utility.yul\":18084:18104   */\n      sub\n        /* \"#utility.yul\":18080:18081   */\n      0x00\n        /* \"#utility.yul\":18069:18078   */\n      dup4\n        /* \"#utility.yul\":18065:18082   */\n      add\n        /* \"#utility.yul\":18058:18105   */\n      mstore\n        /* \"#utility.yul\":18122:18210   */\n      tag_340\n        /* \"#utility.yul\":18205:18209   */\n      dup2\n        /* \"#utility.yul\":18196:18202   */\n      dup9\n        /* \"#utility.yul\":18188:18194   */\n      dup11\n        /* \"#utility.yul\":18122:18210   */\n      tag_145\n      jump\t// in\n    tag_340:\n        /* \"#utility.yul\":18114:18210   */\n      swap1\n      pop\n        /* \"#utility.yul\":18257:18266   */\n      dup2\n        /* \"#utility.yul\":18251:18255   */\n      dup2\n        /* \"#utility.yul\":18247:18267   */\n      sub\n        /* \"#utility.yul\":18242:18244   */\n      0x20\n        /* \"#utility.yul\":18231:18240   */\n      dup4\n        /* \"#utility.yul\":18227:18245   */\n      add\n        /* \"#utility.yul\":18220:18268   */\n      mstore\n        /* \"#utility.yul\":18285:18373   */\n      tag_341\n        /* \"#utility.yul\":18368:18372   */\n      dup2\n        /* \"#utility.yul\":18359:18365   */\n      dup7\n        /* \"#utility.yul\":18351:18357   */\n      dup9\n        /* \"#utility.yul\":18285:18373   */\n      tag_145\n      jump\t// in\n    tag_341:\n        /* \"#utility.yul\":18277:18373   */\n      swap1\n      pop\n        /* \"#utility.yul\":18420:18429   */\n      dup2\n        /* \"#utility.yul\":18414:18418   */\n      dup2\n        /* \"#utility.yul\":18410:18430   */\n      sub\n        /* \"#utility.yul\":18405:18407   */\n      0x40\n        /* \"#utility.yul\":18394:18403   */\n      dup4\n        /* \"#utility.yul\":18390:18408   */\n      add\n        /* \"#utility.yul\":18383:18431   */\n      mstore\n        /* \"#utility.yul\":18448:18536   */\n      tag_342\n        /* \"#utility.yul\":18531:18535   */\n      dup2\n        /* \"#utility.yul\":18522:18528   */\n      dup5\n        /* \"#utility.yul\":18514:18520   */\n      dup7\n        /* \"#utility.yul\":18448:18536   */\n      tag_145\n      jump\t// in\n    tag_342:\n        /* \"#utility.yul\":18440:18536   */\n      swap1\n      pop\n        /* \"#utility.yul\":17768:18543   */\n      swap8\n      swap7\n      pop\n      pop\n      pop\n      pop\n      pop\n      pop\n      pop\n      jump\t// out\n        /* \"#utility.yul\":18549:18730   */\n    tag_146:\n        /* \"#utility.yul\":18689:18722   */\n      0x4f6e6c792063757272656e74206f776e65722063616e207472616e7366657200\n        /* \"#utility.yul\":18685:18686   */\n      0x00\n        /* \"#utility.yul\":18677:18683   */\n      dup3\n        /* \"#utility.yul\":18673:18687   */\n      add\n        /* \"#utility.yul\":18666:18723   */\n      mstore\n        /* \"#utility.yul\":18549:18730   */\n      pop\n      jump\t// out\n        /* \"#utility.yul\":18736:19102   */\n    tag_147:\n        /* \"#utility.yul\":18878:18881   */\n      0x00\n        /* \"#utility.yul\":18899:18966   */\n      tag_345\n        /* \"#utility.yul\":18963:18965   */\n      0x1f\n        /* \"#utility.yul\":18958:18961   */\n      dup4\n        /* \"#utility.yul\":18899:18966   */\n      tag_104\n      jump\t// in\n    tag_345:\n        /* \"#utility.yul\":18892:18966   */\n      swap2\n      pop\n        /* \"#utility.yul\":18975:19068   */\n      tag_346\n        /* \"#utility.yul\":19064:19067   */\n      dup3\n        /* \"#utility.yul\":18975:19068   */\n      tag_146\n      jump\t// in\n    tag_346:\n        /* \"#utility.yul\":19093:19095   */\n      0x20\n        /* \"#utility.yul\":19088:19091   */\n      dup3\n        /* \"#utility.yul\":19084:19096   */\n      add\n        /* \"#utility.yul\":19077:19096   */\n      swap1\n      pop\n        /* \"#utility.yul\":18736:19102   */\n      swap2\n      swap1\n      pop\n      jump\t// out\n        /* \"#utility.yul\":19108:19527   */\n    tag_83:\n        /* \"#utility.yul\":19274:19278   */\n      0x00\n        /* \"#utility.yul\":19312:19314   */\n      0x20\n        /* \"#utility.yul\":19301:19310   */\n      dup3\n        /* \"#utility.yul\":19297:19315   */\n      add\n        /* \"#utility.yul\":19289:19315   */\n      swap1\n      pop\n        /* \"#utility.yul\":19361:19370   */\n      dup2\n        /* \"#utility.yul\":19355:19359   */\n      dup2\n        /* \"#utility.yul\":19351:19371   */\n      sub\n        /* \"#utility.yul\":19347:19348   */\n      0x00\n        /* \"#utility.yul\":19336:19345   */\n      dup4\n        /* \"#utility.yul\":19332:19349   */\n      add\n        /* \"#utility.yul\":19325:19372   */\n      mstore\n        /* \"#utility.yul\":19389:19520   */\n      tag_348\n        /* \"#utility.yul\":19515:19519   */\n      dup2\n        /* \"#utility.yul\":19389:19520   */\n      tag_147\n      jump\t// in\n    tag_348:\n        /* \"#utility.yul\":19381:19520   */\n      swap1\n      pop\n        /* \"#utility.yul\":19108:19527   */\n      swap2\n      swap1\n      pop\n      jump\t// out\n        /* \"#utility.yul\":19533:19756   */\n    tag_148:\n        /* \"#utility.yul\":19673:19707   */\n      0x4f6e6c792063757272656e74206f776e65722063616e20757064617465207374\n        /* \"#utility.yul\":19669:19670   */\n      0x00\n        /* \"#utility.yul\":19661:19667   */\n      dup3\n        /* \"#utility.yul\":19657:19671   */\n      add\n        /* \"#utility.yul\":19650:19708   */\n      mstore\n        /* \"#utility.yul\":19742:19748   */\n      0x6174757300000000000000000000000000000000000000000000000000000000\n        /* \"#utility.yul\":19737:19739   */\n      0x20\n        /* \"#utility.yul\":19729:19735   */\n      dup3\n        /* \"#utility.yul\":19725:19740   */\n      add\n        /* \"#utility.yul\":19718:19749   */\n      mstore\n        /* \"#utility.yul\":19533:19756   */\n      pop\n      jump\t// out\n        /* \"#utility.yul\":19762:20128   */\n    tag_149:\n        /* \"#utility.yul\":19904:19907   */\n      0x00\n        /* \"#utility.yul\":19925:19992   */\n      tag_351\n        /* \"#utility.yul\":19989:19991   */\n      0x24\n        /* \"#utility.yul\":19984:19987   */\n      dup4\n        /* \"#utility.yul\":19925:19992   */\n      tag_104\n      jump\t// in\n    tag_351:\n        /* \"#utility.yul\":19918:19992   */\n      swap2\n      pop\n        /* \"#utility.yul\":20001:20094   */\n      tag_352\n        /* \"#utility.yul\":20090:20093   */\n      dup3\n        /* \"#utility.yul\":20001:20094   */\n      tag_148\n      jump\t// in\n    tag_352:\n        /* \"#utility.yul\":20119:20121   */\n      0x40\n        /* \"#utility.yul\":20114:20117   */\n      dup3\n        /* \"#utility.yul\":20110:20122   */\n      add\n        /* \"#utility.yul\":20103:20122   */\n      swap1\n      pop\n        /* \"#utility.yul\":19762:20128   */\n      swap2\n      swap1\n      pop\n      jump\t// out\n        /* \"#utility.yul\":20134:20553   */\n    tag_91:\n        /* \"#utility.yul\":20300:20304   */\n      0x00\n        /* \"#utility.yul\":20338:20340   */\n      0x20\n        /* \"#utility.yul\":20327:20336   */\n      dup3\n        /* \"#utility.yul\":20323:20341   */\n      add\n        /* \"#utility.yul\":20315:20341   */\n      swap1\n      pop\n        /* \"#utility.yul\":20387:20396   */\n      dup2\n        /* \"#utility.yul\":20381:20385   */\n      dup2\n        /* \"#utility.yul\":20377:20397   */\n      sub\n        /* \"#utility.yul\":20373:20374   */\n      0x00\n        /* \"#utility.yul\":20362:20371   */\n      dup4\n        /* \"#utility.yul\":20358:20375   */\n      add\n        /* \"#utility.yul\":20351:20398   */\n      mstore\n        /* \"#utility.yul\":20415:20546   */\n      tag_354\n        /* \"#utility.yul\":20541:20545   */\n      dup2\n        /* \"#utility.yul\":20415:20546   */\n      tag_149\n      jump\t// in\n    tag_354:\n        /* \"#utility.yul\":20407:20546   */\n      swap1\n      pop\n        /* \"#utility.yul\":20134:20553   */\n      swap2\n      swap1\n      pop\n      jump\t// out\n        /* \"#utility.yul\":20559:20656   */\n    tag_150:\n        /* \"#utility.yul\":20618:20624   */\n      0x00\n        /* \"#utility.yul\":20646:20649   */\n      dup3\n        /* \"#utility.yul\":20636:20649   */\n      swap1\n      pop\n        /* \"#utility.yul\":20559:20656   */\n      swap3\n      swap2\n      pop\n      pop\n      jump\t// out\n        /* \"#utility.yul\":20662:22065   */\n    tag_93:\n        /* \"#utility.yul\":20786:20830   */\n      tag_357\n        /* \"#utility.yul\":20826:20829   */\n      dup4\n        /* \"#utility.yul\":20821:20824   */\n      dup4\n        /* \"#utility.yul\":20786:20830   */\n      tag_150\n      jump\t// in\n    tag_357:\n        /* \"#utility.yul\":20895:20913   */\n      0xffffffffffffffff\n        /* \"#utility.yul\":20887:20893   */\n      dup2\n        /* \"#utility.yul\":20884:20914   */\n      gt\n        /* \"#utility.yul\":20881:20937   */\n      iszero\n      tag_358\n      jumpi\n        /* \"#utility.yul\":20917:20935   */\n      tag_359\n      tag_118\n      jump\t// in\n    tag_359:\n        /* \"#utility.yul\":20881:20937   */\n    tag_358:\n        /* \"#utility.yul\":20961:20999   */\n      tag_360\n        /* \"#utility.yul\":20993:20997   */\n      dup3\n        /* \"#utility.yul\":20987:20998   */\n      sload\n        /* \"#utility.yul\":20961:20999   */\n      tag_38\n      jump\t// in\n    tag_360:\n        /* \"#utility.yul\":21046:21113   */\n      tag_361\n        /* \"#utility.yul\":21106:21112   */\n      dup3\n        /* \"#utility.yul\":21098:21104   */\n      dup3\n        /* \"#utility.yul\":21092:21096   */\n      dup6\n        /* \"#utility.yul\":21046:21113   */\n      tag_141\n      jump\t// in\n    tag_361:\n        /* \"#utility.yul\":21140:21141   */\n      0x00\n        /* \"#utility.yul\":21169:21171   */\n      0x1f\n        /* \"#utility.yul\":21161:21167   */\n      dup4\n        /* \"#utility.yul\":21158:21172   */\n      gt\n        /* \"#utility.yul\":21186:21187   */\n      0x01\n        /* \"#utility.yul\":21181:21813   */\n      dup2\n      eq\n      tag_363\n      jumpi\n        /* \"#utility.yul\":21857:21858   */\n      0x00\n        /* \"#utility.yul\":21874:21880   */\n      dup5\n        /* \"#utility.yul\":21871:21955   */\n      iszero\n      tag_364\n      jumpi\n        /* \"#utility.yul\":21930:21939   */\n      dup3\n        /* \"#utility.yul\":21925:21928   */\n      dup8\n        /* \"#utility.yul\":21921:21940   */\n      add\n        /* \"#utility.yul\":21908:21941   */\n      calldataload\n        /* \"#utility.yul\":21899:21941   */\n      swap1\n      pop\n        /* \"#utility.yul\":21871:21955   */\n    tag_364:\n        /* \"#utility.yul\":21981:22048   */\n      tag_365\n        /* \"#utility.yul\":22041:22047   */\n      dup6\n        /* \"#utility.yul\":22034:22039   */\n      dup3\n        /* \"#utility.yul\":21981:22048   */\n      tag_144\n      jump\t// in\n    tag_365:\n        /* \"#utility.yul\":21975:21979   */\n      dup7\n        /* \"#utility.yul\":21968:22049   */\n      sstore\n        /* \"#utility.yul\":21830:22059   */\n      pop\n        /* \"#utility.yul\":21151:22059   */\n      jump(tag_362)\n        /* \"#utility.yul\":21181:21813   */\n    tag_363:\n        /* \"#utility.yul\":21233:21237   */\n      0x1f\n        /* \"#utility.yul\":21229:21238   */\n      not\n        /* \"#utility.yul\":21221:21227   */\n      dup5\n        /* \"#utility.yul\":21217:21239   */\n      and\n        /* \"#utility.yul\":21267:21304   */\n      tag_366\n        /* \"#utility.yul\":21299:21303   */\n      dup7\n        /* \"#utility.yul\":21267:21304   */\n      tag_130\n      jump\t// in\n    tag_366:\n        /* \"#utility.yul\":21326:21327   */\n      0x00\n        /* \"#utility.yul\":21340:21555   */\n    tag_367:\n        /* \"#utility.yul\":21354:21361   */\n      dup3\n        /* \"#utility.yul\":21351:21352   */\n      dup2\n        /* \"#utility.yul\":21348:21362   */\n      lt\n        /* \"#utility.yul\":21340:21555   */\n      iszero\n      tag_369\n      jumpi\n        /* \"#utility.yul\":21440:21449   */\n      dup5\n        /* \"#utility.yul\":21435:21438   */\n      dup10\n        /* \"#utility.yul\":21431:21450   */\n      add\n        /* \"#utility.yul\":21418:21451   */\n      calldataload\n        /* \"#utility.yul\":21410:21416   */\n      dup3\n        /* \"#utility.yul\":21403:21452   */\n      sstore\n        /* \"#utility.yul\":21491:21492   */\n      0x01\n        /* \"#utility.yul\":21483:21489   */\n      dup3\n        /* \"#utility.yul\":21479:21493   */\n      add\n        /* \"#utility.yul\":21469:21493   */\n      swap2\n      pop\n        /* \"#utility.yul\":21538:21540   */\n      0x20\n        /* \"#utility.yul\":21527:21536   */\n      dup6\n        /* \"#utility.yul\":21523:21541   */\n      add\n        /* \"#utility.yul\":21510:21541   */\n      swap5\n      pop\n        /* \"#utility.yul\":21377:21381   */\n      0x20\n        /* \"#utility.yul\":21374:21375   */\n      dup2\n        /* \"#utility.yul\":21370:21382   */\n      add\n        /* \"#utility.yul\":21365:21382   */\n      swap1\n      pop\n        /* \"#utility.yul\":21340:21555   */\n      jump(tag_367)\n    tag_369:\n        /* \"#utility.yul\":21583:21589   */\n      dup7\n        /* \"#utility.yul\":21574:21581   */\n      dup4\n        /* \"#utility.yul\":21571:21590   */\n      lt\n        /* \"#utility.yul\":21568:21754   */\n      iszero\n      tag_370\n      jumpi\n        /* \"#utility.yul\":21648:21657   */\n      dup5\n        /* \"#utility.yul\":21643:21646   */\n      dup10\n        /* \"#utility.yul\":21639:21658   */\n      add\n        /* \"#utility.yul\":21626:21659   */\n      calldataload\n        /* \"#utility.yul\":21691:21739   */\n      tag_371\n        /* \"#utility.yul\":21733:21737   */\n      0x1f\n        /* \"#utility.yul\":21725:21731   */\n      dup10\n        /* \"#utility.yul\":21721:21738   */\n      and\n        /* \"#utility.yul\":21710:21719   */\n      dup3\n        /* \"#utility.yul\":21691:21739   */\n      tag_143\n      jump\t// in\n    tag_371:\n        /* \"#utility.yul\":21683:21689   */\n      dup4\n        /* \"#utility.yul\":21676:21740   */\n      sstore\n        /* \"#utility.yul\":21591:21754   */\n      pop\n        /* \"#utility.yul\":21568:21754   */\n    tag_370:\n        /* \"#utility.yul\":21800:21801   */\n      0x01\n        /* \"#utility.yul\":21796:21797   */\n      0x02\n        /* \"#utility.yul\":21788:21794   */\n      dup9\n        /* \"#utility.yul\":21784:21798   */\n      mul\n        /* \"#utility.yul\":21780:21802   */\n      add\n        /* \"#utility.yul\":21774:21778   */\n      dup9\n        /* \"#utility.yul\":21767:21803   */\n      sstore\n        /* \"#utility.yul\":21188:21813   */\n      pop\n      pop\n      pop\n        /* \"#utility.yul\":21151:22059   */\n    tag_362:\n      pop\n        /* \"#utility.yul\":20761:22065   */\n      pop\n      pop\n      pop\n        /* \"#utility.yul\":20662:22065   */\n      pop\n      pop\n      pop\n      jump\t// out\n        /* \"#utility.yul\":22071:22404   */\n    tag_95:\n        /* \"#utility.yul\":22194:22198   */\n      0x00\n        /* \"#utility.yul\":22232:22234   */\n      0x20\n        /* \"#utility.yul\":22221:22230   */\n      dup3\n        /* \"#utility.yul\":22217:22235   */\n      add\n        /* \"#utility.yul\":22209:22235   */\n      swap1\n      pop\n        /* \"#utility.yul\":22281:22290   */\n      dup2\n        /* \"#utility.yul\":22275:22279   */\n      dup2\n        /* \"#utility.yul\":22271:22291   */\n      sub\n        /* \"#utility.yul\":22267:22268   */\n      0x00\n        /* \"#utility.yul\":22256:22265   */\n      dup4\n        /* \"#utility.yul\":22252:22269   */\n      add\n        /* \"#utility.yul\":22245:22292   */\n      mstore\n        /* \"#utility.yul\":22309:22397   */\n      tag_373\n        /* \"#utility.yul\":22392:22396   */\n      dup2\n        /* \"#utility.yul\":22383:22389   */\n      dup5\n        /* \"#utility.yul\":22375:22381   */\n      dup7\n        /* \"#utility.yul\":22309:22397   */\n      tag_145\n      jump\t// in\n    tag_373:\n        /* \"#utility.yul\":22301:22397   */\n      swap1\n      pop\n        /* \"#utility.yul\":22071:22404   */\n      swap4\n      swap3\n      pop\n      pop\n      pop\n      jump\t// out\n\n    auxdata: 0xa264697066735822122002056b13560c9eb69f24c834ae75135adadac92eb38cc156c86ce2c6ba70533264736f6c634300081e0033\n}\n",
				"bytecode": {
					"linkReferences": {},
					"object": "6080604052348015600e575f5ffd5b5061178f8061001c5f395ff3fe608060405234801561000f575f5ffd5b5060043610610060575f3560e01c806337d306fe14610064578063524e846214610094578063700bd66e146100c9578063815fc9bb146100e5578063b7dfcbee14610101578063ba4295781461011d575b5f5ffd5b61007e60048036038101906100799190610c5e565b610139565b60405161008b9190610cf9565b60405180910390f35b6100ae60048036038101906100a99190610d4c565b6101d4565b6040516100c096959493929190610d95565b60405180910390f35b6100e360048036038101906100de9190610e71565b610551565b005b6100ff60048036038101906100fa9190610f35565b610846565b005b61011b6004803603810190610116919061109b565b610a2c565b005b610137600480360381019061013291906110f5565b610a7b565b005b6001602052805f5260405f205f9150905080546101559061117f565b80601f01602080910402602001604051908101604052809291908181526020018280546101819061117f565b80156101cc5780601f106101a3576101008083540402835291602001916101cc565b820191905f5260205f20905b8154815290600101906020018083116101af57829003601f168201915b505050505081565b60608060605f60605f5f5f8881526020019081526020015f206007015f9054906101000a900460ff1661023c576040517f08c379a0000000000000000000000000000000000000000000000000000000008152600401610233906111f9565b60405180910390fd5b5f5f5f8981526020019081526020015f20604051806101000160405290815f82015481526020016001820180546102729061117f565b80601f016020809104026020016040519081016040528092919081815260200182805461029e9061117f565b80156102e95780601f106102c0576101008083540402835291602001916102e9565b820191905f5260205f20905b8154815290600101906020018083116102cc57829003601f168201915b505050505081526020016002820180546103029061117f565b80601f016020809104026020016040519081016040528092919081815260200182805461032e9061117f565b80156103795780601f1061035057610100808354040283529160200191610379565b820191905f5260205f20905b81548152906001019060200180831161035c57829003601f168201915b505050505081526020016003820180546103929061117f565b80601f01602080910402602001604051908101604052809291908181526020018280546103be9061117f565b80156104095780601f106103e057610100808354040283529160200191610409565b820191905f5260205f20905b8154815290600101906020018083116103ec57829003601f168201915b50505050508152602001600482015f9054906101000a900473ffffffffffffffffffffffffffffffffffffffff1673ffffffffffffffffffffffffffffffffffffffff1673ffffffffffffffffffffffffffffffffffffffff1681526020016005820180546104779061117f565b80601f01602080910402602001604051908101604052809291908181526020018280546104a39061117f565b80156104ee5780601f106104c5576101008083540402835291602001916104ee565b820191905f5260205f20905b8154815290600101906020018083116104d157829003601f168201915b5050505050815260200160068201548152602001600782015f9054906101000a900460ff161515151581525050905080602001518160400151826060015183608001518460a001518560c001519650965096509650965096505091939550919395565b5f5f8881526020019081526020015f206007015f9054906101000a900460ff16156105b1576040517f08c379a00000000000000000000000000000000000000000000000000000000081526004016105a890611261565b60405180910390fd5b60405180610100016040528088815260200187878080601f0160208091040260200160405190810160405280939291908181526020018383808284375f81840152601f19601f82011690508083019250505050505050815260200185858080601f0160208091040260200160405190810160405280939291908181526020018383808284375f81840152601f19601f82011690508083019250505050505050815260200183838080601f0160208091040260200160405190810160405280939291908181526020018383808284375f81840152601f19601f8201169050808301925050505050505081526020013373ffffffffffffffffffffffffffffffffffffffff1681526020016040518060400160405280600781526020017f43726561746564000000000000000000000000000000000000000000000000008152508152602001428152602001600115158152505f5f8981526020019081526020015f205f820151815f0155602082015181600101908161072f919061141f565b506040820151816002019081610745919061141f565b50606082015181600301908161075b919061141f565b506080820151816004015f6101000a81548173ffffffffffffffffffffffffffffffffffffffff021916908373ffffffffffffffffffffffffffffffffffffffff16021790555060a08201518160050190816107b7919061141f565b5060c0820151816006015560e0820151816007015f6101000a81548160ff0219169083151502179055509050503373ffffffffffffffffffffffffffffffffffffffff16877f35fd449874d67b116c494e5f11511f6d1f93a6626038d6c4c3cda956aca004f88888888888886040516108359695949392919061151a565b60405180910390a350505050505050565b5f5f8381526020019081526020015f206007015f9054906101000a900460ff166108a5576040517f08c379a000000000000000000000000000000000000000000000000000000000815260040161089c906111f9565b60405180910390fd5b3373ffffffffffffffffffffffffffffffffffffffff165f5f8481526020019081526020015f206004015f9054906101000a900473ffffffffffffffffffffffffffffffffffffffff1673ffffffffffffffffffffffffffffffffffffffff1614610945576040517f08c379a000000000000000000000000000000000000000000000000000000000815260040161093c906115b4565b60405180910390fd5b5f5f5f8481526020019081526020015f206004015f9054906101000a900473ffffffffffffffffffffffffffffffffffffffff169050815f5f8581526020019081526020015f206004015f6101000a81548173ffffffffffffffffffffffffffffffffffffffff021916908373ffffffffffffffffffffffffffffffffffffffff1602179055508173ffffffffffffffffffffffffffffffffffffffff168173ffffffffffffffffffffffffffffffffffffffff16847f24aa18fe2c4313c2ac5230b1bfc5a1d7ae3aa27a4ba8b1cd91d35fab737fdc8b60405160405180910390a4505050565b8060015f8473ffffffffffffffffffffffffffffffffffffffff1673ffffffffffffffffffffffffffffffffffffffff1681526020019081526020015f209081610a76919061141f565b505050565b5f5f8481526020019081526020015f206007015f9054906101000a900460ff16610ada576040517f08c379a0000000000000000000000000000000000000000000000000000000008152600401610ad1906111f9565b60405180910390fd5b3373ffffffffffffffffffffffffffffffffffffffff165f5f8581526020019081526020015f206004015f9054906101000a900473ffffffffffffffffffffffffffffffffffffffff1673ffffffffffffffffffffffffffffffffffffffff1614610b7a576040517f08c379a0000000000000000000000000000000000000000000000000000000008152600401610b7190611642565b60405180910390fd5b81815f5f8681526020019081526020015f206005019182610b9c92919061166a565b503373ffffffffffffffffffffffffffffffffffffffff16837f9763029f6975cab71b8c850a7bdedd2ffe78765c556b357a194889e132e224ce8484604051610be6929190611737565b60405180910390a3505050565b5f604051905090565b5f5ffd5b5f5ffd5b5f73ffffffffffffffffffffffffffffffffffffffff82169050919050565b5f610c2d82610c04565b9050919050565b610c3d81610c23565b8114610c47575f5ffd5b50565b5f81359050610c5881610c34565b92915050565b5f60208284031215610c7357610c72610bfc565b5b5f610c8084828501610c4a565b91505092915050565b5f81519050919050565b5f82825260208201905092915050565b8281835e5f83830152505050565b5f601f19601f8301169050919050565b5f610ccb82610c89565b610cd58185610c93565b9350610ce5818560208601610ca3565b610cee81610cb1565b840191505092915050565b5f6020820190508181035f830152610d118184610cc1565b905092915050565b5f819050919050565b610d2b81610d19565b8114610d35575f5ffd5b50565b5f81359050610d4681610d22565b92915050565b5f60208284031215610d6157610d60610bfc565b5b5f610d6e84828501610d38565b91505092915050565b610d8081610c23565b82525050565b610d8f81610d19565b82525050565b5f60c0820190508181035f830152610dad8189610cc1565b90508181036020830152610dc18188610cc1565b90508181036040830152610dd58187610cc1565b9050610de46060830186610d77565b8181036080830152610df68185610cc1565b9050610e0560a0830184610d86565b979650505050505050565b5f5ffd5b5f5ffd5b5f5ffd5b5f5f83601f840112610e3157610e30610e10565b5b8235905067ffffffffffffffff811115610e4e57610e4d610e14565b5b602083019150836001820283011115610e6a57610e69610e18565b5b9250929050565b5f5f5f5f5f5f5f6080888a031215610e8c57610e8b610bfc565b5b5f610e998a828b01610d38565b975050602088013567ffffffffffffffff811115610eba57610eb9610c00565b5b610ec68a828b01610e1c565b9650965050604088013567ffffffffffffffff811115610ee957610ee8610c00565b5b610ef58a828b01610e1c565b9450945050606088013567ffffffffffffffff811115610f1857610f17610c00565b5b610f248a828b01610e1c565b925092505092959891949750929550565b5f5f60408385031215610f4b57610f4a610bfc565b5b5f610f5885828601610d38565b9250506020610f6985828601610c4a565b9150509250929050565b5f5ffd5b7f4e487b71000000000000000000000000000000000000000000000000000000005f52604160045260245ffd5b610fad82610cb1565b810181811067ffffffffffffffff82111715610fcc57610fcb610f77565b5b80604052505050565b5f610fde610bf3565b9050610fea8282610fa4565b919050565b5f67ffffffffffffffff82111561100957611008610f77565b5b61101282610cb1565b9050602081019050919050565b828183375f83830152505050565b5f61103f61103a84610fef565b610fd5565b90508281526020810184848401111561105b5761105a610f73565b5b61106684828561101f565b509392505050565b5f82601f83011261108257611081610e10565b5b813561109284826020860161102d565b91505092915050565b5f5f604083850312156110b1576110b0610bfc565b5b5f6110be85828601610c4a565b925050602083013567ffffffffffffffff8111156110df576110de610c00565b5b6110eb8582860161106e565b9150509250929050565b5f5f5f6040848603121561110c5761110b610bfc565b5b5f61111986828701610d38565b935050602084013567ffffffffffffffff81111561113a57611139610c00565b5b61114686828701610e1c565b92509250509250925092565b7f4e487b71000000000000000000000000000000000000000000000000000000005f52602260045260245ffd5b5f600282049050600182168061119657607f821691505b6020821081036111a9576111a8611152565b5b50919050565b7f50726f6475637420646f6573206e6f74206578697374000000000000000000005f82015250565b5f6111e3601683610c93565b91506111ee826111af565b602082019050919050565b5f6020820190508181035f830152611210816111d7565b9050919050565b7f50726f6475637420616c726561647920657869737473000000000000000000005f82015250565b5f61124b601683610c93565b915061125682611217565b602082019050919050565b5f6020820190508181035f8301526112788161123f565b9050919050565b5f819050815f5260205f209050919050565b5f6020601f8301049050919050565b5f82821b905092915050565b5f600883026112db7fffffffffffffffffffffffffffffffffffffffffffffffffffffffffffffffff826112a0565b6112e586836112a0565b95508019841693508086168417925050509392505050565b5f819050919050565b5f61132061131b61131684610d19565b6112fd565b610d19565b9050919050565b5f819050919050565b61133983611306565b61134d61134582611327565b8484546112ac565b825550505050565b5f5f905090565b611364611355565b61136f818484611330565b505050565b5b81811015611392576113875f8261135c565b600181019050611375565b5050565b601f8211156113d7576113a88161127f565b6113b184611291565b810160208510156113c0578190505b6113d46113cc85611291565b830182611374565b50505b505050565b5f82821c905092915050565b5f6113f75f19846008026113dc565b1980831691505092915050565b5f61140f83836113e8565b9150826002028217905092915050565b61142882610c89565b67ffffffffffffffff81111561144157611440610f77565b5b61144b825461117f565b611456828285611396565b5f60209050601f831160018114611487575f8415611475578287015190505b61147f8582611404565b8655506114e6565b601f1984166114958661127f565b5f5b828110156114bc57848901518255600182019150602085019450602081019050611497565b868310156114d957848901516114d5601f8916826113e8565b8355505b6001600288020188555050505b505050505050565b5f6114f98385610c93565b935061150683858461101f565b61150f83610cb1565b840190509392505050565b5f6060820190508181035f83015261153381888a6114ee565b905081810360208301526115488186886114ee565b9050818103604083015261155d8184866114ee565b9050979650505050505050565b7f4f6e6c792063757272656e74206f776e65722063616e207472616e73666572005f82015250565b5f61159e601f83610c93565b91506115a98261156a565b602082019050919050565b5f6020820190508181035f8301526115cb81611592565b9050919050565b7f4f6e6c792063757272656e74206f776e65722063616e207570646174652073745f8201527f6174757300000000000000000000000000000000000000000000000000000000602082015250565b5f61162c602483610c93565b9150611637826115d2565b604082019050919050565b5f6020820190508181035f83015261165981611620565b9050919050565b5f82905092915050565b6116748383611660565b67ffffffffffffffff81111561168d5761168c610f77565b5b611697825461117f565b6116a2828285611396565b5f601f8311600181146116cf575f84156116bd578287013590505b6116c78582611404565b86555061172e565b601f1984166116dd8661127f565b5f5b82811015611704578489013582556001820191506020850194506020810190506116df565b86831015611721578489013561171d601f8916826113e8565b8355505b6001600288020188555050505b50505050505050565b5f6020820190508181035f8301526117508184866114ee565b9050939250505056fea264697066735822122002056b13560c9eb69f24c834ae75135adadac92eb38cc156c86ce2c6ba70533264736f6c634300081e0033",
					"opcodes": "PUSH1 0x80 PUSH1 0x40 MSTORE CALLVALUE DUP1 ISZERO PUSH1 0xE JUMPI PUSH0 PUSH0 REVERT JUMPDEST POP PUSH2 0x178F DUP1 PUSH2 0x1C PUSH0 CODECOPY PUSH0 RETURN INVALID PUSH1 0x80 PUSH1 0x40 MSTORE CALLVALUE DUP1 ISZERO PUSH2 0xF JUMPI PUSH0 PUSH0 REVERT JUMPDEST POP PUSH1 0x4 CALLDATASIZE LT PUSH2 0x60 JUMPI PUSH0 CALLDATALOAD PUSH1 0xE0 SHR DUP1 PUSH4 0x37D306FE EQ PUSH2 0x64 JUMPI DUP1 PUSH4 0x524E8462 EQ PUSH2 0x94 JUMPI DUP1 PUSH4 0x700BD66E EQ PUSH2 0xC9 JUMPI DUP1 PUSH4 0x815FC9BB EQ PUSH2 0xE5 JUMPI DUP1 PUSH4 0xB7DFCBEE EQ PUSH2 0x101 JUMPI DUP1 PUSH4 0xBA429578 EQ PUSH2 0x11D JUMPI JUMPDEST PUSH0 PUSH0 REVERT JUMPDEST PUSH2 0x7E PUSH1 0x4 DUP1 CALLDATASIZE SUB DUP2 ADD SWAP1 PUSH2 0x79 SWAP2 SWAP1 PUSH2 0xC5E JUMP JUMPDEST PUSH2 0x139 JUMP JUMPDEST PUSH1 0x40 MLOAD PUSH2 0x8B SWAP2 SWAP1 PUSH2 0xCF9 JUMP JUMPDEST PUSH1 0x40 MLOAD DUP1 SWAP2 SUB SWAP1 RETURN JUMPDEST PUSH2 0xAE PUSH1 0x4 DUP1 CALLDATASIZE SUB DUP2 ADD SWAP1 PUSH2 0xA9 SWAP2 SWAP1 PUSH2 0xD4C JUMP JUMPDEST PUSH2 0x1D4 JUMP JUMPDEST PUSH1 0x40 MLOAD PUSH2 0xC0 SWAP7 SWAP6 SWAP5 SWAP4 SWAP3 SWAP2 SWAP1 PUSH2 0xD95 JUMP JUMPDEST PUSH1 0x40 MLOAD DUP1 SWAP2 SUB SWAP1 RETURN JUMPDEST PUSH2 0xE3 PUSH1 0x4 DUP1 CALLDATASIZE SUB DUP2 ADD SWAP1 PUSH2 0xDE SWAP2 SWAP1 PUSH2 0xE71 JUMP JUMPDEST PUSH2 0x551 JUMP JUMPDEST STOP JUMPDEST PUSH2 0xFF PUSH1 0x4 DUP1 CALLDATASIZE SUB DUP2 ADD SWAP1 PUSH2 0xFA SWAP2 SWAP1 PUSH2 0xF35 JUMP JUMPDEST PUSH2 0x846 JUMP JUMPDEST STOP JUMPDEST PUSH2 0x11B PUSH1 0x4 DUP1 CALLDATASIZE SUB DUP2 ADD SWAP1 PUSH2 0x116 SWAP2 SWAP1 PUSH2 0x109B JUMP JUMPDEST PUSH2 0xA2C JUMP JUMPDEST STOP JUMPDEST PUSH2 0x137 PUSH1 0x4 DUP1 CALLDATASIZE SUB DUP2 ADD SWAP1 PUSH2 0x132 SWAP2 SWAP1 PUSH2 0x10F5 JUMP JUMPDEST PUSH2 0xA7B JUMP JUMPDEST STOP JUMPDEST PUSH1 0x1 PUSH1 0x20 MSTORE DUP1 PUSH0 MSTORE PUSH1 0x40 PUSH0 KECCAK256 PUSH0 SWAP2 POP SWAP1 POP DUP1 SLOAD PUSH2 0x155 SWAP1 PUSH2 0x117F JUMP JUMPDEST DUP1 PUSH1 0x1F ADD PUSH1 0x20 DUP1 SWAP2 DIV MUL PUSH1 0x20 ADD PUSH1 0x40 MLOAD SWAP1 DUP2 ADD PUSH1 0x40 MSTORE DUP1 SWAP3 SWAP2 SWAP1 DUP2 DUP2 MSTORE PUSH1 0x20 ADD DUP3 DUP1 SLOAD PUSH2 0x181 SWAP1 PUSH2 0x117F JUMP JUMPDEST DUP1 ISZERO PUSH2 0x1CC JUMPI DUP1 PUSH1 0x1F LT PUSH2 0x1A3 JUMPI PUSH2 0x100 DUP1 DUP4 SLOAD DIV MUL DUP4 MSTORE SWAP2 PUSH1 0x20 ADD SWAP2 PUSH2 0x1CC JUMP JUMPDEST DUP3 ADD SWAP2 SWAP1 PUSH0 MSTORE PUSH1 0x20 PUSH0 KECCAK256 SWAP1 JUMPDEST DUP2 SLOAD DUP2 MSTORE SWAP1 PUSH1 0x1 ADD SWAP1 PUSH1 0x20 ADD DUP1 DUP4 GT PUSH2 0x1AF JUMPI DUP3 SWAP1 SUB PUSH1 0x1F AND DUP3 ADD SWAP2 JUMPDEST POP POP POP POP POP DUP2 JUMP JUMPDEST PUSH1 0x60 DUP1 PUSH1 0x60 PUSH0 PUSH1 0x60 PUSH0 PUSH0 PUSH0 DUP9 DUP2 MSTORE PUSH1 0x20 ADD SWAP1 DUP2 MSTORE PUSH1 0x20 ADD PUSH0 KECCAK256 PUSH1 0x7 ADD PUSH0 SWAP1 SLOAD SWAP1 PUSH2 0x100 EXP SWAP1 DIV PUSH1 0xFF AND PUSH2 0x23C JUMPI PUSH1 0x40 MLOAD PUSH32 0x8C379A000000000000000000000000000000000000000000000000000000000 DUP2 MSTORE PUSH1 0x4 ADD PUSH2 0x233 SWAP1 PUSH2 0x11F9 JUMP JUMPDEST PUSH1 0x40 MLOAD DUP1 SWAP2 SUB SWAP1 REVERT JUMPDEST PUSH0 PUSH0 PUSH0 DUP10 DUP2 MSTORE PUSH1 0x20 ADD SWAP1 DUP2 MSTORE PUSH1 0x20 ADD PUSH0 KECCAK256 PUSH1 0x40 MLOAD DUP1 PUSH2 0x100 ADD PUSH1 0x40 MSTORE SWAP1 DUP2 PUSH0 DUP3 ADD SLOAD DUP2 MSTORE PUSH1 0x20 ADD PUSH1 0x1 DUP3 ADD DUP1 SLOAD PUSH2 0x272 SWAP1 PUSH2 0x117F JUMP JUMPDEST DUP1 PUSH1 0x1F ADD PUSH1 0x20 DUP1 SWAP2 DIV MUL PUSH1 0x20 ADD PUSH1 0x40 MLOAD SWAP1 DUP2 ADD PUSH1 0x40 MSTORE DUP1 SWAP3 SWAP2 SWAP1 DUP2 DUP2 MSTORE PUSH1 0x20 ADD DUP3 DUP1 SLOAD PUSH2 0x29E SWAP1 PUSH2 0x117F JUMP JUMPDEST DUP1 ISZERO PUSH2 0x2E9 JUMPI DUP1 PUSH1 0x1F LT PUSH2 0x2C0 JUMPI PUSH2 0x100 DUP1 DUP4 SLOAD DIV MUL DUP4 MSTORE SWAP2 PUSH1 0x20 ADD SWAP2 PUSH2 0x2E9 JUMP JUMPDEST DUP3 ADD SWAP2 SWAP1 PUSH0 MSTORE PUSH1 0x20 PUSH0 KECCAK256 SWAP1 JUMPDEST DUP2 SLOAD DUP2 MSTORE SWAP1 PUSH1 0x1 ADD SWAP1 PUSH1 0x20 ADD DUP1 DUP4 GT PUSH2 0x2CC JUMPI DUP3 SWAP1 SUB PUSH1 0x1F AND DUP3 ADD SWAP2 JUMPDEST POP POP POP POP POP DUP2 MSTORE PUSH1 0x20 ADD PUSH1 0x2 DUP3 ADD DUP1 SLOAD PUSH2 0x302 SWAP1 PUSH2 0x117F JUMP JUMPDEST DUP1 PUSH1 0x1F ADD PUSH1 0x20 DUP1 SWAP2 DIV MUL PUSH1 0x20 ADD PUSH1 0x40 MLOAD SWAP1 DUP2 ADD PUSH1 0x40 MSTORE DUP1 SWAP3 SWAP2 SWAP1 DUP2 DUP2 MSTORE PUSH1 0x20 ADD DUP3 DUP1 SLOAD PUSH2 0x32E SWAP1 PUSH2 0x117F JUMP JUMPDEST DUP1 ISZERO PUSH2 0x379 JUMPI DUP1 PUSH1 0x1F LT PUSH2 0x350 JUMPI PUSH2 0x100 DUP1 DUP4 SLOAD DIV MUL DUP4 MSTORE SWAP2 PUSH1 0x20 ADD SWAP2 PUSH2 0x379 JUMP JUMPDEST DUP3 ADD SWAP2 SWAP1 PUSH0 MSTORE PUSH1 0x20 PUSH0 KECCAK256 SWAP1 JUMPDEST DUP2 SLOAD DUP2 MSTORE SWAP1 PUSH1 0x1 ADD SWAP1 PUSH1 0x20 ADD DUP1 DUP4 GT PUSH2 0x35C JUMPI DUP3 SWAP1 SUB PUSH1 0x1F AND DUP3 ADD SWAP2 JUMPDEST POP POP POP POP POP DUP2 MSTORE PUSH1 0x20 ADD PUSH1 0x3 DUP3 ADD DUP1 SLOAD PUSH2 0x392 SWAP1 PUSH2 0x117F JUMP JUMPDEST DUP1 PUSH1 0x1F ADD PUSH1 0x20 DUP1 SWAP2 DIV MUL PUSH1 0x20 ADD PUSH1 0x40 MLOAD SWAP1 DUP2 ADD PUSH1 0x40 MSTORE DUP1 SWAP3 SWAP2 SWAP1 DUP2 DUP2 MSTORE PUSH1 0x20 ADD DUP3 DUP1 SLOAD PUSH2 0x3BE SWAP1 PUSH2 0x117F JUMP JUMPDEST DUP1 ISZERO PUSH2 0x409 JUMPI DUP1 PUSH1 0x1F LT PUSH2 0x3E0 JUMPI PUSH2 0x100 DUP1 DUP4 SLOAD DIV MUL DUP4 MSTORE SWAP2 PUSH1 0x20 ADD SWAP2 PUSH2 0x409 JUMP JUMPDEST DUP3 ADD SWAP2 SWAP1 PUSH0 MSTORE PUSH1 0x20 PUSH0 KECCAK256 SWAP1 JUMPDEST DUP2 SLOAD DUP2 MSTORE SWAP1 PUSH1 0x1 ADD SWAP1 PUSH1 0x20 ADD DUP1 DUP4 GT PUSH2 0x3EC JUMPI DUP3 SWAP1 SUB PUSH1 0x1F AND DUP3 ADD SWAP2 JUMPDEST POP POP POP POP POP DUP2 MSTORE PUSH1 0x20 ADD PUSH1 0x4 DUP3 ADD PUSH0 SWAP1 SLOAD SWAP1 PUSH2 0x100 EXP SWAP1 DIV PUSH20 0xFFFFFFFFFFFFFFFFFFFFFFFFFFFFFFFFFFFFFFFF AND PUSH20 0xFFFFFFFFFFFFFFFFFFFFFFFFFFFFFFFFFFFFFFFF AND PUSH20 0xFFFFFFFFFFFFFFFFFFFFFFFFFFFFFFFFFFFFFFFF AND DUP2 MSTORE PUSH1 0x20 ADD PUSH1 0x5 DUP3 ADD DUP1 SLOAD PUSH2 0x477 SWAP1 PUSH2 0x117F JUMP JUMPDEST DUP1 PUSH1 0x1F ADD PUSH1 0x20 DUP1 SWAP2 DIV MUL PUSH1 0x20 ADD PUSH1 0x40 MLOAD SWAP1 DUP2 ADD PUSH1 0x40 MSTORE DUP1 SWAP3 SWAP2 SWAP1 DUP2 DUP2 MSTORE PUSH1 0x20 ADD DUP3 DUP1 SLOAD PUSH2 0x4A3 SWAP1 PUSH2 0x117F JUMP JUMPDEST DUP1 ISZERO PUSH2 0x4EE JUMPI DUP1 PUSH1 0x1F LT PUSH2 0x4C5 JUMPI PUSH2 0x100 DUP1 DUP4 SLOAD DIV MUL DUP4 MSTORE SWAP2 PUSH1 0x20 ADD SWAP2 PUSH2 0x4EE JUMP JUMPDEST DUP3 ADD SWAP2 SWAP1 PUSH0 MSTORE PUSH1 0x20 PUSH0 KECCAK256 SWAP1 JUMPDEST DUP2 SLOAD DUP2 MSTORE SWAP1 PUSH1 0x1 ADD SWAP1 PUSH1 0x20 ADD DUP1 DUP4 GT PUSH2 0x4D1 JUMPI DUP3 SWAP1 SUB PUSH1 0x1F AND DUP3 ADD SWAP2 JUMPDEST POP POP POP POP POP DUP2 MSTORE PUSH1 0x20 ADD PUSH1 0x6 DUP3 ADD SLOAD DUP2 MSTORE PUSH1 0x20 ADD PUSH1 0x7 DUP3 ADD PUSH0 SWAP1 SLOAD SWAP1 PUSH2 0x100 EXP SWAP1 DIV PUSH1 0xFF AND ISZERO ISZERO ISZERO ISZERO DUP2 MSTORE POP POP SWAP1 POP DUP1 PUSH1 0x20 ADD MLOAD DUP2 PUSH1 0x40 ADD MLOAD DUP3 PUSH1 0x60 ADD MLOAD DUP4 PUSH1 0x80 ADD MLOAD DUP5 PUSH1 0xA0 ADD MLOAD DUP6 PUSH1 0xC0 ADD MLOAD SWAP7 POP SWAP7 POP SWAP7 POP SWAP7 POP SWAP7 POP SWAP7 POP POP SWAP2 SWAP4 SWAP6 POP SWAP2 SWAP4 SWAP6 JUMP JUMPDEST PUSH0 PUSH0 DUP9 DUP2 MSTORE PUSH1 0x20 ADD SWAP1 DUP2 MSTORE PUSH1 0x20 ADD PUSH0 KECCAK256 PUSH1 0x7 ADD PUSH0 SWAP1 SLOAD SWAP1 PUSH2 0x100 EXP SWAP1 DIV PUSH1 0xFF AND ISZERO PUSH2 0x5B1 JUMPI PUSH1 0x40 MLOAD PUSH32 0x8C379A000000000000000000000000000000000000000000000000000000000 DUP2 MSTORE PUSH1 0x4 ADD PUSH2 0x5A8 SWAP1 PUSH2 0x1261 JUMP JUMPDEST PUSH1 0x40 MLOAD DUP1 SWAP2 SUB SWAP1 REVERT JUMPDEST PUSH1 0x40 MLOAD DUP1 PUSH2 0x100 ADD PUSH1 0x40 MSTORE DUP1 DUP9 DUP2 MSTORE PUSH1 0x20 ADD DUP8 DUP8 DUP1 DUP1 PUSH1 0x1F ADD PUSH1 0x20 DUP1 SWAP2 DIV MUL PUSH1 0x20 ADD PUSH1 0x40 MLOAD SWAP1 DUP2 ADD PUSH1 0x40 MSTORE DUP1 SWAP4 SWAP3 SWAP2 SWAP1 DUP2 DUP2 MSTORE PUSH1 0x20 ADD DUP4 DUP4 DUP1 DUP3 DUP5 CALLDATACOPY PUSH0 DUP2 DUP5 ADD MSTORE PUSH1 0x1F NOT PUSH1 0x1F DUP3 ADD AND SWAP1 POP DUP1 DUP4 ADD SWAP3 POP POP POP POP POP POP POP DUP2 MSTORE PUSH1 0x20 ADD DUP6 DUP6 DUP1 DUP1 PUSH1 0x1F ADD PUSH1 0x20 DUP1 SWAP2 DIV MUL PUSH1 0x20 ADD PUSH1 0x40 MLOAD SWAP1 DUP2 ADD PUSH1 0x40 MSTORE DUP1 SWAP4 SWAP3 SWAP2 SWAP1 DUP2 DUP2 MSTORE PUSH1 0x20 ADD DUP4 DUP4 DUP1 DUP3 DUP5 CALLDATACOPY PUSH0 DUP2 DUP5 ADD MSTORE PUSH1 0x1F NOT PUSH1 0x1F DUP3 ADD AND SWAP1 POP DUP1 DUP4 ADD SWAP3 POP POP POP POP POP POP POP DUP2 MSTORE PUSH1 0x20 ADD DUP4 DUP4 DUP1 DUP1 PUSH1 0x1F ADD PUSH1 0x20 DUP1 SWAP2 DIV MUL PUSH1 0x20 ADD PUSH1 0x40 MLOAD SWAP1 DUP2 ADD PUSH1 0x40 MSTORE DUP1 SWAP4 SWAP3 SWAP2 SWAP1 DUP2 DUP2 MSTORE PUSH1 0x20 ADD DUP4 DUP4 DUP1 DUP3 DUP5 CALLDATACOPY PUSH0 DUP2 DUP5 ADD MSTORE PUSH1 0x1F NOT PUSH1 0x1F DUP3 ADD AND SWAP1 POP DUP1 DUP4 ADD SWAP3 POP POP POP POP POP POP POP DUP2 MSTORE PUSH1 0x20 ADD CALLER PUSH20 0xFFFFFFFFFFFFFFFFFFFFFFFFFFFFFFFFFFFFFFFF AND DUP2 MSTORE PUSH1 0x20 ADD PUSH1 0x40 MLOAD DUP1 PUSH1 0x40 ADD PUSH1 0x40 MSTORE DUP1 PUSH1 0x7 DUP2 MSTORE PUSH1 0x20 ADD PUSH32 0x4372656174656400000000000000000000000000000000000000000000000000 DUP2 MSTORE POP DUP2 MSTORE PUSH1 0x20 ADD TIMESTAMP DUP2 MSTORE PUSH1 0x20 ADD PUSH1 0x1 ISZERO ISZERO DUP2 MSTORE POP PUSH0 PUSH0 DUP10 DUP2 MSTORE PUSH1 0x20 ADD SWAP1 DUP2 MSTORE PUSH1 0x20 ADD PUSH0 KECCAK256 PUSH0 DUP3 ADD MLOAD DUP2 PUSH0 ADD SSTORE PUSH1 0x20 DUP3 ADD MLOAD DUP2 PUSH1 0x1 ADD SWAP1 DUP2 PUSH2 0x72F SWAP2 SWAP1 PUSH2 0x141F JUMP JUMPDEST POP PUSH1 0x40 DUP3 ADD MLOAD DUP2 PUSH1 0x2 ADD SWAP1 DUP2 PUSH2 0x745 SWAP2 SWAP1 PUSH2 0x141F JUMP JUMPDEST POP PUSH1 0x60 DUP3 ADD MLOAD DUP2 PUSH1 0x3 ADD SWAP1 DUP2 PUSH2 0x75B SWAP2 SWAP1 PUSH2 0x141F JUMP JUMPDEST POP PUSH1 0x80 DUP3 ADD MLOAD DUP2 PUSH1 0x4 ADD PUSH0 PUSH2 0x100 EXP DUP2 SLOAD DUP2 PUSH20 0xFFFFFFFFFFFFFFFFFFFFFFFFFFFFFFFFFFFFFFFF MUL NOT AND SWAP1 DUP4 PUSH20 0xFFFFFFFFFFFFFFFFFFFFFFFFFFFFFFFFFFFFFFFF AND MUL OR SWAP1 SSTORE POP PUSH1 0xA0 DUP3 ADD MLOAD DUP2 PUSH1 0x5 ADD SWAP1 DUP2 PUSH2 0x7B7 SWAP2 SWAP1 PUSH2 0x141F JUMP JUMPDEST POP PUSH1 0xC0 DUP3 ADD MLOAD DUP2 PUSH1 0x6 ADD SSTORE PUSH1 0xE0 DUP3 ADD MLOAD DUP2 PUSH1 0x7 ADD PUSH0 PUSH2 0x100 EXP DUP2 SLOAD DUP2 PUSH1 0xFF MUL NOT AND SWAP1 DUP4 ISZERO ISZERO MUL OR SWAP1 SSTORE POP SWAP1 POP POP CALLER PUSH20 0xFFFFFFFFFFFFFFFFFFFFFFFFFFFFFFFFFFFFFFFF AND DUP8 PUSH32 0x35FD449874D67B116C494E5F11511F6D1F93A6626038D6C4C3CDA956ACA004F8 DUP9 DUP9 DUP9 DUP9 DUP9 DUP9 PUSH1 0x40 MLOAD PUSH2 0x835 SWAP7 SWAP6 SWAP5 SWAP4 SWAP3 SWAP2 SWAP1 PUSH2 0x151A JUMP JUMPDEST PUSH1 0x40 MLOAD DUP1 SWAP2 SUB SWAP1 LOG3 POP POP POP POP POP POP POP JUMP JUMPDEST PUSH0 PUSH0 DUP4 DUP2 MSTORE PUSH1 0x20 ADD SWAP1 DUP2 MSTORE PUSH1 0x20 ADD PUSH0 KECCAK256 PUSH1 0x7 ADD PUSH0 SWAP1 SLOAD SWAP1 PUSH2 0x100 EXP SWAP1 DIV PUSH1 0xFF AND PUSH2 0x8A5 JUMPI PUSH1 0x40 MLOAD PUSH32 0x8C379A000000000000000000000000000000000000000000000000000000000 DUP2 MSTORE PUSH1 0x4 ADD PUSH2 0x89C SWAP1 PUSH2 0x11F9 JUMP JUMPDEST PUSH1 0x40 MLOAD DUP1 SWAP2 SUB SWAP1 REVERT JUMPDEST CALLER PUSH20 0xFFFFFFFFFFFFFFFFFFFFFFFFFFFFFFFFFFFFFFFF AND PUSH0 PUSH0 DUP5 DUP2 MSTORE PUSH1 0x20 ADD SWAP1 DUP2 MSTORE PUSH1 0x20 ADD PUSH0 KECCAK256 PUSH1 0x4 ADD PUSH0 SWAP1 SLOAD SWAP1 PUSH2 0x100 EXP SWAP1 DIV PUSH20 0xFFFFFFFFFFFFFFFFFFFFFFFFFFFFFFFFFFFFFFFF AND PUSH20 0xFFFFFFFFFFFFFFFFFFFFFFFFFFFFFFFFFFFFFFFF AND EQ PUSH2 0x945 JUMPI PUSH1 0x40 MLOAD PUSH32 0x8C379A000000000000000000000000000000000000000000000000000000000 DUP2 MSTORE PUSH1 0x4 ADD PUSH2 0x93C SWAP1 PUSH2 0x15B4 JUMP JUMPDEST PUSH1 0x40 MLOAD DUP1 SWAP2 SUB SWAP1 REVERT JUMPDEST PUSH0 PUSH0 PUSH0 DUP5 DUP2 MSTORE PUSH1 0x20 ADD SWAP1 DUP2 MSTORE PUSH1 0x20 ADD PUSH0 KECCAK256 PUSH1 0x4 ADD PUSH0 SWAP1 SLOAD SWAP1 PUSH2 0x100 EXP SWAP1 DIV PUSH20 0xFFFFFFFFFFFFFFFFFFFFFFFFFFFFFFFFFFFFFFFF AND SWAP1 POP DUP2 PUSH0 PUSH0 DUP6 DUP2 MSTORE PUSH1 0x20 ADD SWAP1 DUP2 MSTORE PUSH1 0x20 ADD PUSH0 KECCAK256 PUSH1 0x4 ADD PUSH0 PUSH2 0x100 EXP DUP2 SLOAD DUP2 PUSH20 0xFFFFFFFFFFFFFFFFFFFFFFFFFFFFFFFFFFFFFFFF MUL NOT AND SWAP1 DUP4 PUSH20 0xFFFFFFFFFFFFFFFFFFFFFFFFFFFFFFFFFFFFFFFF AND MUL OR SWAP1 SSTORE POP DUP2 PUSH20 0xFFFFFFFFFFFFFFFFFFFFFFFFFFFFFFFFFFFFFFFF AND DUP2 PUSH20 0xFFFFFFFFFFFFFFFFFFFFFFFFFFFFFFFFFFFFFFFF AND DUP5 PUSH32 0x24AA18FE2C4313C2AC5230B1BFC5A1D7AE3AA27A4BA8B1CD91D35FAB737FDC8B PUSH1 0x40 MLOAD PUSH1 0x40 MLOAD DUP1 SWAP2 SUB SWAP1 LOG4 POP POP POP JUMP JUMPDEST DUP1 PUSH1 0x1 PUSH0 DUP5 PUSH20 0xFFFFFFFFFFFFFFFFFFFFFFFFFFFFFFFFFFFFFFFF AND PUSH20 0xFFFFFFFFFFFFFFFFFFFFFFFFFFFFFFFFFFFFFFFF AND DUP2 MSTORE PUSH1 0x20 ADD SWAP1 DUP2 MSTORE PUSH1 0x20 ADD PUSH0 KECCAK256 SWAP1 DUP2 PUSH2 0xA76 SWAP2 SWAP1 PUSH2 0x141F JUMP JUMPDEST POP POP POP JUMP JUMPDEST PUSH0 PUSH0 DUP5 DUP2 MSTORE PUSH1 0x20 ADD SWAP1 DUP2 MSTORE PUSH1 0x20 ADD PUSH0 KECCAK256 PUSH1 0x7 ADD PUSH0 SWAP1 SLOAD SWAP1 PUSH2 0x100 EXP SWAP1 DIV PUSH1 0xFF AND PUSH2 0xADA JUMPI PUSH1 0x40 MLOAD PUSH32 0x8C379A000000000000000000000000000000000000000000000000000000000 DUP2 MSTORE PUSH1 0x4 ADD PUSH2 0xAD1 SWAP1 PUSH2 0x11F9 JUMP JUMPDEST PUSH1 0x40 MLOAD DUP1 SWAP2 SUB SWAP1 REVERT JUMPDEST CALLER PUSH20 0xFFFFFFFFFFFFFFFFFFFFFFFFFFFFFFFFFFFFFFFF AND PUSH0 PUSH0 DUP6 DUP2 MSTORE PUSH1 0x20 ADD SWAP1 DUP2 MSTORE PUSH1 0x20 ADD PUSH0 KECCAK256 PUSH1 0x4 ADD PUSH0 SWAP1 SLOAD SWAP1 PUSH2 0x100 EXP SWAP1 DIV PUSH20 0xFFFFFFFFFFFFFFFFFFFFFFFFFFFFFFFFFFFFFFFF AND PUSH20 0xFFFFFFFFFFFFFFFFFFFFFFFFFFFFFFFFFFFFFFFF AND EQ PUSH2 0xB7A JUMPI PUSH1 0x40 MLOAD PUSH32 0x8C379A000000000000000000000000000000000000000000000000000000000 DUP2 MSTORE PUSH1 0x4 ADD PUSH2 0xB71 SWAP1 PUSH2 0x1642 JUMP JUMPDEST PUSH1 0x40 MLOAD DUP1 SWAP2 SUB SWAP1 REVERT JUMPDEST DUP2 DUP2 PUSH0 PUSH0 DUP7 DUP2 MSTORE PUSH1 0x20 ADD SWAP1 DUP2 MSTORE PUSH1 0x20 ADD PUSH0 KECCAK256 PUSH1 0x5 ADD SWAP2 DUP3 PUSH2 0xB9C SWAP3 SWAP2 SWAP1 PUSH2 0x166A JUMP JUMPDEST POP CALLER PUSH20 0xFFFFFFFFFFFFFFFFFFFFFFFFFFFFFFFFFFFFFFFF AND DUP4 PUSH32 0x9763029F6975CAB71B8C850A7BDEDD2FFE78765C556B357A194889E132E224CE DUP5 DUP5 PUSH1 0x40 MLOAD PUSH2 0xBE6 SWAP3 SWAP2 SWAP1 PUSH2 0x1737 JUMP JUMPDEST PUSH1 0x40 MLOAD DUP1 SWAP2 SUB SWAP1 LOG3 POP POP POP JUMP JUMPDEST PUSH0 PUSH1 0x40 MLOAD SWAP1 POP SWAP1 JUMP JUMPDEST PUSH0 PUSH0 REVERT JUMPDEST PUSH0 PUSH0 REVERT JUMPDEST PUSH0 PUSH20 0xFFFFFFFFFFFFFFFFFFFFFFFFFFFFFFFFFFFFFFFF DUP3 AND SWAP1 POP SWAP2 SWAP1 POP JUMP JUMPDEST PUSH0 PUSH2 0xC2D DUP3 PUSH2 0xC04 JUMP JUMPDEST SWAP1 POP SWAP2 SWAP1 POP JUMP JUMPDEST PUSH2 0xC3D DUP2 PUSH2 0xC23 JUMP JUMPDEST DUP2 EQ PUSH2 0xC47 JUMPI PUSH0 PUSH0 REVERT JUMPDEST POP JUMP JUMPDEST PUSH0 DUP2 CALLDATALOAD SWAP1 POP PUSH2 0xC58 DUP2 PUSH2 0xC34 JUMP JUMPDEST SWAP3 SWAP2 POP POP JUMP JUMPDEST PUSH0 PUSH1 0x20 DUP3 DUP5 SUB SLT ISZERO PUSH2 0xC73 JUMPI PUSH2 0xC72 PUSH2 0xBFC JUMP JUMPDEST JUMPDEST PUSH0 PUSH2 0xC80 DUP5 DUP3 DUP6 ADD PUSH2 0xC4A JUMP JUMPDEST SWAP2 POP POP SWAP3 SWAP2 POP POP JUMP JUMPDEST PUSH0 DUP2 MLOAD SWAP1 POP SWAP2 SWAP1 POP JUMP JUMPDEST PUSH0 DUP3 DUP3 MSTORE PUSH1 0x20 DUP3 ADD SWAP1 POP SWAP3 SWAP2 POP POP JUMP JUMPDEST DUP3 DUP2 DUP4 MCOPY PUSH0 DUP4 DUP4 ADD MSTORE POP POP POP JUMP JUMPDEST PUSH0 PUSH1 0x1F NOT PUSH1 0x1F DUP4 ADD AND SWAP1 POP SWAP2 SWAP1 POP JUMP JUMPDEST PUSH0 PUSH2 0xCCB DUP3 PUSH2 0xC89 JUMP JUMPDEST PUSH2 0xCD5 DUP2 DUP6 PUSH2 0xC93 JUMP JUMPDEST SWAP4 POP PUSH2 0xCE5 DUP2 DUP6 PUSH1 0x20 DUP7 ADD PUSH2 0xCA3 JUMP JUMPDEST PUSH2 0xCEE DUP2 PUSH2 0xCB1 JUMP JUMPDEST DUP5 ADD SWAP2 POP POP SWAP3 SWAP2 POP POP JUMP JUMPDEST PUSH0 PUSH1 0x20 DUP3 ADD SWAP1 POP DUP2 DUP2 SUB PUSH0 DUP4 ADD MSTORE PUSH2 0xD11 DUP2 DUP5 PUSH2 0xCC1 JUMP JUMPDEST SWAP1 POP SWAP3 SWAP2 POP POP JUMP JUMPDEST PUSH0 DUP2 SWAP1 POP SWAP2 SWAP1 POP JUMP JUMPDEST PUSH2 0xD2B DUP2 PUSH2 0xD19 JUMP JUMPDEST DUP2 EQ PUSH2 0xD35 JUMPI PUSH0 PUSH0 REVERT JUMPDEST POP JUMP JUMPDEST PUSH0 DUP2 CALLDATALOAD SWAP1 POP PUSH2 0xD46 DUP2 PUSH2 0xD22 JUMP JUMPDEST SWAP3 SWAP2 POP POP JUMP JUMPDEST PUSH0 PUSH1 0x20 DUP3 DUP5 SUB SLT ISZERO PUSH2 0xD61 JUMPI PUSH2 0xD60 PUSH2 0xBFC JUMP JUMPDEST JUMPDEST PUSH0 PUSH2 0xD6E DUP5 DUP3 DUP6 ADD PUSH2 0xD38 JUMP JUMPDEST SWAP2 POP POP SWAP3 SWAP2 POP POP JUMP JUMPDEST PUSH2 0xD80 DUP2 PUSH2 0xC23 JUMP JUMPDEST DUP3 MSTORE POP POP JUMP JUMPDEST PUSH2 0xD8F DUP2 PUSH2 0xD19 JUMP JUMPDEST DUP3 MSTORE POP POP JUMP JUMPDEST PUSH0 PUSH1 0xC0 DUP3 ADD SWAP1 POP DUP2 DUP2 SUB PUSH0 DUP4 ADD MSTORE PUSH2 0xDAD DUP2 DUP10 PUSH2 0xCC1 JUMP JUMPDEST SWAP1 POP DUP2 DUP2 SUB PUSH1 0x20 DUP4 ADD MSTORE PUSH2 0xDC1 DUP2 DUP9 PUSH2 0xCC1 JUMP JUMPDEST SWAP1 POP DUP2 DUP2 SUB PUSH1 0x40 DUP4 ADD MSTORE PUSH2 0xDD5 DUP2 DUP8 PUSH2 0xCC1 JUMP JUMPDEST SWAP1 POP PUSH2 0xDE4 PUSH1 0x60 DUP4 ADD DUP7 PUSH2 0xD77 JUMP JUMPDEST DUP2 DUP2 SUB PUSH1 0x80 DUP4 ADD MSTORE PUSH2 0xDF6 DUP2 DUP6 PUSH2 0xCC1 JUMP JUMPDEST SWAP1 POP PUSH2 0xE05 PUSH1 0xA0 DUP4 ADD DUP5 PUSH2 0xD86 JUMP JUMPDEST SWAP8 SWAP7 POP POP POP POP POP POP POP JUMP JUMPDEST PUSH0 PUSH0 REVERT JUMPDEST PUSH0 PUSH0 REVERT JUMPDEST PUSH0 PUSH0 REVERT JUMPDEST PUSH0 PUSH0 DUP4 PUSH1 0x1F DUP5 ADD SLT PUSH2 0xE31 JUMPI PUSH2 0xE30 PUSH2 0xE10 JUMP JUMPDEST JUMPDEST DUP3 CALLDATALOAD SWAP1 POP PUSH8 0xFFFFFFFFFFFFFFFF DUP2 GT ISZERO PUSH2 0xE4E JUMPI PUSH2 0xE4D PUSH2 0xE14 JUMP JUMPDEST JUMPDEST PUSH1 0x20 DUP4 ADD SWAP2 POP DUP4 PUSH1 0x1 DUP3 MUL DUP4 ADD GT ISZERO PUSH2 0xE6A JUMPI PUSH2 0xE69 PUSH2 0xE18 JUMP JUMPDEST JUMPDEST SWAP3 POP SWAP3 SWAP1 POP JUMP JUMPDEST PUSH0 PUSH0 PUSH0 PUSH0 PUSH0 PUSH0 PUSH0 PUSH1 0x80 DUP9 DUP11 SUB SLT ISZERO PUSH2 0xE8C JUMPI PUSH2 0xE8B PUSH2 0xBFC JUMP JUMPDEST JUMPDEST PUSH0 PUSH2 0xE99 DUP11 DUP3 DUP12 ADD PUSH2 0xD38 JUMP JUMPDEST SWAP8 POP POP PUSH1 0x20 DUP9 ADD CALLDATALOAD PUSH8 0xFFFFFFFFFFFFFFFF DUP2 GT ISZERO PUSH2 0xEBA JUMPI PUSH2 0xEB9 PUSH2 0xC00 JUMP JUMPDEST JUMPDEST PUSH2 0xEC6 DUP11 DUP3 DUP12 ADD PUSH2 0xE1C JUMP JUMPDEST SWAP7 POP SWAP7 POP POP PUSH1 0x40 DUP9 ADD CALLDATALOAD PUSH8 0xFFFFFFFFFFFFFFFF DUP2 GT ISZERO PUSH2 0xEE9 JUMPI PUSH2 0xEE8 PUSH2 0xC00 JUMP JUMPDEST JUMPDEST PUSH2 0xEF5 DUP11 DUP3 DUP12 ADD PUSH2 0xE1C JUMP JUMPDEST SWAP5 POP SWAP5 POP POP PUSH1 0x60 DUP9 ADD CALLDATALOAD PUSH8 0xFFFFFFFFFFFFFFFF DUP2 GT ISZERO PUSH2 0xF18 JUMPI PUSH2 0xF17 PUSH2 0xC00 JUMP JUMPDEST JUMPDEST PUSH2 0xF24 DUP11 DUP3 DUP12 ADD PUSH2 0xE1C JUMP JUMPDEST SWAP3 POP SWAP3 POP POP SWAP3 SWAP6 SWAP9 SWAP2 SWAP5 SWAP8 POP SWAP3 SWAP6 POP JUMP JUMPDEST PUSH0 PUSH0 PUSH1 0x40 DUP4 DUP6 SUB SLT ISZERO PUSH2 0xF4B JUMPI PUSH2 0xF4A PUSH2 0xBFC JUMP JUMPDEST JUMPDEST PUSH0 PUSH2 0xF58 DUP6 DUP3 DUP7 ADD PUSH2 0xD38 JUMP JUMPDEST SWAP3 POP POP PUSH1 0x20 PUSH2 0xF69 DUP6 DUP3 DUP7 ADD PUSH2 0xC4A JUMP JUMPDEST SWAP2 POP POP SWAP3 POP SWAP3 SWAP1 POP JUMP JUMPDEST PUSH0 PUSH0 REVERT JUMPDEST PUSH32 0x4E487B7100000000000000000000000000000000000000000000000000000000 PUSH0 MSTORE PUSH1 0x41 PUSH1 0x4 MSTORE PUSH1 0x24 PUSH0 REVERT JUMPDEST PUSH2 0xFAD DUP3 PUSH2 0xCB1 JUMP JUMPDEST DUP2 ADD DUP2 DUP2 LT PUSH8 0xFFFFFFFFFFFFFFFF DUP3 GT OR ISZERO PUSH2 0xFCC JUMPI PUSH2 0xFCB PUSH2 0xF77 JUMP JUMPDEST JUMPDEST DUP1 PUSH1 0x40 MSTORE POP POP POP JUMP JUMPDEST PUSH0 PUSH2 0xFDE PUSH2 0xBF3 JUMP JUMPDEST SWAP1 POP PUSH2 0xFEA DUP3 DUP3 PUSH2 0xFA4 JUMP JUMPDEST SWAP2 SWAP1 POP JUMP JUMPDEST PUSH0 PUSH8 0xFFFFFFFFFFFFFFFF DUP3 GT ISZERO PUSH2 0x1009 JUMPI PUSH2 0x1008 PUSH2 0xF77 JUMP JUMPDEST JUMPDEST PUSH2 0x1012 DUP3 PUSH2 0xCB1 JUMP JUMPDEST SWAP1 POP PUSH1 0x20 DUP2 ADD SWAP1 POP SWAP2 SWAP1 POP JUMP JUMPDEST DUP3 DUP2 DUP4 CALLDATACOPY PUSH0 DUP4 DUP4 ADD MSTORE POP POP POP JUMP JUMPDEST PUSH0 PUSH2 0x103F PUSH2 0x103A DUP5 PUSH2 0xFEF JUMP JUMPDEST PUSH2 0xFD5 JUMP JUMPDEST SWAP1 POP DUP3 DUP2 MSTORE PUSH1 0x20 DUP2 ADD DUP5 DUP5 DUP5 ADD GT ISZERO PUSH2 0x105B JUMPI PUSH2 0x105A PUSH2 0xF73 JUMP JUMPDEST JUMPDEST PUSH2 0x1066 DUP5 DUP3 DUP6 PUSH2 0x101F JUMP JUMPDEST POP SWAP4 SWAP3 POP POP POP JUMP JUMPDEST PUSH0 DUP3 PUSH1 0x1F DUP4 ADD SLT PUSH2 0x1082 JUMPI PUSH2 0x1081 PUSH2 0xE10 JUMP JUMPDEST JUMPDEST DUP2 CALLDATALOAD PUSH2 0x1092 DUP5 DUP3 PUSH1 0x20 DUP7 ADD PUSH2 0x102D JUMP JUMPDEST SWAP2 POP POP SWAP3 SWAP2 POP POP JUMP JUMPDEST PUSH0 PUSH0 PUSH1 0x40 DUP4 DUP6 SUB SLT ISZERO PUSH2 0x10B1 JUMPI PUSH2 0x10B0 PUSH2 0xBFC JUMP JUMPDEST JUMPDEST PUSH0 PUSH2 0x10BE DUP6 DUP3 DUP7 ADD PUSH2 0xC4A JUMP JUMPDEST SWAP3 POP POP PUSH1 0x20 DUP4 ADD CALLDATALOAD PUSH8 0xFFFFFFFFFFFFFFFF DUP2 GT ISZERO PUSH2 0x10DF JUMPI PUSH2 0x10DE PUSH2 0xC00 JUMP JUMPDEST JUMPDEST PUSH2 0x10EB DUP6 DUP3 DUP7 ADD PUSH2 0x106E JUMP JUMPDEST SWAP2 POP POP SWAP3 POP SWAP3 SWAP1 POP JUMP JUMPDEST PUSH0 PUSH0 PUSH0 PUSH1 0x40 DUP5 DUP7 SUB SLT ISZERO PUSH2 0x110C JUMPI PUSH2 0x110B PUSH2 0xBFC JUMP JUMPDEST JUMPDEST PUSH0 PUSH2 0x1119 DUP7 DUP3 DUP8 ADD PUSH2 0xD38 JUMP JUMPDEST SWAP4 POP POP PUSH1 0x20 DUP5 ADD CALLDATALOAD PUSH8 0xFFFFFFFFFFFFFFFF DUP2 GT ISZERO PUSH2 0x113A JUMPI PUSH2 0x1139 PUSH2 0xC00 JUMP JUMPDEST JUMPDEST PUSH2 0x1146 DUP7 DUP3 DUP8 ADD PUSH2 0xE1C JUMP JUMPDEST SWAP3 POP SWAP3 POP POP SWAP3 POP SWAP3 POP SWAP3 JUMP JUMPDEST PUSH32 0x4E487B7100000000000000000000000000000000000000000000000000000000 PUSH0 MSTORE PUSH1 0x22 PUSH1 0x4 MSTORE PUSH1 0x24 PUSH0 REVERT JUMPDEST PUSH0 PUSH1 0x2 DUP3 DIV SWAP1 POP PUSH1 0x1 DUP3 AND DUP1 PUSH2 0x1196 JUMPI PUSH1 0x7F DUP3 AND SWAP2 POP JUMPDEST PUSH1 0x20 DUP3 LT DUP2 SUB PUSH2 0x11A9 JUMPI PUSH2 0x11A8 PUSH2 0x1152 JUMP JUMPDEST JUMPDEST POP SWAP2 SWAP1 POP JUMP JUMPDEST PUSH32 0x50726F6475637420646F6573206E6F7420657869737400000000000000000000 PUSH0 DUP3 ADD MSTORE POP JUMP JUMPDEST PUSH0 PUSH2 0x11E3 PUSH1 0x16 DUP4 PUSH2 0xC93 JUMP JUMPDEST SWAP2 POP PUSH2 0x11EE DUP3 PUSH2 0x11AF JUMP JUMPDEST PUSH1 0x20 DUP3 ADD SWAP1 POP SWAP2 SWAP1 POP JUMP JUMPDEST PUSH0 PUSH1 0x20 DUP3 ADD SWAP1 POP DUP2 DUP2 SUB PUSH0 DUP4 ADD MSTORE PUSH2 0x1210 DUP2 PUSH2 0x11D7 JUMP JUMPDEST SWAP1 POP SWAP2 SWAP1 POP JUMP JUMPDEST PUSH32 0x50726F6475637420616C72656164792065786973747300000000000000000000 PUSH0 DUP3 ADD MSTORE POP JUMP JUMPDEST PUSH0 PUSH2 0x124B PUSH1 0x16 DUP4 PUSH2 0xC93 JUMP JUMPDEST SWAP2 POP PUSH2 0x1256 DUP3 PUSH2 0x1217 JUMP JUMPDEST PUSH1 0x20 DUP3 ADD SWAP1 POP SWAP2 SWAP1 POP JUMP JUMPDEST PUSH0 PUSH1 0x20 DUP3 ADD SWAP1 POP DUP2 DUP2 SUB PUSH0 DUP4 ADD MSTORE PUSH2 0x1278 DUP2 PUSH2 0x123F JUMP JUMPDEST SWAP1 POP SWAP2 SWAP1 POP JUMP JUMPDEST PUSH0 DUP2 SWAP1 POP DUP2 PUSH0 MSTORE PUSH1 0x20 PUSH0 KECCAK256 SWAP1 POP SWAP2 SWAP1 POP JUMP JUMPDEST PUSH0 PUSH1 0x20 PUSH1 0x1F DUP4 ADD DIV SWAP1 POP SWAP2 SWAP1 POP JUMP JUMPDEST PUSH0 DUP3 DUP3 SHL SWAP1 POP SWAP3 SWAP2 POP POP JUMP JUMPDEST PUSH0 PUSH1 0x8 DUP4 MUL PUSH2 0x12DB PUSH32 0xFFFFFFFFFFFFFFFFFFFFFFFFFFFFFFFFFFFFFFFFFFFFFFFFFFFFFFFFFFFFFFFF DUP3 PUSH2 0x12A0 JUMP JUMPDEST PUSH2 0x12E5 DUP7 DUP4 PUSH2 0x12A0 JUMP JUMPDEST SWAP6 POP DUP1 NOT DUP5 AND SWAP4 POP DUP1 DUP7 AND DUP5 OR SWAP3 POP POP POP SWAP4 SWAP3 POP POP POP JUMP JUMPDEST PUSH0 DUP2 SWAP1 POP SWAP2 SWAP1 POP JUMP JUMPDEST PUSH0 PUSH2 0x1320 PUSH2 0x131B PUSH2 0x1316 DUP5 PUSH2 0xD19 JUMP JUMPDEST PUSH2 0x12FD JUMP JUMPDEST PUSH2 0xD19 JUMP JUMPDEST SWAP1 POP SWAP2 SWAP1 POP JUMP JUMPDEST PUSH0 DUP2 SWAP1 POP SWAP2 SWAP1 POP JUMP JUMPDEST PUSH2 0x1339 DUP4 PUSH2 0x1306 JUMP JUMPDEST PUSH2 0x134D PUSH2 0x1345 DUP3 PUSH2 0x1327 JUMP JUMPDEST DUP5 DUP5 SLOAD PUSH2 0x12AC JUMP JUMPDEST DUP3 SSTORE POP POP POP POP JUMP JUMPDEST PUSH0 PUSH0 SWAP1 POP SWAP1 JUMP JUMPDEST PUSH2 0x1364 PUSH2 0x1355 JUMP JUMPDEST PUSH2 0x136F DUP2 DUP5 DUP5 PUSH2 0x1330 JUMP JUMPDEST POP POP POP JUMP JUMPDEST JUMPDEST DUP2 DUP2 LT ISZERO PUSH2 0x1392 JUMPI PUSH2 0x1387 PUSH0 DUP3 PUSH2 0x135C JUMP JUMPDEST PUSH1 0x1 DUP2 ADD SWAP1 POP PUSH2 0x1375 JUMP JUMPDEST POP POP JUMP JUMPDEST PUSH1 0x1F DUP3 GT ISZERO PUSH2 0x13D7 JUMPI PUSH2 0x13A8 DUP2 PUSH2 0x127F JUMP JUMPDEST PUSH2 0x13B1 DUP5 PUSH2 0x1291 JUMP JUMPDEST DUP2 ADD PUSH1 0x20 DUP6 LT ISZERO PUSH2 0x13C0 JUMPI DUP2 SWAP1 POP JUMPDEST PUSH2 0x13D4 PUSH2 0x13CC DUP6 PUSH2 0x1291 JUMP JUMPDEST DUP4 ADD DUP3 PUSH2 0x1374 JUMP JUMPDEST POP POP JUMPDEST POP POP POP JUMP JUMPDEST PUSH0 DUP3 DUP3 SHR SWAP1 POP SWAP3 SWAP2 POP POP JUMP JUMPDEST PUSH0 PUSH2 0x13F7 PUSH0 NOT DUP5 PUSH1 0x8 MUL PUSH2 0x13DC JUMP JUMPDEST NOT DUP1 DUP4 AND SWAP2 POP POP SWAP3 SWAP2 POP POP JUMP JUMPDEST PUSH0 PUSH2 0x140F DUP4 DUP4 PUSH2 0x13E8 JUMP JUMPDEST SWAP2 POP DUP3 PUSH1 0x2 MUL DUP3 OR SWAP1 POP SWAP3 SWAP2 POP POP JUMP JUMPDEST PUSH2 0x1428 DUP3 PUSH2 0xC89 JUMP JUMPDEST PUSH8 0xFFFFFFFFFFFFFFFF DUP2 GT ISZERO PUSH2 0x1441 JUMPI PUSH2 0x1440 PUSH2 0xF77 JUMP JUMPDEST JUMPDEST PUSH2 0x144B DUP3 SLOAD PUSH2 0x117F JUMP JUMPDEST PUSH2 0x1456 DUP3 DUP3 DUP6 PUSH2 0x1396 JUMP JUMPDEST PUSH0 PUSH1 0x20 SWAP1 POP PUSH1 0x1F DUP4 GT PUSH1 0x1 DUP2 EQ PUSH2 0x1487 JUMPI PUSH0 DUP5 ISZERO PUSH2 0x1475 JUMPI DUP3 DUP8 ADD MLOAD SWAP1 POP JUMPDEST PUSH2 0x147F DUP6 DUP3 PUSH2 0x1404 JUMP JUMPDEST DUP7 SSTORE POP PUSH2 0x14E6 JUMP JUMPDEST PUSH1 0x1F NOT DUP5 AND PUSH2 0x1495 DUP7 PUSH2 0x127F JUMP JUMPDEST PUSH0 JUMPDEST DUP3 DUP2 LT ISZERO PUSH2 0x14BC JUMPI DUP5 DUP10 ADD MLOAD DUP3 SSTORE PUSH1 0x1 DUP3 ADD SWAP2 POP PUSH1 0x20 DUP6 ADD SWAP5 POP PUSH1 0x20 DUP2 ADD SWAP1 POP PUSH2 0x1497 JUMP JUMPDEST DUP7 DUP4 LT ISZERO PUSH2 0x14D9 JUMPI DUP5 DUP10 ADD MLOAD PUSH2 0x14D5 PUSH1 0x1F DUP10 AND DUP3 PUSH2 0x13E8 JUMP JUMPDEST DUP4 SSTORE POP JUMPDEST PUSH1 0x1 PUSH1 0x2 DUP9 MUL ADD DUP9 SSTORE POP POP POP JUMPDEST POP POP POP POP POP POP JUMP JUMPDEST PUSH0 PUSH2 0x14F9 DUP4 DUP6 PUSH2 0xC93 JUMP JUMPDEST SWAP4 POP PUSH2 0x1506 DUP4 DUP6 DUP5 PUSH2 0x101F JUMP JUMPDEST PUSH2 0x150F DUP4 PUSH2 0xCB1 JUMP JUMPDEST DUP5 ADD SWAP1 POP SWAP4 SWAP3 POP POP POP JUMP JUMPDEST PUSH0 PUSH1 0x60 DUP3 ADD SWAP1 POP DUP2 DUP2 SUB PUSH0 DUP4 ADD MSTORE PUSH2 0x1533 DUP2 DUP9 DUP11 PUSH2 0x14EE JUMP JUMPDEST SWAP1 POP DUP2 DUP2 SUB PUSH1 0x20 DUP4 ADD MSTORE PUSH2 0x1548 DUP2 DUP7 DUP9 PUSH2 0x14EE JUMP JUMPDEST SWAP1 POP DUP2 DUP2 SUB PUSH1 0x40 DUP4 ADD MSTORE PUSH2 0x155D DUP2 DUP5 DUP7 PUSH2 0x14EE JUMP JUMPDEST SWAP1 POP SWAP8 SWAP7 POP POP POP POP POP POP POP JUMP JUMPDEST PUSH32 0x4F6E6C792063757272656E74206F776E65722063616E207472616E7366657200 PUSH0 DUP3 ADD MSTORE POP JUMP JUMPDEST PUSH0 PUSH2 0x159E PUSH1 0x1F DUP4 PUSH2 0xC93 JUMP JUMPDEST SWAP2 POP PUSH2 0x15A9 DUP3 PUSH2 0x156A JUMP JUMPDEST PUSH1 0x20 DUP3 ADD SWAP1 POP SWAP2 SWAP1 POP JUMP JUMPDEST PUSH0 PUSH1 0x20 DUP3 ADD SWAP1 POP DUP2 DUP2 SUB PUSH0 DUP4 ADD MSTORE PUSH2 0x15CB DUP2 PUSH2 0x1592 JUMP JUMPDEST SWAP1 POP SWAP2 SWAP1 POP JUMP JUMPDEST PUSH32 0x4F6E6C792063757272656E74206F776E65722063616E20757064617465207374 PUSH0 DUP3 ADD MSTORE PUSH32 0x6174757300000000000000000000000000000000000000000000000000000000 PUSH1 0x20 DUP3 ADD MSTORE POP JUMP JUMPDEST PUSH0 PUSH2 0x162C PUSH1 0x24 DUP4 PUSH2 0xC93 JUMP JUMPDEST SWAP2 POP PUSH2 0x1637 DUP3 PUSH2 0x15D2 JUMP JUMPDEST PUSH1 0x40 DUP3 ADD SWAP1 POP SWAP2 SWAP1 POP JUMP JUMPDEST PUSH0 PUSH1 0x20 DUP3 ADD SWAP1 POP DUP2 DUP2 SUB PUSH0 DUP4 ADD MSTORE PUSH2 0x1659 DUP2 PUSH2 0x1620 JUMP JUMPDEST SWAP1 POP SWAP2 SWAP1 POP JUMP JUMPDEST PUSH0 DUP3 SWAP1 POP SWAP3 SWAP2 POP POP JUMP JUMPDEST PUSH2 0x1674 DUP4 DUP4 PUSH2 0x1660 JUMP JUMPDEST PUSH8 0xFFFFFFFFFFFFFFFF DUP2 GT ISZERO PUSH2 0x168D JUMPI PUSH2 0x168C PUSH2 0xF77 JUMP JUMPDEST JUMPDEST PUSH2 0x1697 DUP3 SLOAD PUSH2 0x117F JUMP JUMPDEST PUSH2 0x16A2 DUP3 DUP3 DUP6 PUSH2 0x1396 JUMP JUMPDEST PUSH0 PUSH1 0x1F DUP4 GT PUSH1 0x1 DUP2 EQ PUSH2 0x16CF JUMPI PUSH0 DUP5 ISZERO PUSH2 0x16BD JUMPI DUP3 DUP8 ADD CALLDATALOAD SWAP1 POP JUMPDEST PUSH2 0x16C7 DUP6 DUP3 PUSH2 0x1404 JUMP JUMPDEST DUP7 SSTORE POP PUSH2 0x172E JUMP JUMPDEST PUSH1 0x1F NOT DUP5 AND PUSH2 0x16DD DUP7 PUSH2 0x127F JUMP JUMPDEST PUSH0 JUMPDEST DUP3 DUP2 LT ISZERO PUSH2 0x1704 JUMPI DUP5 DUP10 ADD CALLDATALOAD DUP3 SSTORE PUSH1 0x1 DUP3 ADD SWAP2 POP PUSH1 0x20 DUP6 ADD SWAP5 POP PUSH1 0x20 DUP2 ADD SWAP1 POP PUSH2 0x16DF JUMP JUMPDEST DUP7 DUP4 LT ISZERO PUSH2 0x1721 JUMPI DUP5 DUP10 ADD CALLDATALOAD PUSH2 0x171D PUSH1 0x1F DUP10 AND DUP3 PUSH2 0x13E8 JUMP JUMPDEST DUP4 SSTORE POP JUMPDEST PUSH1 0x1 PUSH1 0x2 DUP9 MUL ADD DUP9 SSTORE POP POP POP JUMPDEST POP POP POP POP POP POP POP JUMP JUMPDEST PUSH0 PUSH1 0x20 DUP3 ADD SWAP1 POP DUP2 DUP2 SUB PUSH0 DUP4 ADD MSTORE PUSH2 0x1750 DUP2 DUP5 DUP7 PUSH2 0x14EE JUMP JUMPDEST SWAP1 POP SWAP4 SWAP3 POP POP POP JUMP INVALID LOG2 PUSH5 0x6970667358 0x22 SLT KECCAK256 MUL SDIV PUSH12 0x13560C9EB69F24C834AE7513 GAS 0xDA 0xDA 0xC9 0x2E 0xB3 DUP13 0xC1 JUMP 0xC8 PUSH13 0xE2C6BA70533264736F6C634300 ADDMOD 0x1E STOP CALLER "
				},
				"gasEstimates": {
					"creation": {
						"codeDepositCost": "1206200",
						"executionCost": "1252",
						"totalCost": "1207452"
					},
					"external": {
						"assignRole(address,string)": "infinite",
						"registerProduct(uint256,string,string,string)": "infinite",
						"stakeholderRoles(address)": "infinite",
						"transferCustody(uint256,address)": "33644",
						"updateProductStatus(uint256,string)": "infinite",
						"verifyProduct(uint256)": "infinite"
					}
				},
				"methodIdentifiers": {
					"assignRole(address,string)": "b7dfcbee",
					"registerProduct(uint256,string,string,string)": "700bd66e",
					"stakeholderRoles(address)": "37d306fe",
					"transferCustody(uint256,address)": "815fc9bb",
					"updateProductStatus(uint256,string)": "ba429578",
					"verifyProduct(uint256)": "524e8462"
				}
			},
			"storageLayout": {
				"storage": [
					{
						"astId": 34,
						"contract": "contracts/SupplyChainProveance.sol:SupplyChainProvenance",
						"label": "products",
						"offset": 0,
						"slot": "0",
						"type": "t_mapping(t_uint256,t_struct(Product)28_storage)"
					},
					{
						"astId": 39,
						"contract": "contracts/SupplyChainProveance.sol:SupplyChainProvenance",
						"label": "stakeholderRoles",
						"offset": 0,
						"slot": "1",
						"type": "t_mapping(t_address,t_string_storage)"
					}
				],
				"types": {
					"t_address": {
						"encoding": "inplace",
						"label": "address",
						"numberOfBytes": "20"
					},
					"t_bool": {
						"encoding": "inplace",
						"label": "bool",
						"numberOfBytes": "1"
					},
					"t_mapping(t_address,t_string_storage)": {
						"encoding": "mapping",
						"key": "t_address",
						"label": "mapping(address => string)",
						"numberOfBytes": "32",
						"value": "t_string_storage"
					},
					"t_mapping(t_uint256,t_struct(Product)28_storage)": {
						"encoding": "mapping",
						"key": "t_uint256",
						"label": "mapping(uint256 => struct SupplyChainProvenance.Product)",
						"numberOfBytes": "32",
						"value": "t_struct(Product)28_storage"
					},
					"t_string_storage": {
						"encoding": "bytes",
						"label": "string",
						"numberOfBytes": "32"
					},
					"t_struct(Product)28_storage": {
						"encoding": "inplace",
						"label": "struct SupplyChainProvenance.Product",
						"members": [
							{
								"astId": 13,
								"contract": "contracts/SupplyChainProveance.sol:SupplyChainProvenance",
								"label": "productId",
								"offset": 0,
								"slot": "0",
								"type": "t_uint256"
							},
							{
								"astId": 15,
								"contract": "contracts/SupplyChainProveance.sol:SupplyChainProvenance",
								"label": "name",
								"offset": 0,
								"slot": "1",
								"type": "t_string_storage"
							},
							{
								"astId": 17,
								"contract": "contracts/SupplyChainProveance.sol:SupplyChainProvenance",
								"label": "origin",
								"offset": 0,
								"slot": "2",
								"type": "t_string_storage"
							},
							{
								"astId": 19,
								"contract": "contracts/SupplyChainProveance.sol:SupplyChainProvenance",
								"label": "batchNumber",
								"offset": 0,
								"slot": "3",
								"type": "t_string_storage"
							},
							{
								"astId": 21,
								"contract": "contracts/SupplyChainProveance.sol:SupplyChainProvenance",
								"label": "currentOwner",
								"offset": 0,
								"slot": "4",
								"type": "t_address"
							},
							{
								"astId": 23,
								"contract": "contracts/SupplyChainProveance.sol:SupplyChainProvenance",
								"label": "currentStatus",
								"offset": 0,
								"slot": "5",
								"type": "t_string_storage"
							},
							{
								"astId": 25,
								"contract": "contracts/SupplyChainProveance.sol:SupplyChainProvenance",
								"label": "createdAt",
								"offset": 0,
								"slot": "6",
								"type": "t_uint256"
							},
							{
								"astId": 27,
								"contract": "contracts/SupplyChainProveance.sol:SupplyChainProvenance",
								"label": "exists",
								"offset": 0,
								"slot": "7",
								"type": "t_bool"
							}
						],
						"numberOfBytes": "256"
					},
					"t_uint256": {
						"encoding": "inplace",
						"label": "uint256",
						"numberOfBytes": "32"
					}
				}
			},
			"userdoc": {
				"events": {
					"CustodyTransferred(uint256,address,address)": {
						"notice": "Emitted when product custody is transferred."
					},
					"ProductRegistered(uint256,string,string,string,address)": {
						"notice": "Emitted when a new product is registered."
					},
					"ProductStatusUpdated(uint256,string,address)": {
						"notice": "Emitted when the status of a product is updated."
					}
				},
				"kind": "user",
				"methods": {
					"assignRole(address,string)": {
						"notice": "Assigns a role label to a stakeholder."
					},
					"registerProduct(uint256,string,string,string)": {
						"notice": "Registers a new product on the blockchain."
					},
					"stakeholderRoles(address)": {
						"notice": "Tracks stakeholder roles for future access control."
					},
					"transferCustody(uint256,address)": {
						"notice": "Transfers custody or ownership of a product to another stakeholder."
					},
					"updateProductStatus(uint256,string)": {
						"notice": "Updates the status of a product as it moves through the supply chain."
					},
					"verifyProduct(uint256)": {
						"notice": "Returns product details for provenance verification."
					}
				},
				"notice": "Draft smart contract for tracking product provenance in a supply chain.",
				"version": 1
			}
		}
	}
}